:1000000000FC0320A5AD02000D9F02000D9F020021
:100010000D9F02000D9F02000D9F02000D9F020028
:100020000D9F02000D9F02000D9F02000D9F020018
:0C0030000D9F02000D9F02002F3A0100FE
:10003C002DE9F047A8B004460078A0F1A0015C2996
:10004C0000F26780DFE811F0BC00DF005D005D00AE
:10005C00F70024015F015D0084018D01A901E60117
:10006C0015023C024F025B02690274027D02860299
:10007C008C0295029B02C902E002EB02F702070315
:10008C001203B900B900B9001C032603B900B9006A
:10009C003103B900B900B900B900B900B900B90011
:1000AC00B9003C034203B900B900B900B900B9006A
:1000BC00B900B900B9004B035403B900B900B90039
:1000CC00B900B900B900B900B9005D03B900B900B5
:1000DC006403B9008603B900B900B900B9009003F4
:1000EC00B900B900B900B900B900B900B900B9003C
:1000FC00B900B900B900B900B9009903A7035D00B4
:10010C00B90060681221002808BF0221617001F05B
:10011C0085BA4D2800F25180A678DFE810F04C0328
:10012C004E005E03680348044E004E0071048204C6
:10013C00D0044E004E004E004E004E004E00D9042E
:10014C00E3040B054E002F05370645064E005006FE
:10015C005F064E006A0684064E00AD06D106D40634
:10016C00E10605074E004E004E004E004E004F07B4
:10017C004E005D076E077F074E004E004E004E008E
:10018C004E004E004E004E004E004E004E004E00F3
:10019C004E009807B307CD074E004E004E004E00A0
:1001AC00E7074E0049084E005A084E004E004E001C
:1001BC004E007A0891089E08A808122001F02DBA6A
:1001CC006068002801F02882A168002901F02482CF
:1001DC0001783A20002908BF3B200BAD00211122E9
:1001EC002B462FF0CDFB0028607041F01782D4E92C
:1001FC0001109DF82C204270097800F8021B691C34
:10020C00102200F036BE6168002901F005820878E2
:10021C004A783A258B7800288DF82C2008BF3B258E
:10022C000BA80130002B01F03880033110222FF085
:10023C00ADFD01F034B86168002901F0ED81A068D2
:10024C00002801F0E98111F8012B00F8012B30F0A6
:10025C002CFB60680178002901F0AF81DFF8E00E1B
:10026C000BAE002506F108080788AF4201F0D281D9
:10027C00A9B204200022142300962CF0B9F8607067
:10028C0020B92FF0F5FF002801F025820135ECE7AD
:10029C006068002801F0C0810178002901F0058018
:1002AC00DFF89C0E0DF12C0A00250DF11C08002620
:1002BC000AF10809CDE90955CDE907550788B74278
:1002CC0001F0D981B1B2042000221423CDF800A092
:1002DC002CF08EF86070A0B9606849460822043092
:1002EC002EF03EFA002801F0C48155B960684146F1
:1002FC00082204302EF034FA00284FF0000508BF15
:10030C0035460136DBE76068002801F0858101780D
:10031C00002900F0E487DFF8280E0DF12C090027E6
:10032C0009F108080588BD4201F07881BEB20420AD
:10033C0000221423CDF8009031462CF059F860704F
:10034C0020B92FF095FF002801F0A7810137EAE7CB
:10035C00DFF8F00D4FF48071007822F073F901F0A2
:10036C0059B96068002801F05781418800882BF04A
:10037C0071FA68B9606801224188008826F064F936
:10038C006068418800882BF065FA002801F09C8198
:10039C0061680979417001F03DB96168002900F08C
:1003AC007187DFF8A45D087885F8260095F872202F
:1003BC004888E882087A2876488968834868A86261
:1003CC008889A884887B85F83800C87B6871087C8C
:1003DC00E8704869286388696863087F824202D0A4
:1003EC0027F064F8616805F139001D3130F0B4FA7A
:1003FC0095F82600082840F04D87DFF84C2D212079
:10040C00742130F037F800200221002528F052FF2B
:10041C0000F041BF6068002800F03687007827F0B4
:10042C0045F86168DFF8205D287E4978884212D053
:10043C0029760BA9E1202EF0C7FA606841789DF867
:10044C002C00884207D08DF82C100BA9E12028F045
:10045C0061FC60684078012101FA00F0A8622DF07F
:10046C00B9FD00260120A5F8706020F09FFD00F07A
:10047C000CBF6068002801F0CF8001884088ADF87F
:10048C001C00ADF82C100BA9532028F043FC07A935
:10049C00502028F03FFC0DF11B01E1202EF094FAC6
:1004AC0060689DF81B100079814201F0B3808DF8D3
:1004BC001B000DF11B01E12028F02CFC01F0AAB867
:1004CC006168002901F0A880DFF8800C30F0EDF9AC
:1004DC006068DFF87C2C0189807A1180DFF8741C4D
:1004EC00087001F097B86068002801F09580002131
:1004FC0061708178008823F03BFD01F08FB8A06813
:10050C00002801F089800020607026F0C5FC0028CE
:10051C0000F0E986A16800F090BE6068002801F048
:10052C007B800021617000780AF054FC01F076B8F1
:10053C006068002801F07080007827F04FF901F016
:10054C006CB8A068002801F06780002060702FF064
:10055C00E9FEB2E00020607029F0DAFA01F05EB832
:10056C00A068002801F05880002060702FF0BEFFBA
:10057C00A3E00020607029F003FB01F04FB8606825
:10058C00002801F0498000216170017D19B1C17C06
:10059C00DFF8C42B5174817D19B1417DDFF8B82B84
:1005AC009174017C19B1C189DFF8AC2B1181017BED
:1005BC0019B18168DFF8A02B5160817C19B1417CA5
:1005CC00DFF8942B51730179002901F02780006822
:1005DC00DFF8841B086001F021B8A068002801F046
:1005EC001B80DFF8741BD1F80D20C0F80D2091E8AA
:1005FC002C0085600D7BC0E900230573B1F8111048
:10060C00A0F8111001F006B8A068002801F00480D1
:10061C0000216170411C27F0BFF800F0FFBF60683B
:10062C00002800F0F9870021617025F061FDA168B8
:10063C00088000F0F3BF6568002D00F0ED87EB88B3
:10064C00AA88698828782E890A35CDE9006518F0C2
:10065C009BF800F0E2BF6068002800F0DD8782881C
:10066C004188007806F0C6FB00F0D7BF6068002810
:10067C0000F0D28700F1120128F078F800F0CDBF1D
:10068C006068002800F0C8874168007825F0EEFD0E
:10069C0000F0C3BF6068002800F0BE8700216170C5
:1006AC0000782AF0A1F800F0B9BFA068002800F08B
:1006BC00B387002060702DF0FDFCA16800F0BEBD7A
:1006CC000020607024F086F900F0A8BF6068002854
:1006DC0000F0A287006829F037FA00F09EBF60682E
:1006EC00002800F09987006805F0A2FB00F095BF88
:1006FC006068002800F0908700680EF007FD00F09D
:10070C008CBF0020DFF8541A6070E07800F096BDC2
:10071C006168002900F082870820ADF82C00088859
:10072C00ADF82E00081D0BAC90E86800221D68C2C5
:10073C00087CD1E905231C31CDE910238DF83C0050
:10074C0004F11C0010222FF021FB20462BF0A8FEF8
:10075C0000F064BF6068002800F06087817A008830
:10076C0027F006FC00F05ABF60680078002800F003
:10077C008E8529F045F800F051BF6068002800F024
:10078C004B87DFF8DC19097801293FF616AD2FF0FD
:10079C0025F800F042BF6068002800F03D87DFF8C4
:1007AC00C019097801293FF608AD4168008823F08B
:1007BC005BFB00F032BF6068002800F02D874078AA
:1007CC0018B1FF20032128F075FD2FF0C9FFE9486F
:1007DC00016841F000410160FEE76068002800F00C
:1007EC001B8703210171E449016000F013BF6268AB
:1007FC00002A00F01187A168002900F00D87002065
:10080C006070107840B101200870DFF8580900784A
:10081C00002818BF01204870907840B10120087161
:10082C00DFF844090078002818BF01204871D078FF
:10083C0048B100202FF090F8D4E90121C0F34030EA
:10084C00C87101208871107950B30120087201F130
:10085C000C002FF081F8A1680882DFF804090078F9
:10086C0002281DD1DFF804090078C8B9DFF8005957
:10087C000120A847A16848610220A847A1688861A7
:10088C000420A847A168C8610820A847A16808628D
:10089C001020A847A16848622020A847A168886258
:1008AC006068427932B1012281F82C20DFF8C4282B
:1008BC001288CA85827932B1012281F83020DFF8A2
:1008CC00B82812884A86C27932B1012281F83420C4
:1008DC00DFF8A8281288CA86027A3AB1012281F878
:1008EC003820DFF89C28127881F83920427A3AB106
:1008FC00012281F83A20DFF88C28127881F83B200D
:10090C00827A3AB1012281F83C20DFF87C281278F7
:10091C0081F83D20C27A3AB1012281F83E20DFF8FD
:10092C006C28127881F83F20027B3AB1012281F8C1
:10093C004020DFF85C28127881F84120427B3AB1E4
:10094C00012281F84220DFF84C28127881F84320EC
:10095C00827B3AB1012281F84420DFF83C281278DE
:10096C0081F84520C27B002A00F0C08601201122AC
:10097C00002681F846000BAD812000212B462EF07D
:10098C00FFFF9DF82C00A168002881F8470000F0BB
:10099C00908630F042F8A1680028886400F0A186A7
:1009AC009DF82C20691C2FF0F1F900F09EBE254615
:1009BC0055F8040F002800F02F8600216170017893
:1009CC0041B14078DFF89C270121107063202FF093
:1009DC0051FD2868017941B14079DFF88C2701215C
:1009EC0010706D202FF046FD28688179002900F0E9
:1009FC007C84C1794FF400500DF046F900F089BCAD
:100A0C006068002800F0088690F9005028462FF006
:100A1C0092F8A068002800F0FD85E9B2017000F0A2
:100A2C00F9BD6068002800F0F785002161702A216B
:100A3C002FF0CAFEDFF810576068DFF860670822F5
:100A4C00E98A0180A98C8181698BC182DFF85017FA
:100A5C000978817205F139010E30B04767682EF0C4
:100A6C0031FE0146B81C0822B047606805F11C0134
:100A7C0008221830B0476068297E012280F82310C4
:100A8C00DFF8201780F821208978CB0718BF80F871
:100A9C0024208A0744BF012280F825204A0744BF3E
:100AAC00012280F826200A0744BF012280F8272063
:100ABC00490644BF012180F8281000F0AFBD6068E2
:100ACC00002800F0A98500782FF0E0FC00F0A2BD12
:100ADC006068002800F0A0850088002110F02AFF33
:100AEC0000F09CBD6068002800F0968530462EF022
:100AFC008DFB0546002800F01485E888DFF8A81661
:100B0C0040F00C00E88002202EF054FEDFF89C161A
:100B1C0003202EF04FFE40F20110ADF8310060685A
:100B2C00016800790B918DF830000BA822F08CFF36
:100B3C0000F073BD6068002800F06E850BAD011DE0
:100B4C00082228462FF022F903202DF033FA606892
:100B5C00C07B2AF06FFCDFF84C0683786068418814
:100B6C0086890278807BCDE90060284616F040F932
:100B7C0000F053BD28000958010102066768002FD8
:100B8C0000F04A852FF027FD0546002800F0DA8496
:100B9C00387828B1E988787821F001010843E88099
:100BAC00B87830B1E988F87821F0020141EA4000C8
:100BBC00E880387930B1E988787921F0040141EA8C
:100BCC008000E880B87930B1E988F87921F0080123
:100BDC0041EAC000E880387A30B1E988787A21F0AF
:100BEC00100141EA0010E880B87A30B1E988F87A4F
:100BFC0021F0200141EA4010E880387B30B1E988CF
:100C0C00787B21F0400141EA8010E880B87B28B164
:100C1C00A968F87B21F001010843A860387C38B141
:100C2C00A968787C21F00201002818BF0231A96064
:100C3C00B87C38B1A968F87C21F00401002818BFF1
:100C4C000431A960B87D38B1A968F87D21F0100194
:100C5C00002818BF1031A960387E38B1A968787E99
:100C6C0021F02001002818BF2031A960B87E38B1CE
:100C7C00A968F87E21F04001002818BF4031A96016
:100C8C0097F8220048B1A96897F8230021F48061F5
:100C9C00002818BF01F58061A96097F8260048B1BB
:100CAC00A96897F8270021F40051002818BF01F516
:100CBC000051A96097F8280048B1A96897F8290055
:100CCC0021F48041002818BF01F58041A96097F8F4
:100CDC002A0048B1A96897F82B0021F4004100289C
:100CEC0018BF01F50041A96097F8340048B1A96814
:100CFC0097F8350021F48011002818BF01F58011F8
:100D0C00A96097F8380048B1A96897F8390021F420
:100D1C008001002818BF01F58001A96097F83C00FC
:100D2C0048B1A96897F83D0021F08071002818BFE0
:100D3C0001F18071A96097F83E0048B1A96897F855
:100D4C003F0021F00071002818BF01F10071A9606B
:100D5C0097F8400048B1A96897F8410021F000616C
:100D6C00002818BF01F10061A96097F84200002823
:100D7C0000F0548497F84310A86800290CBF20F0A9
:100D8C00805040F08050A86000F048BC606800289B
:100D9C0000F042848178002900F0E783C2780321B7
:100DAC00002A08BF0121E1E36168002900F03484C6
:100DBC0008888A7801211EF043FB00F02EBC02202B
:100DCC0060706068002800F029844188007827F062
:100DDC004FFA002840F01E8400F020BC6068002808
:100DEC0000F01A8400216170007828F021FE00F0D8
:100DFC0015BC6068002800F00F84A168002900F081
:100E0C000B840021617000782DF016FEA16808702B
:100E1C0040002FF002FE0146D4E901025160007837
:100E2C002CF01AFCFAE36068002800F0F583A06847
:100E3C00002800F0F1830026C0E900666068418854
:100E4C0000782BF077FF002800F0CF836670054602
:100E5C00A16800880880A8780028887000F0DE83DC
:100E6C002FF0DBFDA1680028486000F0D7838A785A
:100E7C00E91C2EF08BFFD1E36068002800F0CC83D6
:100E8C000021CDF83A10CDF83610CDF83210CDF84F
:100E9C002E1002794188ADF82C105AB1816849B1F5
:100EAC000F2A28BF0F228DF82E200BA803302EF00E
:100EBC006DFF606800780BA9012220F087FFACE37E
:100ECC002EF068F9A9E36568002D00F0A5832F7852
:100EDC0038462EF0A7F9002800F05183D0209CE36F
:100EEC006068002800F0988300782EF09BF90028A9
:100EFC0000F092830546007B29F028FC00286070E6
:100F0C0040F08C83DFF8E00A4168002900F086830A
:100F1C0000220C462346002C00F0CD83AB4200F09F
:100F2C00CA831C681A46F5E76668002E00F07483C5
:100F3C00357D28462EF076F9002800F06D83307F41
:100F4C00102141EA4007717F002908BF4700B07F9C
:100F5C00002818BF47F00807F07F002818BF47F09B
:100F6C00200796F82000002818BF47F0400796F895
:100F7C0021000028284618BF67F07F07D6F8188094
:100F8C002EF084FF002800F0478305466068827AC3
:100F9C0001788DF8352082898DF83410ADF8362023
:100FAC004A1E022A05D3032900F046840F2940F07B
:100FBC0048844188ADF82C1000F043BC61680220D5
:100FCC00002900F02A830A888DF834004988ADF88E
:100FDC002C200BA802221DE061680220002900F0E1
:100FEC001C838DF83400002308880A794988ADF8F1
:100FFC002C000BA82CF0E8FA0FE361680220002902
:10100C0000F00B838DF83400052208884988ADF870
:10101C002C000BA800232DF0BBFCFEE2656802201F
:10102C00002D00F0FA828DF834002E7B00272888E2
:10103C00AB79AA886988ADF82C00A8682D69CDE930
:10104C000006CDE902570BA818F060FAE5E26568D6
:10105C000220002D00F0E1828DF83400EE682F7C28
:10106C004FF0000C2888EB8869882A79ADF82C00A1
:10107C00287A6D698DE8C100CDE9035C0BA818F0E6
:10108C00EDF9CAE26168002900F0C68202208DF8F1
:10109C003400887B0D88421E8DF82400022AADF89E
:1010AC002C5005D3032800F0A2820F2840F0A48214
:1010BC00088AADF81C009FE26068002800F0AC8242
:1010CC0002218DF834100188ADF82C10817B4A1E5A
:1010DC008DF82410022A05D3032900F0B0820F29C1
:1010EC0040F0B382018AADF81C10AEE260680028B3
:1010FC0000F0928202214FF6FC728DF834100188B8
:10110C008A1A032A11D8022A0FD02FF069F8ADF8E9
:10111C002C0060680021837AC27A0091811C0BA894
:10112C0027F09EFD607060680188ADF82C10837A02
:10113C00C27A00210091811C0BA827F091FD6CE272
:10114C00462603004B820020A0720020741300205E
:10115C007213002070130020780E00201D15002043
:10116C007C130020591500207A8200205E15002087
:10117C006DFE010006150020021500200A15002046
:10118C004F1500204C150020411500204D15002056
:10119C0058150020421500205B15002099FD020017
:1011AC0024110020C88000208592020019FA020048
:1011BC0062680220002A00F030828DF8340000238F
:1011CC0010889178D278ADF82C000BA822F020FE74
:1011DC0023E26168002900F01F82CA7A887A0B7BAF
:1011EC004D7B002A18BF40F00200002B18BF40F0C6
:1011FC000400002D18BF40F008008A7B002A18BF9D
:10120C0040F040000023C2B20888023128F084FB71
:10121C0003E26068002800F0FF81A168002900F05B
:10122C00FB8100780BA92CF02CFC0020BDF82C20A5
:10123C006070D4E90101A1F8012000780870EDE19B
:10124C006068002800F0E881B0F80110ADF82C10AF
:10125C0000780BA92DF0C6FBDFE16068002800F0D8
:10126C00DB81017A427A002321F07CFAD5E16068B7
:10127C00002800F0D1818178C278008800232AF000
:10128C0051F9CAE1022506E002266670C6E12CF08F
:10129C00E7FBC3E100256570C0E128F059FB0BAA00
:1012AC00284611212FF0E6F8B7E100F10C010BA84C
:1012BC0010222EF06BFD6068D0E907120430CDE9E6
:1012CC000F1207A92CF092F90028607000F0FE8133
:1012DC006168488804310BAA24F0E8FB9DE10130D9
:1012EC002EF045F999E1012097E1017A89B1C168A5
:1012FC00008A420701D064290BD316F0A5FC00200C
:10130C0001210CF0C1FCDFF8E826352028212FF054
:10131C00B1F82868817C41B1808ADFF8D826022197
:10132C00108044202FF0A6F82868817D41B1008BF5
:10133C00DFF8C4260221108046202FF09BF8286885
:10134C00817E41B1808BDFF8B4260221108083208E
:10135C002FF090F82868817F41B1C07FDFF8A0267C
:10136C000121107029202FF085F8286890F82010A2
:10137C0049B190F82100DFF88C26012110702B2048
:10138C002FF078F8286890F8221049B190F82300D3
:10139C00DFF874260121107043202FF06BF82868B9
:1013AC0090F8241049B190F82500DFF8602601214F
:1013BC0010702E202FF05EF8286890F8261049B196
:1013CC0090F82700DFF84826012110702F202FF00D
:1013DC0051F8286890F8281049B190F82900DFF8E6
:1013EC0034260121107030202FF044F8286890F832
:1013FC002A1049B190F82B00DFF81C26012110703F
:10140C002C202FF037F8286890F82C1089B190F820
:10141C002D20102A28BF1022016B8DF82C200BAC2C
:10142C00601C2EF0B3FC8120112122462FF022F8F3
:10143C00286890F8341049B190F83510102928BF5D
:10144C001021826B62202FF015F8286890F83C1060
:10145C0041B1006CDFF8C4250421106084202FF00A
:10146C0009F8286890F8441049B190F84500DFF865
:10147C00B025012110704B202EF0FCFF286890F84D
:10148C00461069B1DFF89C4500F14701082220465F
:10149C002EF07CFC4720082122462EF0EBFF28681A
:1014AC0090F84F1031B100F15002012008212EF0BC
:1014BC00E1FF286890F8581041B190F859008DF868
:1014CC002C000BA9522027F025FC286890F85E1000
:1014DC0049B190F85F00DFF85025012110703320DE
:1014EC002EF0C8FF286890F85C1059B190F85D0098
:1014FC00DFF838250121107032202EF0BBFF24F0CC
:10150C0039FD286890F86010002900F0878090F869
:10151C006100DFF8D4144870DFF8C81481F8680053
:10152C007CE01C202FF079FA002877D01C2105468E
:10153C002FF04AF928462E7129F0D8F900287FF4AB
:10154C00DCAA91E01C202FF068FA002866D01C2140
:10155C0005462FF039F928462E7129F0C7F90028D5
:10156C0000F082806768FFF713BB00210379427992
:10157C00002B18BF403100880FF068FE4DE02DF0B5
:10158C005DFEDFF864140978884270D22FF023F8DE
:10159C0020B18146007B002800F08D811C202FF0AB
:1015AC003CFAD8B31C2181462FF00EF989F804605F
:1015BC004FF0010865682F787FE1013007A92CF006
:1015CC0015F8607050BB07980021182240880BABAF
:1015DC002EF0D6F9607008BBA068DDE90F12C0E9E7
:1015EC00071209300BA9FEF70BBEB12015E0103124
:1015FC0007A82FF05AF96168DFF8E803C08A854222
:10160C0010D1887A0A7E0C310123009107A90BF0C6
:10161C0091F808B1002000E002206070012028B091
:10162C00BDE8F08788890A7E8B7A07AE0025CDE964
:10163C000006CDE902258A1C0BA9212011E000F13E
:10164C00100107A82FF031F960688189027E837A36
:10165C0007AE0025CDE90225CDE90016821C0BA9A9
:10166C0022201EF033FED8E728462FF0D4F9D120E3
:10167C00D3E737463546012DD0DB60680822011DC3
:10168C0048462EF083FB60681422D0E90710CDE9A0
:10169C000B10B9B20BAB042008E00BAD142128469B
:1016AC002FF092F80420314614222B462AF0B6FE75
:1016BC00B3E78E6419E0AB42B0D1A94208BF021D5A
:1016CC00286810602846E2E0C820A6E70798182191
:1016DC0040880BAAE6E5A068DDE90B12C0E9071209
:1016EC009CE70020886481F847006068007C70B13A
:1016FC0010202FF092F90346A06803653BB101213D
:10170C00102280F84C10622000212EF039F960680C
:10171C00417C31B1A168012281F85420BF4A126882
:10172C008A65817C39B1A168012281F85C20BC4AB0
:10173C00127881F85D20C17C51B1A068012108228A
:10174C0080F85E10A7495F3039312EF01FFB6068BE
:10175C00017D59B1A568012085F867002DF0B2FF15
:10176C00014605F168002FF0A0F86068417D79B161
:10177C000BA952202DF028F9A068012180F87010D7
:10178C009DF82C10002918BF012180F87110606899
:10179C00817D19B1A1680122A1F87220C17D51B1DE
:1017AC00A168012281F87420A04A1278002A18BF7F
:1017BC00012281F87520017E39B1A168012281F8DE
:1017CC007620994A127881F87720417E51B1A16830
:1017DC00012281F87820844A5278002A18BF01220D
:1017EC0081F87920807E00283FF418AFA168012091
:1017FC0081F87A007B4991F82610082918BF042932
:10180C0016D0A1B921202EF0FFFF74280FD10BABFD
:10181C002120002174222EF0B3F89DF852100439C7
:10182C0001F0FB010843B0FA80F0400900E0002011
:10183C00A16881F87B00F1E6811C0BA82FF035F82C
:10184C006068817B31B348002FF0E7F888B361689A
:10185C0006460022887B904206D00B6933F8123082
:10186C0026F812300132F6E78B8CCA8AD1F828C0E0
:10187C0091F82210FFB2CDE90406CDE90271CDE951
:10188C0000C80BA8294625F044FD607030462FF0A7
:10189C00C2F8C3E6838CC28A816A90F82200FEB239
:1018AC00CDE90018CDE902600BA8294609F0CAF869
:1018BC00B3E61020B1E64FF000084E4606F80C7F58
:1018CC00287A30734948706014202FF0A6F800284D
:1018DC00B06045D014212EF077FF6268D9F814005F
:1018EC0052688179927901F0F00102F00F021144F3
:1018FC0081716168D9F8140049680A780270D1F8CE
:10190C000220C0F80220CA79C271097B0173500011
:10191C002FF083F8D9F81410886060B1CA790023CD
:10192C009A4208D065686D68AD6835F8135020F898
:10193C0013500133F4E7087B40002FF06EF8D9F810
:10194C001410086160B1097B0022914208D06368D1
:10195C005B681B6933F8123020F812300132F4E75F
:10196C0030462BF067FEB82802D00746022806D175
:10197C00307828F0EBFE30462BF05CFE074637B192
:10198C00B8F1000F0FD048462FF045F823E0B8F11E
:10199C00000F3FF443AE484628F0A8FF00287FF420
:1019AC003DAE484673E7D9F8140078B1816821B18F
:1019BC0008462FF030F8D9F81400016921B1084617
:1019CC002FF029F8D9F814002FF025F80020C6E9DB
:1019DC000000C6E90200B82F3FF480AA022F3FF4A2
:1019EC007DAA1BE6A0720020D8130020556B0020A6
:1019FC00B47C002006150020021500200A150020DA
:101A0C004F1500204C150020411500204D150020CD
:101A1C0058150020421500205B150020EC14002006
:101A2C003E150020101400204615002047150020FC
:101A3C002DE9F04F99B080466FF007000DF11C0BAB
:101A4C00063098F808105A46ADF85200D8F8040041
:101A5C0012F000FD002800F0B5809DF81E609DF886
:101A6C001F409DF82070BDF826502EF0B3FB844229
:101A7C0040F0A88025F003004FF6F87480B2A04225
:101A8C0000F0A080012F00F29D80022E80F09A8041
:101A9C00B8F82400ADF84800B8F82E00ADF82A00CC
:101AAC009DF82200D0B1D8F804109DF81D209DF8A7
:101ABC00383001202CF00AFF08B1CF2083E0DFF88A
:101ACC005807C078012809D1B8F824002EF038FE48
:101ADC0020B1417901F0E701083141719DF82100F5
:101AEC0068B1BDF82610FF202BF024F99DF82110C9
:101AFC00D8B141F001012C268DF8211016E09DF88B
:101B0C003900002864D09DF83D10FF2902D000292F
:101B1C0040F0ED80DFF80407BDF82620C18A8A4228
:101B2C0040F0EE800120222607E0082601F0030099
:101B3C00012808BF46F011060120B1073746DFF82F
:101B4C00DC9658BF67F07F07002808BF37469DF822
:101B5C00220030B999F80B0018B107F022002228A6
:101B6C0013D117F0400A58D0119899F80E2001782B
:101B7C00920718D40C291BD8012241F290438A40B9
:101B8C001A4245D1032940D012E0F8B200F04200CD
:101B9C0042287FF492AF1198007800F0FE000628DE
:101BAC007FF48BAFDDE7A1F10C0212F10C0F2AD8F8
:101BBC00B9F81600BDF82620824203D1BDF82800E2
:101BCC0029F0B8FAD3201DF006FF19B0BDE8F08F4C
:101BDC00BDF8260027F0C4FC0238DFF84016B0FA36
:101BEC0080F0CA8A4109BDF82600904208BF023134
:101BFC00002900F08C809DF81E20002A00F03A810C
:101C0C0001F1400738E1032902D140780D2804D0B6
:101C1C0007A826F0F9FE0128D7D0B9F82400B8F8A7
:101C2C00401081420AD198F84220B8F83E10B8F81A
:101C3C00240000230093002310F0A6FD9DF8220041
:101C4C00E0B1B8F83E10B8F8240029F003FEB8B3A0
:101C5C000646D8F804009DF81D10F2780844417B24
:101C6C008A421EBF00227260F170013004212AF0FA
:101C7C00DDFC71688842A8D30130706099F80E00C1
:101C8C008007A2D59DF84D0058B1BDF828002DF065
:101C9C0019F900286FD0D8F80400417801F0DF0161
:101CAC0041709DF82E00A0B3D8F804008179013959
:101CBC0081718DF82E1007F07F0009062CD12AE0D7
:101CCC009DF84D00002841D004202BF0C9FB0028C2
:101CDC003FF47BAF01464FF4B2700880B8F8240093
:101CEC004880DFF83C05007821F08AFF6DE7109AF8
:101CFC009DF83C0025F0A6FC30B1012000261CE725
:101D0C0090F826000428F8D10026002015E70027BB
:101D1C00B2E007F07F000746390702D44FF0000A03
:101D2C0049E0F9B24A0737D4C9069DF821103DD5D0
:101D3C00C1F3820212B1072A18BF013A002A08BF68
:101D4C00074601F0E30040EA82012DE099F86C00AF
:101D5C0001287FF493AF11980078062803D1BAF1CB
:101D6C00000F7FF48BAFE01DBDF82A1080B28142CA
:101D7C003FF42BAF44E1D3201DF02DFEDFF8A4047B
:101D8C000078002800F0AD80DFF89C1451F820009A
:101D9C00C0EB00108100A6E09DF8210000F0E001EE
:101DAC0000F0E30040EAD1018DF82110D8F80400CE
:101DBC004FF4805A017299F82600092801D00428A2
:101DCC0029D1B9F81610BDF8260088420AD027F0A0
:101DDC00C7FB022806D09DF8210000F00300012863
:101DEC007FF4F3AE9DF81E0000285BD011989DF88F
:101DFC0038100078042808BF02296DD0072808BFC6
:101E0C00042900F0838003287FF4DFAE07A80021AB
:101E1C0013F0AAFED9E6FEB217F0610F49D0F00715
:101E2C0008D0B8F8241007A818F016FC002871D0B8
:101E3C0007F09F070025FEB2B80605D52DF060FB14
:101E4C0007A815A906F096FB700640F13981B8F881
:101E5C00241007A80DF152022B4612F077FB002834
:101E6C0000F08180054611980078012808BF4AF0DF
:101E7C00100A25E101F1200727F072FB0138B0FAB6
:101E8C0080F0400947EA00069DF81E0000283FF448
:101E9C0053AE119800782DF05DF8012818BF07F0AB
:101EAC007E0649E62DF02CFB07A815A906F062FB6F
:101EBC008BE69DF81E00012864D111980078032848
:101ECC0053D005285ED1B8F8241007A80DF15202A2
:101EDC00002312F03BFB78E607A9002013F0CEF9A3
:101EEC0073E6D1480168D1480268BDF828009047D4
:101EFC0001287FF46AAECE480168BDF828008847F7
:101F0C00CC480168BDF8280088475EE607A81BF09E
:101F1C00FFF95AE62BF0AEFE9DF82E100546BDF8E3
:101F2C00280021B9B8F8241088423FF484AFB9F8DE
:101F3C001610814204D1B848807800283FF47BAF5A
:101F4C00B8F8241007A82A460BF0A0F8002800F0D7
:101F5C009E8030074AF0040ABDF8260048BFE01DF9
:101F6C00ADF8520067E70025AAE0BDF826002CF07A
:101F7C00A9FF38B1B8F8241007A80DF152020023BC
:101F8C0012F0E4FA9DF82E0088B328F04FFE0028DA
:101F9C007FF41BAE9DF83900B8B3109A9DF83C0045
:101FAC009DF83D1025F04EFB002873D09DF83D00A8
:101FBC00002878D010992EF036FB9DF82430ADF81F
:101FCC00520011209DF823209DF821104AF0400A60
:101FDC00002B08BF0920002A18BF0830002918BFA1
:101FEC000130D8F804100A5C013A0A5465E09DF8F7
:101FFC001E00012804D11198007803283FF4E5ADA8
:10200C0007A8414622F040F9DFE59DF82010BDF805
:10201C0026000029ADF8520000F0CF804020BDF81A
:10202C0026100BF11D0200EAC7099DF820004B4653
:10203C001CF0FEFA38B1D8F804004AF0200A0178F6
:10204C0001F03F0101709DF8390048B1BDF8261030
:10205C000BF1200026F0BAFC4AF0400AADF8520011
:10206C009DF81E00012806D0BDF82810BDF82600EA
:10207C00002217F005FDBDF82810BDF826004A46D1
:10208C0015F0F4F9002818BF4AF0200A15E007F003
:10209C00DF07CFE6BDF82610BDF828000B22002381
:1020AC001DF052FF91E5BDF82600ADF852002EF060
:1020BC0047FB002808BF4AF0400A2BF0DBFD054621
:1020CC00A01DBDF8521080B20E1A5B4818BF2E46E8
:1020DC000078012805D1E01DB8F82E1080B281429D
:1020EC002ED178B2B0F1FF3F3FF76FAD002E3FF429
:1020FC006CADB8F808002EF090FC00283FF465ADEC
:10210C00B8F80820D8F8041005462DF03FFE9DF8CD
:10211C001E10002098F80830B8F8242016908DF87E
:10212C005410BDF8521015ACCDE9006ACDE902048B
:10213C00284615F0AFFE68B328462EF06CFC44E53B
:10214C00B8F824108142CCD0601CBDF8262080B297
:10215C008242C6D2BDF828008142C2D02EF0F0FADD
:10216C000028BED0017901390129BAD84088012153
:10217C008DF85410ADF8600015AD284623F012F818
:10218C000028AED0281D21F083FB0028A9D02AF00E
:10219C0059FDA6E72048407800283FF416AD0020F2
:1021AC008DF81860ADF81900DDF826004FEA3040C4
:1021BC00059005A82DF0DAFB07E531073FF52EAFAA
:1021CC009DF81E1001293FF429AF00211CF0F0F9F5
:1021DC0020B1407901380228FFF420AFB8F8401044
:1021EC00BDF8520029F036FB30B180782CF072F833
:1021FC0001380728FFF412AFBDF828002CF062FE5E
:10220C0018B104208DF8200008E7BDF82610BDF8A1
:10221C002800022243E700BF4C130020A0720020CC
:10222C004B82002050150020301F0300441000206A
:10223C004C100020481000205C1500202DE9F04FB8
:10224C008FB00C46480718D4200471D4E00400F178
:10225C00CC81200600F1EA81A00700F10082200564
:10226C0000F13482600600F13482A00400F1668231
:10227C00600400F1A882002017E2DFF8D80501788D
:10228C00062900F21082DFE811F00700C0010E02EF
:10229C000E0208020E02C501DFF8BC6596F8371075
:1022AC004A0700F1C8818A0700F1ED81090740F166
:1022BC00FA810621017096F83A00002800F0C682D7
:1022CC0024F0EAFD002800F0C1820546F068406861
:1022DC004078800740F19582287804AB03210022D6
:1022EC0026F082FA002800F07A8206980188B42938
:1022FC0016D8B4214FF47A720180DFF860054FF4E0
:10230C00005100782EF0E0FADFF85805016839B179
:10231C00DFF854050078FF2814BF2878FF20884781
:10232C00F06840684078C00740F0628209205CE2A7
:10233C00DFF83C05DFF82475DFF818A5DFF8445505
:10234C0048F2040848F202094FF6FE7B008802901E
:10235C00387820F009FF002800F044810646007808
:10236C00D3280DD1F089404537D0484539D048F2B3
:10237C000101884240F01C81304619F0B5FF17E18D
:10238C009AF80010884219D1012856D0032840F041
:10239C000F81DFF8CC0400780138012800F20881A5
:1023AC00B078012877D0002840F00281707800289E
:1023BC0000F0BE80002023F05DF8F9E00A2840F020
:1023CC00F780DFF8941491F837003071096A00290E
:1023DC0000F0EE80B01C8847EAE030461EF01EF894
:1023EC00E6E0DFF894040078002800F0E1809AF829
:1023FC000000012840F0DC802DF020FC002840F08B
:10240C00D7807088002840F0D3800AAD122128466E
:10241C002EF0DAF92EF099F8304629461CF0F2FD30
:10242C00BDF83400B0F5285FC0F095800120022182
:10243C0023F042FFDFF84C54BAE0DFF824040078B4
:10244C000138012800F2B4807078DFF80C2460B1F8
:10245C0092F83C0092F83D10013082F83C00C0B27A
:10246C00884202D901200021A0E09AF8010003283B
:10247C0034D002284BD0012840F09A80DFF8F803C2
:10248C000078002800F08C802DF0D8FB002800F09C
:10249C009380012085E07078002851D02DF0A0FEAB
:1024AC005845DFF8D8B34FF6FE7103D1BBF81600D0
:1024BC00884207D0ABF81610ADF81010532004A9C1
:1024CC0026F028FC24F0E6F82BF0F4FB00208BF827
:1024DC00260022F07FFA4FF6FE7B69E0AB4604AD96
:1024EC00AB2000212A4621F0A7F904200A955D466D
:1024FC004FF6FE7B8DF82C000AA813F08DF82EF009
:10250C0024F838784FF4805141F2883220E00120D1
:10251C0050714FF48060ADF8100004A81DF021FA42
:10252C002EF013F8DFF84C034FF4805102680EE0E4
:10253C0014F0C6FCC848406AD0BB22F04BFA37E016
:10254C0002204FF4805140F6B8328AF802003878F5
:10255C002EF0BAF92CE0CA480DF10F01006804AA5C
:10256C001BF07EF901460298C64D814213D29DF8AC
:10257C00200010B1FD208DF820000420142204ABA3
:10258C008B4629F04BFF0BEB4B004FF6FE7B0121EA
:10259C0005EB80004172B048002180F83B1003E04D
:1025AC000020AD4981F83B000120012103F056F9D0
:1025BC0030462BF06DFFCBE6A74991F83E0020B1D9
:1025CC00886A0028F4D08047F2E70020002102221C
:1025DC000023ADF8100002208DF8180004A82CF090
:1025EC00D7F98CE784F400405FE09D48007801380F
:1025FC00012868D89748017803295CD0012962D159
:10260C004178002023F058FE5DE00120012123F0E9
:10261C0053FE48E00021322201708F4880F83610BA
:10262C008E48042100782EF04FF93CE016F0DEFACB
:10263C0084F0800039E00521017096F83810890784
:10264C0036D596F83A1099BB052101600120B0707F
:10265C00002023F0E5FD02202BF010F823E0804849
:10266C000078013801280BD80020CDE9040004A81B
:10267C0017F0B2FC20B17948022100781FF0E2FF7C
:10268C0084F0020011E00421017096F83810C9079B
:10269C0009D096F83A10002942D02BF044FF0420C0
:1026AC00012103F0DBF884F004000FB0BDE8F08FDB
:1026BC0005200021F5E78178022904D101218170E0
:1026CC00002024F0C5FB84F48050EEE784F4006015
:1026DC00EBE724F0E1FBD0B15F4F054638780138C9
:1026EC003870000616D05D4E4FF48041307826F0DD
:1026FC0021FA30B938692DF0E1FB10B9287821F0B6
:10270C000BFC3078402143F698222EF0DDF852482D
:10271C00007810B90B202DF0C9FB84F04000C4E701
:10272C004F49097801390129BDD8032101600120E5
:10273C00B070012023F074FD01208DE7464EDFF8C8
:10274C001C91DFF820A100250DF11008002006F1E6
:10275C00080702903F6857B3D7F804B09BF8000005
:10276C000028F7D0F028F5D803210022434626F0A4
:10277C003BF80028EED006980188A1B94FF44070C0
:10278C0086F836502DF02CFF99F800000AA92EF08F
:10279C000BF8DAF8001086F836500029DAD09BF8DE
:1027AC0000008847D6E7013901800120D1E7029962
:1027BC0099F80000C9070BD04FF400514FF47A720E
:1027CC002EF082F808E014F02FF884F480406CE7C7
:1027DC004FF4005121F084FF84F4005065E7F06859
:1027EC0040684078C0070CD10E202DF05FFB08E04C
:1027FC0040F209302DF0F4FE184800780AA92DF0AB
:10280C00D3FFF06840684078C1073FF44CAF1749DC
:10281C000968C1B1287821F07FFB10B10E202DF092
:10282C0045FB0E4D0C20402143F698223070287841
:10283C002EF04AF840F20A302DF0D2FE28780AA980
:10284C002DF0B2FF2FE780073FF52DAF0E202DF0B6
:10285C002DFB28E79C8100204C0E0020528200208A
:10286C007C130020D014002018150020C810002064
:10287C0046260300DC14002030150020A072002036
:10288C005C6C0020007D00202DE9F04F9DB00446CB
:10289C00DFF81C05406818B18047002800F047821B
:1028AC00DFF810A5DFF810B50E940DF13C099AF87D
:1028BC000000411E002C0C910BF1180418BF0121D3
:1028CC009BF80280002700258BF80F109BF8011055
:1028DC000D91C0B287421ED2B84517D0FEB200216E
:1028EC004A46042330462DF009FA0F9810F4403F65
:1028FC0040F00400C0B218BF01357C2806D1304628
:10290C000621F8222BF01EFFF82020709AF8000008
:10291C000C340137DDE7E9B201380022884204D1DA
:10292C009BF80500002800F03F82CDF82C80DDF8E4
:10293C003880DFF87C94B8F1000F404608BF1020B7
:10294C00069015AE00200290DDE90C7400253804C9
:10295C0000F0EF819BF80F0010B901208BF80F00ED
:10296C00E0B200210FAA04232DF0C8F90F98B8F19A
:10297C00000F19D010F4403F18D04FF400609AF8B3
:10298C0000100135013FABF810009BF80F00013827
:10299C008BF80F00012050FA84F0B0FBF1F202FB2F
:1029AC0011048BF80D40D2E7002501E0CDE90C7441
:1029BC00C0B2702804D00D987021C0B227F040FD31
:1029CC0005950B9D00210FAA0423ECB220462DF097
:1029DC0095F99DF83C00FE2803D02046FE2127F0F7
:1029EC002FFD20460621FE222BF0ACFE4FF400609A
:1029FC000D9F0BF116018BF80C50ABF8100000205A
:102A0C00ABF81400FF208BF80D708BF80E00F8B2A9
:102A1C00400050FA87F001EB8000B0F806A060008F
:102A2C0050FA85F001EB8005FE20ABF812A0294688
:102A3C0001F8020FE14804914FF400612DF0C4FE3F
:102A4C000020DC493B46099489F800009BF80F00F4
:102A5C00097850FA87F0013890FBF1F202FB110073
:102A6C00019035F8060F03955FFA83FB0A900D93DE
:102A7C00A34500F05681ABEB0400B0FA80F040099E
:102A8C000890002007900020C00740F097801FFAA4
:102A9C008AF4162C74D999F80000002840F047816C
:102AAC00AAF10707584610AAB9B21BF081FFBDF86E
:102ABC004E5005F11000A0423FD89DF84A009628D0
:102ACC003BD1A7EB05099DF8492029465B461FFA27
:102ADC0089F840461FF086FD78BB9DF84B00C10776
:102AEC0001D1800706D40020CA46DDF83880DFF813
:102AFC00C092C9E7E81D83B20A9813FA80F4B4F5C2
:102B0C00006F01D90120F0E7AC4980B2081A4146A8
:102B1C00C01A00F5006258462DF0F0F80798013005
:102B2C00B4F5006F079004D101204FF400610A91B5
:102B3C00DAE70020CA460A94D7E7AAF1010ADDF8C1
:102B4C003880DFF86C925446A0B216283BD9362850
:102B5C00A4F116055846324688BF2025641BABB23B
:102B6C00A1B22DF0CBF82804EED016FA85F010F8AF
:102B7C00010C962801D0013DF5E705EB040A82E72C
:102B8C00079810B18C492DF05EFA0198C0B28345BC
:102B9C0000F0CB800D99012050FA81F0854909781D
:102BAC00B0FBF1F202FB1103834903EB430001EB91
:102BBC008000B0F81CA0DDE9094055E7079810B17A
:102BCC007D492DF040FA002008900D980B9099F853
:102BDC000000002840F0AB800A9B7849C3F50060E8
:102BEC0011FA80F2A3F11000102183B2099826F09B
:102BFC000BFD99F80010084389F80000089890B173
:102C0C006C4800780BEB0001013991FBF0F202FBF0
:102C1C001011C8B20B91400050FA81F0664901EBDB
:102C2C008000B0F81CA0DFF890B10B980A99099CB1
:102C3C0001238BF80E000398ABF81010BBF912208F
:102C4C00ABF814A001809BF80D10204629F0E4F895
:102C5C00BBF914209BF80E102046022329F0DCF857
:102C6C00BBF81000B8F1000FC0F5006007D0069952
:102C7C00DFF840A18842A4BF0121029101E0DFF8F6
:102C8C0034A1069988424FF07C01B8BF7821099C89
:102C9C00204627F0D5FB10F0D1FB07469BF80F0020
:102CAC000621FC22C01B8BF80F0020462BF04AFD9E
:102CBC000499FC209BF80E30087005989BF80210C4
:102CCC000D9317FA80F001449AF80000B1FBF0F272
:102CDC0002FB10118BF802100B910131CAB2B2FB3E
:102CEC00F0F202FB10118BF8011003EB43010BEB1C
:102CFC008101898B102906D10D990131B1FBF0F2BC
:102D0C0002FB10100D900C98C01BB8F1000F0C902A
:102D1C003FF41AAE029880F00100C0077FF414AEA5
:102D2C0007E00120A346089051E701984EE70022E6
:102D3C003AE07C2027F09EFB0446FF281DD17E2024
:102D4C0027F098FB0446FF2817D19BF8014004EBB1
:102D5C0044000BEB8000807DFF280AD09AF800001D
:102D6C009BF802100144013991FBF0F202FB1014A4
:102D7C0003E020467E2127F063FBE0B2FE218BF8B6
:102D8C000340400050FA84F00BEB8000808BABF8D2
:102D9C0006009BF8020027F053FB00208BF805007F
:102DAC00BBF81000C0F5006210B21DB0BDE8F08F8A
:102DBC00001000204A8200200E77002020450020C1
:102DCC002DE9F04F95B0DFF8F0640546DFF8ECB470
:102DDC00307803288BF8000040F03C8100203070E4
:102DEC008BF800000CAC20462DF0C2FD20460021D3
:102DFC002BF010FFDFF8C8A4CBF808005221504686
:102E0C002DF0E2FC4FF0FF30AAF81400CAF81000C5
:102E1C00CAF80C0029F016F80020294623F08CFE85
:102E2C000BF11001CBF80C002DF02DFDDBE90502A8
:102E3C00DFF89054B0FBF2F1C9B2052928BF052187
:102E4C00B2F5006F8AF80010297040F00181B0EBE8
:102E5C00C12FC0F0FD80DBF80C00002800F0F880DA
:102E6C004FF40060DFF868644FF00009FF22AAF805
:102E7C000600FF208AF803208AF8059004900020B1
:102E8C00079000200A900020089000200690002057
:102E9C0005900020099000200B90FF200190FF204E
:102EAC000390FF200290CCB2A14580F0D6805FFA4F
:102EBC0089F700210DAA042338462CF01FFFDFF8F8
:102ECC000C443846002114AAA0473846012113AA05
:102EDC00A0473846022112AAA0470D996FF06F0047
:102EEC0050FA81F2C8B20E2A06D8012303FA02F274
:102EFC0045F201131A4203D1A0F1FE02022A04D2B8
:102F0C0042F28352B2EB914F1DD0384618F084FD3B
:102F1C0000288BF8000040F0DD80384600210DAA17
:102F2C0004232CF0EBFEDFF8A4433846002114AA4E
:102F3C00A0473846012113AAA0473846022112AAFD
:102F4C00A0470D99C8B209EB49020AEB8204C1F300
:102F5C000142090AE1759DF8521004F11608FD288A
:102F6C00627688F80000217601D910212FE0BDF897
:102F7C0050104FF6FF72914229D13846002132464B
:102F8C004FF40063DA464FF4006B2CF0B7FE6FF091
:102F9C00030313FA8BFB1FFA8BF031584A1C01D137
:102FAC000328F6D801220123D7B2042F06D8CFB2BA
:102FBC00FF2F18BF13460132090AF5E731505BFAAF
:102FCC0083F0D346DFF8F8A281B298F80000A18311
:102FDC009DF84E107028A176BDF84C10E1839DF839
:102FEC004A10E176BDF8481021840FD0782811D012
:102FFC007C2813D07E2817D0FE281CD0FF2820D187
:10300C000798CDF80890013007901DE00998013021
:10301C00099019E005980130059015E00698CDF857
:10302C000C90013006900FE00898013008901FFAC0
:10303C0089F0019008E00A98CDF8109001300A90C0
:10304C0002E00B9801300B90297809F101092AE76D
:10305C000120307015B0BDE8F08F0B9800060BD135
:10306C000A98C0B2012807D80998C0B2012803D821
:10307C000898C0B2012811D9934804220024027088
:10308C00CAB2E0B2904210D218F0C6FC9BF8001005
:10309C000134084329788BF80000F1E7079BD8B27C
:1030AC00A0421AD188480022027000208AF803003E
:1030BC008AF80100481E7E218AF80200BAF81C002A
:1030CC00AAF80600002027F0BBF99AF80200FE21AE
:1030DC0027F0B6F99BF80000BCE70998000625D04C
:1030EC000A98049A000603D1029A180600F084800C
:1030FC00754802210126D5B28AF80220017016FA11
:10310C0082F0B0FBF4F101FB14008AF801002846B0
:10311C0018F082FC8BF800002846FE2127F090F96D
:10312C008AF805600020FFF7AFFBD3E70A98049AF2
:10313C00000621D0644801218AF80220017011FA9E
:10314C0082F0039AB0FBF4F101FB140091B2FF2959
:10315C008AF801001FD10199FF2919BF8AF80310C1
:10316C0001EB41008AF8030000EB40000AEB800001
:10317C00808BAAF80600ADE7DDE9052010430006B8
:10318C003FF47AAF28F032FEA04280F084804E48A3
:10319C00032101703DE048008AF8032010FA82F008
:1031AC000AEB8000818B1829AAF8061092D30739F4
:1031BC00D0B20DAA89B21BF0FBFB9DF83F00400773
:1031CC00B0D53F49BDF84220002300930323C878B3
:1031DC00C988891A0DAA073989B209F049F800285B
:1031EC007FF478AFBDF8401000293FF473AF9DF821
:1031FC00440022F0B5FD6DE728F0F8FD0621A04251
:10320C00314838BF03210329017002D0062952D05E
:10321C0060E728F0EBFD04468AF80C0000EB400058
:10322C000AEB8000408BAAF80D0010F007F9297802
:10323C002044B0FBF1F202FB11008AF802000130CD
:10324C00C2B2B2FBF1F202FB11008AF801007C2041
:10325C0027F010F9FF2812D17E2027F00BF9FF2858
:10326C000DD1FF2027F006F9FF2808D1782027F090
:10327C0001F901469AF80100FF2918BF0846C1B2AE
:10328C008AF80300490051FA80F00AEB8000808B29
:10329C00AAF8060019E70798000609D0DFF820A065
:1032AC00FE219AF8020027F0CBF82C78029A41E71D
:1032BC00054806210170FEE71315002000100020C0
:1032CC000E7700204A82002059820020E3FF020082
:1032DC00204500202DE9F04F87B026F069FDDFF87E
:1032EC009C148122DFF8A074DFF8A054DFF8A464EA
:1032FC000A70DFF88C140860DFF88804FF21017075
:10330C000020DFF8981438802870DFF88404C9890D
:10331C0000783070DFF88004006890F808804FF671
:10332C00FE70404480B2884200F24A81DFF870B4EB
:10333C0006F110000422DBF8001008312CF026FDF9
:10334C00F07CDFF86094DFF86034B47C717C89F831
:10335C00000038881B7841EA0422C4F3011AB280B9
:10336C00043038801BB9BAF1020F00F02981BAF190
:10337C00030F00F0258101F0070413B1002C00F0BD
:10338C001F81DFF828E4042C9EF8001008BF0029E8
:10339C0000F016813BB1DFF818341B78862B02D174
:1033AC00022C40F00D81930410D402F00702022A83
:1033BC0008BF00291BD0DFF8F8030078862805D158
:1033CC000020744626F02CFD2178A6463078002883
:1033DC004CD000294AD1012800F0F28003283FD0BC
:1033EC00022843D1B088400740F0EA803EE0DFF885
:1033FC00D01391F88310022900F08180DBF80010C3
:10340C00012211FA80F000F1080102A82CF0BEFC98
:10341C003888013038802CF0C5FE0446DFF8900364
:10342C000078862868D1DFF8A453286808B92DF0F5
:10343C006CFA9DF90800002100272DF033FB296858
:10344C0048779DF808008F77C87720462DF009FA49
:10345C00B18899F8000001F0100121F035FC4EE024
:10346C00B08800F00700032840F0AA80B08801075C
:10347C0000F1A680810402D4810500F1A180B27C08
:10348C00C2F38104012C00F09B809309012B00F006
:10349C009780BAF1010F0FD840F0020101F007013B
:1034AC00032909D114B93F2A40F28A8024B9C149B1
:1034BC000978002900F084804FF6FB71BAF1020FF5
:1034CC00019308EB010C1DD1DFF8F082019B18F879
:1034DC00041018F8033003EB010A0023402AB4FA55
:1034EC0084F238BF012352091A4043061AD4002A29
:1034FC0008BF0AF1020A19E020462DF0B2F92BF0B0
:10350C006DFB5FE0DFF8B082019B402A18F80410D5
:10351C0018F8033003EB010A08D3420648BFAAF19E
:10352C00020A03E0002A18BF4FF0020AC0F3002081
:10353C005FFA8AF11FFA8CF30A1A70709A423FDC18
:10354C006044F0460091401AF080703080B22BF04D
:10355C00B9FAF060A0B370212DF036F90020B070EC
:10356C0098F8000018B9307900F0200028707078B5
:10357C0029784FF00008254691B300284FF0000041
:10358C002FD1B08800F00701032906D000200129B3
:10359C0027D18B4991F8821019B38A48007818B159
:1035AC002CF086F8FE2807D026F0CAFB20B92AF0AA
:1035BC0031FE002800F0E0800120B070254610E0BC
:1035CC002CF0E8F92CF0EEFD754900240A6813681C
:1035DC001C7112680A602DF044F907B0BDE8F08F39
:1035EC000020F16801F1700281F836504A604A659A
:1035FC007278B488F388002A8C81019C0B8181F845
:10360C002C4099F8004008BFA046A1F85830737CB4
:10361C00FF2581F84580B47C8D7303F0780360F34B
:10362C008203C4F30110184408743888801A5FEAC6
:10363C000A61388000F09880009ADBF8001011FACB
:10364C0080F0328102AD00F1080128462CF09EFB7F
:10365C00308939880844F1683880B07C0A7CC0F322
:10366C008104C0F3011902F0400894B3B9F1020FC0
:10367C0006D1B8F1000F03D0B1F8402002AD05E03F
:10368C00BDF808200235A1F84020CA874E4FFB89AF
:10369C009A4203D04FF6FF739A4268D1032C0ED195
:1036AC0001F12E0029462DF057F9F068F91C2E3047
:1036BC002AF01AFA00285AD0B07C083509E035F8FF
:1036CC00022BCA85B9898A4203D04FF6FF718A4210
:1036DC004DD1402819D3B9F1020F04D154EA080195
:1036EC0008D1F16803E0F1680A7C520602D42A88FA
:1036FC000235CA87C02805D3F068294624302DF03E
:10370C002BF902E02888F16888842A49B088097866
:10371C0000F0070089B1B9F1010F0ED8012802D1D0
:10372C002CB101200BE0032808BF002C05D1264941
:10373C00F268C989D28F8A4219D1032805D0012891
:10374C0012D11F4890F8820070B1F06821F00AFF86
:10375C0050B90020F17CB070B07CC1F3011100F0C5
:10376C0078000844F168087407F086F82AE725F019
:10377C0016FE1EF0F3FB25E7B0781FE763820020EE
:10378C00E4810020688200203A82002066820020BA
:10379C0065820020DC11002018820020EC12002031
:1037AC0070810020758200203C0B00207482002068
:1037BC006B82002060820020CC250300C82503000A
:1037CC00247000202715002098800020B0140020C1
:1037DC002DE9F84305460C46480413D4A00024D424
:1037EC00A0075CD460057ED4200500F1048120077D
:1037FC0000F13781600040F1F4801EF0BBF924F039
:10380C008044EEE02CF0CEFCDFF810140F6D3FB1CD
:10381C00D7E90A1202F0E04201F00A01891849D0F6
:10382C002DF01FF824F48044DBE0B948DFF8F07386
:10383C00016841F080010160B878012804D10420AE
:10384C0026F080FE0020B8702CF0ACFC064604205C
:10385C002DF0E5F8DFF8CC130A68904219D12A7ED6
:10386C00BAB1FA68AAB1DFF8B403806C002800F092
:10387C009580C16840F603020988914206D0C06861
:10388C0040F604010088884240F0888005F114005D
:10389C0086E040F6C4120860C5E9042282E00BF011
:1038AC0085FDDFF87803006C002840F09B8024F045
:1038BC00020496E0D7E90A65D7E90A12AA43B14394
:1038CC00C7E90A122CF0CDFFB8680028AAD056EA36
:1038DC000500A7D0D7F808C03869B7F930103246C0
:1038EC002B46E0479EE72CF05DFC054629F000FED8
:1038FC00002800F0B380C948876B002F00F0AE8021
:10390C00DFF81C830420C849002288F81800C3483B
:10391C002BF0D5FD2CF0D2FFC4482CF096FF2BF0E9
:10392C00E5FEC8F810000125042088F8025027F0A5
:10393C00D9FC386990F82810C8F80400490703D559
:10394C00436A042100229847012020F085F9D8F819
:10395C000400457616F02EFED8F8040081680B465C
:10396C001A465B684BB11E88A6F60306072EF7D8DD
:10397C0005FA06F616F0830FF2D0537B03F0F00332
:10398C00013353730023FD6853602D88A5F603059E
:10399C00012D00F28880C8F810309DE005F1100070
:1039AC0025F0E6F830462CF05CFF27F0B3FC78B13C
:1039BC002E6A28466FF4807100224FF00073B047D6
:1039CC009648806B10B11EF0D5F801E044F002046B
:1039DC00EE692846002100224FF08063B04724F0A6
:1039EC00005434B1944821462830BDE8F8432DF0FA
:1039FC0030B8BDE8F8838A4EB078012804D1042091
:103A0C0026F0A0FD0020B07027F084FC38B170685F
:103A1C006FF4807100224FF00073056AA84730697B
:103A2C0040B12BF063FE32697168801A000BC860DC
:103A3C0000203061794D7F49002228462BF03FFD54
:103A4C0002203076286C20B17B48022128302DF0E2
:103A5C0000F81EF08FF824F40064C2E72CF02EFF5F
:103A6C0041E02CF09FFB054629F042FDA0B1DFF8A8
:103A7C00B08198F8000000070ED498F900000028D7
:103A8C000AD4684617F076F808B1009820B1DFF830
:103A9C00AC9199F8610048B32CF010FF1EF06AF855
:103AAC0024F008049DE7034633F8385FA5B190F87D
:103ABC00445090F8456005F0F00580F8445006F04D
:103ACC00F005013580F8455000255360C5634587E6
:103ADC00507B00F0F000507355480022C261016029
:103AEC0001202AF017FA24F480647AE700260127D3
:103AFC00602E0FD009EB0600817A31B18772407AC3
:103B0C0007FA00F0C0B226F037FD2036F0E700BF10
:103B1C00CC210840032088F8180044482CF095FE6E
:103B2C002CF0CCFE424F3D4D00227869002078618C
:103B3C00F968F860284642492BF0C1FC2BF0D6FD01
:103B4C00D8F80C10D8F82020411A02EB1130B0EB49
:103B5C00113F38BF4FF0FF3098F82410C8F8200000
:103B6C0021B1D8F80810B0EBC12F20D92AF0E2F916
:103B7C00B8B140F60900414621F83C0F00204880BE
:103B8C004A7B02F0F00201324A730A7B02F0F00227
:103B9C000A734860F8613960B8F83E0010F4406F61
:103BAC00FAD00020C8F82000012088F8240022F068
:103BBC009FFF244800210160022000212AF0AAF96D
:103BCC00022026F0BFFC102014F084FA98F80100B3
:103BDC0020B9D8F8040050302CF037FF1A48807800
:103BEC0010B90D2014F076FA98F8250028B10020B1
:103BFC0088F82500052026F0A5FC002088F8180080
:103C0C001248C8F81C000220B5F85610B5F854201C
:103C1C00914208BF07201DF085F83FE7A00D00205A
:103C2C00A80B002028140020D9D40200987800207A
:103C3C00001004406D410100E00C002018730020BE
:103C4C00E51B020000000460F0240300713C01003D
:103C5C002DE9F04FAFB004460020ADF8280094F8E1
:103C6C002400012809D1DFF8300494F8281080785A
:103C7C0031B1002800F0FA8102E0DFF81C048078F2
:103C8C0048B9207D00F0FE00022804D12FB0BDE819
:103C9C00F04F1DF055B9DFF800743878012806D1C3
:103CAC00DFF8F8033979007E814240F0CE80DFF8EE
:103CBC00F8534FF4FA60E06028682CF0F5F918B16D
:103CCC00E1680844E06007E0E16828682CF078FDC2
:103CDC00DFF8D8032CF0C9FE94F825008DF86C00A1
:103CEC0048B1022809D11BA804F11801082204309C
:103CFC002CF04CF901E0E06A1C900DF12B051BA88F
:103D0C000AAA29461BF014FC0646D0B99DF83810B7
:103D1C0094F8260001F0030181420DD105F10E004B
:103D2C0004F1340104222CF031F9BDF828100220E2
:103D3C0041222B4621F018F99DF86A0008B1DC49A4
:103D4C000870B878B8B3012840F0908194F8380026
:103D5C00E3280DD1B86818B18047002800F086819F
:103D6C00F86818B18047002800F0808194F838007A
:103D7C00E22804D194F82800002840F07781002034
:103D8C00002E18BF05460021282295F80D801EAE86
:103D9C0030462BF018FF01A8002103222BF013FF53
:103DAC0094F83800E32840F0C0809DF8041041F0EE
:103DBC000802E320E9E0207D042800F2578101216C
:103DCC0001FA00F010F0130F00F0508101A800214F
:103DDC0024224FF000082BF0F6FE1EAF04F1180B56
:103DEC0004F12C090026BD1C07F1060AB8F1040FDA
:103DFC0045D85FFA88F0394627F001F806460D28B9
:103E0C0020D00A2E00F08C8094F825009DF87810B4
:103E1C004140490701D0022614E048B948465146B2
:103E2C0004222AF091FF002840F02F8194F82500FD
:103E3C00022807D15846294608222AF085FF002877
:103E4C0040F0178108F10108D0E794F83800E32816
:103E5C0040F00C8192482CF006FE00283FF427AF6E
:103E6C008F4C20462CF003FE8E48C82100682CF0A5
:103E7C00A7FC20462FB0BDE8F04F2CF0F6BD002E6D
:103E8C004ED10020616B9DF885509DF878209DF8EF
:103E9C007930069194F83810C5F382068DF81C1011
:103EAC0094F82910002918BF083606F1500118267D
:103EBC0006EAD202104403F0010240EA4210BDF8B7
:103ECC00042040EA8510C0B2104340EA0120ADF84E
:103EDC00040094F8400058B18DF81D002CF000FE41
:103EEC00089028B194F8402004F141012CF04EF8D0
:103EFC006A48C08AADF8240094F9150010F16D0FD2
:103F0C000146D8BF6FF06C012CF096F8C8BF3B216E
:103F1C00A07D002818BF012041EAC0108DF82600B2
:103F2C00E17D01A802F0E8F8A0E094F8251011F06A
:103F3C00070119D0022920D106F1080004F118015B
:103F4C0008222CF023F894F8301094F83800022250
:103F5C008DF888109DF80410E32862F302018DF8A7
:103F6C0004103FF424AF0AE0E16A1F919DF804109D
:103F7C0021F007018DF8041001E09DF8041094F86D
:103F8C00292021F0080141EAC2029DF80510022304
:103F9C0002F00F0263F3051194F82630022B16D3AE
:103FAC0094F82760012E17D0D6B94FEA980606F080
:103FBC000706042E6DD8012707FA06F616F0160F21
:103FCC0067D0C8F3820621F01701314408E0002BBA
:103FDC0008BF21F0170103E041F0040121F01301A7
:103FEC0063F30512237D032B03D1E36B41F008012E
:103FFC0027938DF89000606B239001F00700C9B2F5
:10400C0042EA8010C1F3C00240EA4220C1F3001220
:10401C00C1F3401140EA822040EAC120ADF878009B
:10402C0094F8400020B18DF8910004F141002590E6
:10403C001A482B46C08AADF8980094F9150010F177
:10404C006D0F0146D8BF6FF06C012BF0F5FFC8BFA8
:10405C003B21A07D002818BF012041EAC010E17D62
:10406C008DF89A001EA81BAA0AF058FC2FB0BDE8C8
:10407C00F08F01A85946082208302BF087FF94F8DE
:10408C0030008DF814000220FCE6D9F800000290F4
:10409C00F7E601F0E801A3E7B4110020A0720020BC
:1040AC00A8790020CC810020C881002064790020F0
:1040BC00651300202DE9FE4F8846080426D45FEADC
:1040CC00C87004BF0020BDE8FE8FE54805682CF0E1
:1040DC0070FC04462CF06BFC60434FF47A714FF685
:1040EC00FF72B0FBF1F14FF6FF70002D00F01A815A
:1040FC002B886C88CB1A9BB29C4240F21C81E31A31
:10410C0094B2A342B8BF1A46ED68EEE7DFF840A3BD
:10411C00CDF804809AF800001FF026F8002800F073
:10412C00FC8006460078012840F0EC80DAF8041098
:10413C0096F83390D6F814B096F8138021B148460F
:10414C008847002840F0DE80718896F83100022202
:10415C0028F010FC0546002842D0287A297CA0F1D2
:10416C000108FF2900F0BB80707F4F46C00718BFC5
:10417C000027E97C287D0144B94204D8E974FF2169
:10418C0001FA00F06874A969A87C96F83020896A55
:10419C0010FB0710F16A2BF0F9FD287D697CB7FB49
:1041AC00F0F202FB107001228240D2B20A436A7410
:1041BC00C8457CD196F83010AB7C13FB0713A9696A
:1041CC008B844FF4FF7303FA00F0C0B21043FF2846
:1041DC0068746CD1287C1FF013FDFF2028747FE0DD
:1041EC00707FC00700F08E80B07F2BF04FFE002850
:1041FC0000F0888004461C202CF00FFC002800F0F6
:10420C0081801C2105462CF0DFFAB07F02A929F031
:10421C0038FC9DF8090002212875284629F0CAFCB3
:10422C00708896F8312096F8301096F83330A880C4
:10423C00287DEA71FF2202FA00F068746068007849
:10424C00A9742874302013FB010080B229F008F9FE
:10425C000028A8615DD004461A20B11C2060708C27
:10426C00A080A01D2AF0CCFBF27F04F13000B17FBE
:10427C0096F82830C4F81CB084F81980A062307C01
:10428C00E273744A217563750121A075928C2282A8
:10429C00F28EA285F28C6282B6F81100A4F8170097
:1042AC009AF8000085F808901EF0CCF955E72CF030
:1042BC0080FB04462CF07BFB60434FF47A71B0FB1F
:1042CC00F1F06549288063480978007948436421F6
:1042DC0048436249097800FB0100688000E04F46C2
:1042EC00E87C297D6A7C01440139B94218BFFF2A58
:1042FC000CD186F83300708806F11C0186F8342046
:10430C001BF0B9FA30462AF0C3F803E7C845F9D1D7
:10431C00EFE7284629F05EFCF4E7019880F40040B2
:10432C00BDE8FE8F92B282424BD049480121007801
:10433C002CF0CAFA45E0A879022806D1287CFF287F
:10434C0037D0A8692AF0A4F833E02CF032FB0446ED
:10435C002CF02DFB60434FF47A71B0FBF1F03F4928
:10436C00288095F83800097888421BD295F83620B9
:10437C00FF2A06D195F83720013085F8380085F8EA
:10438C00362095F8351095F8394082F0FF0300205F
:10439C000126C7B2A7421DD206FA07F71F4214D155
:1043AC000130F6E7EA8BA87E95F82A10E92324F071
:1043BC00EDFC284629F00EFC2548012100781EF062
:1043CC0041F988F00100BDE8FE8FFBB201441A43AD
:1043DC0085F83620AB8F95F83440C8B204FB103307
:1043EC009EB2A64203D2FF2285F8362002E0FF2AB5
:1043FC0008D12346184A174E127836797243642630
:10440C00724302E095F83A2023466A802A8D0E0604
:10441C0006D022F0200244432A852A6C224404E070
:10442C0042F020012A6C2985297A85F82E10E97929
:10443C006A6285F82D10D9B269840549496811B1B1
:10444C0088470028B8D105F1100005F05FFFB3E7ED
:10445C0098130020A07200203B150020411500206D
:10446C00746200202DE9F04FC3B00DF1450B884666
:10447C000146914658462CF069FA08F008050026CA
:10448C000DF1040A042E39D8F4B25146204626F018
:10449C00B6FC0D2803D007460A2801D17DE17DBB6F
:1044AC00204659461EF018FF01360028EAD0002D90
:1044BC0051D10BF137010DF1860002222BF066FD74
:1044CC00BDF886009DF83A10ADF8C800C80700F09A
:1044DC0083800AF1370732A9022238462AF034FCCD
:1044EC009DF83A10012877D101F0FE00FF2104223B
:1044FC008DF83A0038462BF066FB6FE001274CE153
:10450C000220214641225B4620F02EFD0746B4488E
:10451C000BF10B012BF0B2FE68B90BF13701204601
:10452C002CF0B7F938B90BF13B0120462CF0B1F95E
:10453C00002800F032810C202CF0D2FA002800F078
:10454C0019812CF057F8B9F1000F18BF4FF0010981
:10455C0084F80A9005E19DF84500400661D49DF869
:10456C004600C00700F0A48032AF0DF1450138467B
:10457C002CF0ECF90DF1860901A948462CF0E6F96E
:10458C009DF8BC00810700F1288110F001054FF067
:10459C003B0007F1370108BF3720042248442BF0B9
:1045AC00F5FC0220002D08BF01209DF8BC1008432B
:1045BC0049468DF8BC0001A82CF0C8F908F0600041
:1045CC009DF805104038B0FA80F001F0FE0140096A
:1045DC0008448DF805006BE0880733D44FF0FF30AA
:1045EC000BF122062BF0CAFB384631462AF0ACFB05
:1045FC000AF12C05E0B3384629460A222BF0C6FCFA
:10460C0032AE28460A2231462BF0C0FC30463946E1
:10461C002CF04EF9002800F0B98001A82BF09DFA7F
:10462C00B4E04FF0FF302BF0A9FB32A839462AF04A
:10463C008BFB0BF1220930B3384649460A222BF08A
:10464C00A5FC27E00AF13B0632A9022230462AF0EB
:10465C007BFB9DF83A10012840F08E8001F0FD00A4
:10466C00FF2104228DF83A0030462BF0ACFA8DE095
:10467C00284631462CF01CF9002800F0928032A913
:10468C0028460A2280E0384649462CF011F90028C9
:10469C0000F0958008F060019DF804006039B1FAD3
:1046AC0081F100F0BF00490940EA81108DF8040047
:1046BC009DF84600810608D50AF10B000BF10B01A1
:1046CC0002222BF063FC9DF84600400613D59DF8A2
:1046DC0005000BF10D01012240F040008DF80500A2
:1046EC000AF10D002BF052FC0AF112000BF1120131
:1046FC0010222BF04BFC9DF84500800605D59DF84B
:10470C00040040F020008DF804000AF10E000BF1BB
:10471C000E0104222BF03AFCBDF884002146412204
:10472C005346ADF84300022020F01EFC07462C48EF
:10473C000AF10B012BF0A2FD58B90AF13701204602
:10474C002CF0A7F828B90AF13B0120462CF0A1F86F
:10475C0018B30C202CF0C4F960B12BF04BFF0120E6
:10476C00A0722048214600782BF0B7FF20462CF091
:10477C0053F812E0102710E041F0010031460422FA
:10478C008DF83A000AF137002BF000FC01AB022047
:10479C002146412220F0E8FB0746384643B0BDE8ED
:1047AC00F08F32A839462CF083F80128EED132A8CC
:1047BC0029462CF07DF801283FF42FAFE6E70AF1EB
:1047CC002C0732A80A2239462AF0BEFA00287FF4B8
:1047DC0033AF384649462CF06BF80C27DDE700BFA9
:1047EC00A07200205A8200202DE9F04F8FB00C46A9
:1047FC00080430D4A00448D4A00652D4E00600F13A
:10480C000D81600600F11C81200600F11E81E0057F
:10481C0000F12081200500F12281E00400F13581B6
:10482C00600400F13C81A00700F15081A00500F16B
:10483C005E81200700F16881600500F16B81E00367
:10484C004FF0000540F1F88020F0D4FCBA48C57058
:10485C0084F48035F0E0B64800781EF085FC88B111
:10486C000178B44A05460020582808D0135C08305B
:10487C008B42F9D1104450F8041C2846884728462E
:10488C0029F006FE84F40045D6E022F0B9FB28B1ED
:10489C000546FDF7CDF8284629F0FAFD84F40055BD
:1048AC00CAE0A34F2021387824F044F9DFF888823D
:1048BC004FF00109D8F80810084317D02CF079F8FC
:1048CC0005462CF074F868434FF47A71B0FBF1F0A4
:1048DC00D8F80810401A4FEA500938BF6FF0004959
:1048EC000025002964D0B9F1000F61D0002004210B
:1048FC00002228F0E7FA06464FF0060A4FF0FF0BAD
:10490C004FF6FF7802AD002E4ED030460421002227
:10491C00374628F0D7FA06463889B0EB090038BF7D
:10492C00002038810004EED1B87BD0B301280AD125
:10493C007889400707D4386887F80DA0B721407BE9
:10494C0022F016FBDFE739682A468DF806B0ADF881
:10495C000480086AC97F0FF07DFD01281BD1B87B4C
:10496C00B97A8DF838000907788A40F08002ADF8E2
:10497C00362006D540F4C070ADF83600387B8DF883
:10498C003A00786910B1007BADF81800284601A9EF
:10499C00002203F0EFFD387B87F80DA019F0C8FE5C
:1049AC00B1E701207873AEE7DFF88C81604F4D469C
:1049BC0028F0FDFB00200121002228F083FA18B119
:1049CC00387820211DF03EFE002004210022002614
:1049DC0028F078FA60B306890421002228F072FAD4
:1049EC0028B1B1B20689B14238BF0E46F4E7A8B27D
:1049FC00B1B2814217D9D6FA55F0202180B24200CB
:104A0C0038782BF061FF2BF0D4FF05462BF0CFFF4D
:104A1C0068434FF47A71B0FBF1F609E00AF02AF81A
:104A2C0084F0100508E0387820211DF00BFE0026DC
:104A3C00C8F8086084F0200528460FB0BDE8F08F58
:104A4C000EF080FD84F04005F6E72AF08FFA84F032
:104A5C008005F1E728F02EF884F48075ECE71FF060
:104A6C0093FE3748007801280CD13448007848B1BF
:104A7C004FF47A7100FB01F22D484FF4006100787D
:104A8C002BF01FFF84F40065D6E72B48017819B191
:104A9C00002101701FF078FE84F48055CCE72A4881
:104AAC00006880B12749097801290CD18047274833
:104ABC00006800B180471E484FF480414FF47A7271
:104ACC0000782BF0FEFE84F48045B5E72048007892
:104ADC0090B102AD28462BF03FFE2BF06FFB1D4929
:104AEC000B781D490A7829461EF0DAFF09E019F007
:104AFC0095FA84F400759FE71848418B01202BF040
:104B0C0080FF84F0020597E70B48012184F008052B
:104B1C00817091E712480078022808BF1DF011FC43
:104B2C000E480121808C2BF05EFF84F4806583E7B6
:104B3C004B820020401D03004C1300204615002022
:104B4C00471500204515002034100020401000208F
:104B5C001F1500204A1500204B150020A0720020C4
:104B6C007C13002070B586B00C46080403D4600496
:104B7C0033D400203EE0C64800781EF0F5FAB8B3F6
:104B8C0005460078A0F1D00106292BD9A0F13101FE
:104B9C000629C0F08A801A2844D0FD2857D0FE2858
:104BAC006FD1162028F05CFC002800F07E800646B1
:104BBC00023014212BF008FE932030802A7968787B
:104BCC00A978EB88012A33813071317418BF022225
:104BDC00B271E978A87831754DE025F065FC84F464
:104BEC00804007E00120884010F0750F04D05CE095
:104BFC0084F4004006B070BD01294BD1A54E6878F5
:104C0C00B178814251D006F8020FA34B4FF00070DF
:104C1C000021324626F07EFE16F8010C9F4981F8E1
:104C2C00680042E0302028F01BFC00283DD03021E9
:104C3C0006462BF0C9FD9220A91D3070A87B0328D5
:104C4C00307169D1B01D08222BF0A0F866E00A2063
:104C5C0028F006FC48B306460020C6F80600C6F845
:104C6C00020091203080A8786978EA7870713171EF
:104C7C00B271A98831812AF0D5FA002840F08480DD
:104C8C008AE02846FBF7D4F978B1A87829461EF0BB
:104C9C00B7FFADE7E889A0F50041062913D8DFE896
:104CAC0001F0087F8A0498B0BB00284629F0F0FB7D
:104CBC009EE728461DF026FD0028F6D06988824B19
:104CCC0006460120B2E048F23601884200F0B58079
:104CDC0048F22001884200F0B88048F22101884255
:104CEC0000F0BB8048F22201884200F0BE8048F2FE
:104CFC003401884200F0C1801328D6D100206E46C2
:104D0C000290CDE900002846314629F017FE69884B
:104D1C006E4B4FF080705AE00888F080D5F8020096
:104D2C00C6F81200E88AA6F81B00E87BB073288A44
:104D3C003082688AF082287D3076687D002818BF22
:104D4C0001207076687E002818BF0120B076287E7E
:104D5C007077E869306295F8200086F82400A88DF9
:104D6C00F08495F82E0086F82800A88C70852BF01E
:104D7C0054FE0028F06298D0AA8CA96A2BF006F891
:104D8C00287D2AF04FFA20B1007931461EF038FF09
:104D9C008BE7F06A2BF03FFE304629F079FB84E775
:104DAC0028461DF0AFFC00283FF47FAF6988454BC7
:104DBC00064602203AE06E46122130462BF004FDE6
:104DCC00284631461AF01EF969883D4B04203246BC
:104DDC005AE06E46182130462BF0F6FC2846314638
:104DEC002AF09CF96988354B1020324626F092FD4A
:104DFC00039818B12BF00FFE002003900598C8B94A
:104E0C0053E7284627F051FC00283FF44EAF698841
:104E1C00294B0646202009E0284627F046FC0028AE
:104E2C003FF443AF6988234B06464020324626F0B8
:104E3C0071FD30462BF0EFFD37E7A8696988184BF8
:104E4C002BF0A1FB4FF480001EE0A8696988174B7A
:104E5C002BF099FB4FF4804016E0A8696988144B3D
:104E6C002BF091FB4FF400500EE0A86969880E4BB3
:104E7C002BF089FB4FF4004006E0A8696988094BC8
:104E8C002BF081FB4FF4801026F044FD0DE700BFA2
:104E9C00556B0020D813002039DB0200A0720020D3
:104EAC005BC8020031C8020085C8020007C80200B6
:104EBC00DDC702008F370200353702001DC4010028
:104ECC00858A0100912B0200F12B02004969020036
:104EDC0098B0C14E01214FF0010930602BF00CFB52
:104EEC0009200DF10B0401218DF80B001020224636
:104EFC002BF0BAFA10200021012223464FF00008B3
:104F0C002AF03EFD9DF90B002AF015FE03AF384642
:104F1C002BF011FCB14D00213A468DF80C8005F1B7
:104F2C001404204629F0BCFE6C602BF0D3FA05F17A
:104F3C00080A2146524625F0D1FA2870A848A0F854
:104F4C000880A0F8008006AF38462AF07FFE41F2B8
:104F5C00883039460790002010F0D0FBE860012023
:104F6C00394610F0CBFB28614068007829F042FBF1
:104F7C0010B928782BF0A2FB9A4FE86839462BF031
:104F8C005EFC286939462BF05AFC082006F8040F01
:104F9C0095483146B060287819F006F906F11001F1
:104FAC00082022F0E1F828F041F89048904A017866
:104FBC00082025F015F88F4908201FF0ABFF287842
:104FCC0021F0ECF98C488DF82A908DF824908DF80E
:104FDC001C900DF11809494608908848CDF8260018
:104FEC004FF4006006908648CDF82B0028782BF003
:104FFC006AFB06AF442138462BF0E6FB40F2011069
:10500C003946ADF8560028782BF03FFB7D487E4A98
:10501C000178082025F0A6FE28784FF480614FF423
:10502C0000724FF48073CDE900215146224618F0EE
:10503C0013F88DF81880287806AE31462BF048FB13
:10504C0006F1060A724E4FF00A0B20464FF0FF3164
:10505C0010F038FC0028F8D028781EF085F80028CD
:10506C0076D007460078922815D0E5282BD0CA2890
:10507C002DD0CB2832D0E22834D0E32836D0C52826
:10508C005FD1387900285CD1287849468DF818B062
:10509C002BF01EFB55E0D7F81200B97BCDF81A00A7
:1050AC0038798DF82710398AADF82810411E8DF803
:1050BC002600022903D303281CD00F281FD1F888FF
:1050CC00ADF81E001BE0381D2BF086FB39E028786C
:1050DC0049468DF818802BF0DDFA32E028782BF059
:1050EC00DEFA2EE0381D18F0EFFA2AE0381D25F014
:1050FC0037F826E0B91D504608222AF047FED7F8AB
:10510C001600CDF82A00F87E8DF82E00B88BADF87D
:10511C002F00B87E8DF83100386A0D9097F8240076
:10512C008DF83800F88CADF8440097F828008DF80D
:10513C004600788DADF83C00F86A1090484602F0B5
:10514C00FBF9384615F0F6FE10B9384629F0A0F9EF
:10515C00A868810723D4C1050BD53078012802D16A
:10516C001DF030FE01E016F057F9A86820F48070AD
:10517C00A860810505D51BF0E3FEA86820F400703B
:10518C00A860410505D520F09DF9A86820F4806041
:10519C00A860010744BF20F00800A86055E7002074
:1051AC00CDE9060006A814F017FF2BF000FC4FF415
:1051BC007A71B1FBF0F04FF4FA61484317F072F9D1
:1051CC00FF20032124F076F82BF0CAFA0F4801686F
:1051DC0041F000410160FEE7D00F00206C0F002071
:1051EC00208100207DD902001812002077260300B0
:1051FC00B8190300A5A1020000F8FF07FFFF010486
:10520C000301000175260300382603002800095805
:10521C00B61100202DE9F04F85B005460868C8B1DD
:10522C00D5E901790C462AF0BDFF0646D7F8E8000F
:10523C0003210322112838BF0122092838BF00227C
:10524C00A068024202D16068024208D03046217444
:10525C002BF007FB0024204605B0BDE8F08FD7F8F3
:10526C00C0206AB197F8FC20002AEFD006212174E7
:10527C00D7F8C410C7F8C4404C6197F800110DE082
:10528C0000210522C7E93044C7E93411C7E93611BA
:10529C0097F80011002908BF01222274002201296D
:1052AC00626109D102204FF4E02187F8000197F8E0
:1052BC00FF0025F0DFFE6068A4490138884205D85C
:1052CC00042026F00FF8062026F00CF8022026F019
:1052DC0009F897F8FC0040B9D9F83C0021688142E4
:1052EC0003D297F80001002874D0D9F8000040F2DE
:1052FC00FF118164816A41F4C0718162D5E9014872
:10530C00D4E9361009B118B900E028B32BF044FAEF
:10531C00D9F80000816A41F00101816230462BF01E
:10532C00A0FA97F8FC0008B1012494E707F16C0689
:10533C00D7F8EC1030462BF080F90028F4D0D7F8D1
:10534C00C00003210174284616F03AFF30460021B4
:10535C0000242BF072F97EE798F804002BF037FB51
:10536C00D8F810102AF0E2FCD8F814102AF0DEFC61
:10537C0098F8040028F06EFC98F804002BF029FB38
:10538C002BF00AFA0020C4F8E000D4F8C000006842
:10539C00B0F5806F01D92BF0FFF994F802010028C9
:1053AC00B6D1284627F0CAFE94F8FD000028AFD1EC
:1053BC00D8F80000D8E90412D0F8183143F00303F0
:1053CC00C0F8183142EA0100D4F8CC1049680968D9
:1053DC0088629DE797F8FD0020B1D7F8EC0001300A
:1053EC007FF483AF30462BF03CFAD4F808B0D5E903
:1053FC000110BBF1000F029005D0D1F8E80009288C
:10540C0006D2012002E001F1F80B0020019004E02B
:10541C000422112838BF022201926668039136B12A
:10542C00D1F8E800092807D24FF001080AE001F191
:10543C00FA064FF0000805E04FF00408112838BFB9
:10544C004FF00208D4F80090284627F077FE04AD00
:10545C000399CA46B9F1000F5ED0D1F8E8100829BB
:10546C0014D8029801210068BAF1000F25D0C907A1
:10547C0023D032782BF0AAF818BFC0F840210029AD
:10548C001CBF46440121AAEB010AEDE70298112941
:10549C0000681AD20121BAF1000F29D0C90727D010
:1054AC0032882BF093F818BFC0F8402100291CBF9C
:1054BC0046440121AAEB010AEDE729462AF006FD34
:1054CC00DDE903108BF8000021E00121BAF1000F97
:1054DC0016D0C90714D032682BF078F818BFC0F872
:1054EC00402100291CBF46440121AAEB010AEDE72B
:1054FC0029462AF0EBFCDDE90310ABF8000006E0CE
:10550C0029462AF0E3FCDDE90310CBF800000198F2
:10551C00A9F1010983449DE7D1F8F00002990968CB
:10552C00D1F810210240102802D1002AF8D101E054
:10553C00002AF5D0606828F0C1F9D7F8C010002017
:10554C00C7F8C400C7F8C0000874EDE6FEFFFF0FF3
:10555C0092B0DFF8C892D9F8000010B1002180F8A1
:10556C004510483027F05EFC2AF01CFE80460720D0
:10557C0012F0F0FF1BF00CFC10B1A9482AF0B0FFA0
:10558C001EF0C2FB01AD28462AF060FC0427002067
:10559C0029468DF804702AF061FCDFF888A2A24E2F
:1055AC00CAF800003068006880473068C1680AADEE
:1055BC002846884730688DF82870294642680020B4
:1055CC0090479A4C20603068C06980473068816A87
:1055DC0006AD2846884730688DF818702946026A4F
:1055EC00002090472168924D286019B991482AF003
:1055FC0077FF286810B990482AF072FFDAF800009B
:10560C0010B98E482AF06CFF25F06CF8D9F8000020
:10561C004FF0FF3438B1CDE9104410A9082229F01D
:10562C009FF801281BD1CDE9104408202BF0F5F987
:10563C00002846D005460026052E04D82AF0E9FF9E
:10564C00A8530236F8E74FF6200029460822E880D6
:10565C007B482AF09BFB28462BF0DDF909E0D9F8B2
:10566C000010CDE910440029DFD0754808222AF03B
:10567C008DFB10AA012008212AF0F6FE092800D083
:10568C00D8B927F062F9800712D4CDE91044CDE9DE
:10569C000E440EAB0120002108222AF071F960B9EA
:1056AC000EA810A9082229F05BF8002800F0AF80A2
:1056BC00634A012008212AF0DDFE6149E22023F033
:1056CC0029FB15F0F7FE24202BF0A7F95D4E0028DE
:1056DC0030604AD05C4F5D4C07F10C052BF04CF858
:1056EC002AF086FE3068056007F110052BF044F8AF
:1056FC0022F05EFF3068456007F114052BF03CF892
:10570C0026F042FD3068856007F118052BF034F85F
:10571C001EF0EAFE3068C56007F11C052BF02CF872
:10572C0024F0BEFD3068056107F120052BF024F84C
:10573C0024F04AF83068456107F124052BF01CF879
:10574C0021F0E6FF3068856107F128052BF014F88D
:10575C001EF0B6FB3068C56107F12C052BF00CF878
:10576C00387012F0D7FD306805621CF08DFC2AF001
:10577C00B0FC40462BF075F81BF034FF2AF076FF96
:10578C00012025F0FFFE23F0E3FA324800780228CE
:10579C0008D12F480078012804D14FF40040012192
:1057AC0008F072FA284D4FF4804128782AF06CFDED
:1057BC00DFF8A4904FF0000868684FF0FF3110F04C
:1057CC0081F83068002750F82710096821B9791C36
:1057DC00082F0F46F7D3EFE72AF016FF316851F880
:1057EC0027100C68C1F800802BF077F859F82720A7
:1057FC0000202146904704462AF006FF316851F8F4
:10580C0027100A6822430A602BF067F8D4E70C488B
:10581C000EA908222AF0BAFA4FE700BFC4140020E0
:10582C006821030088810020701400208C810020E6
:10583C00908100209323030080230300CA230300DC
:10584C005081002010820020F80D0020E9A40200F5
:10585C005E1500207C130020842003007FB50138E6
:10586C00062800F2DE800C46DFE800F00428465ED5
:10587C007A8C9900B54800780138012800F2D18063
:10588C00002C00F0108100200321002423F012FDD5
:10589C00AB4DAC4E042004213222287030782BF012
:1058AC0013F80820002108F0EFF930786C704FF4F1
:1058BC00805104B0BDE870401EF012BF00200025DE
:1058CC002AF02CFBA0480121017004208DF80D005A
:1058DC0024B19A48C586072028F06CFB984804210F
:1058EC0032220570974800782AF0EEFF934890F822
:1058FC00371001F0FE0192E094480078013801283D
:10590C0000F28F808F480421322200782AF0DCFFCD
:10591C00002C00F0E280894C894801210170E0697B
:10592C00E0B324F011F9FAE701208DF80D0054B121
:10593C0082480021874A80F8361085482AF092FC6C
:10594C00072028F037FB7E480021322201707D4869
:10595C002AF016FF794890F8371001F0FD015EE04F
:10596C0002208DF80D00754854B30021794A80F857
:10597C00361077482AF076FC0020032123F09AFC9D
:10598C00072034E06D4C03208DF80D0094F83600A0
:10599C0008B90120A0712078002854D07FBD0025C3
:1059AC008DF80D5094B313F091FA65480D21C8226F
:1059BC000570624880F8361062482AF0E1FE29E052
:1059CC00082180F8361061490978012911D890F81E
:1059DC003A0070B900200DF10A018DF80A0052202E
:1059EC0023F098F929F02CFF25F08CFB002028F0EF
:1059FC00E1FA534800213222017052482AF0C0FECD
:105A0C004E4890F8371001F0FB0108E04B4802219A
:105A1C0080F83610494890F8371001F0EF0180F803
:105A2C0037104648016A0029B8D090F83600002299
:105A3C0003238DF80C004348007803A900910A2138
:105A4C0022F075FE7FBD20692AF038FA0028A5D116
:105A5C003C4D4FF48041287823F06CF800289DD100
:105A6C00002604F11000C4E9056627F019FE287819
:105A7C004FF480411EF034FEA079012806D194F831
:105A8C0036000B2804BF002084F836002C48A67181
:105A9C000178062946D10021322201702878042190
:105AAC002AF012FF43E0254C0720264D4FF480517D
:105ABC0084F8360001208DF80D0028781EF010FEB9
:105ACC000020002627F04AF92878022141F288327A
