:1000000000FC0320AD9B0200158D0200158D02003F
:10001000158D0200158D0200158D0200158D020050
:10002000158D0200158D0200158D0200158D020040
:0C003000158D0200158D02003B2E010012
:10003C002DE9F047A8B004460078A0F1A0015C2996
:10004C0000F26780DFE811F0BC00DF005D005D00AE
:10005C00F70024015F015D0084018D01A901E60117
:10006C0015023C024F025B02690274027D02860299
:10007C008C0295029B02C902E002EB02B900B900A6
:10008C00F702B900B900B90001030B03B900B900BC
:10009C001603B900B900B900B900B900B900B9002C
:1000AC00B90021032703B900B900B900B900B900A0
:1000BC00B900B900B900B900B900B900B900B9006C
:1000CC00B900B900B900B900B9003003B900B900E2
:1000DC003703B9005903B900B900B900B90063037B
:1000EC00B900B900B900B900B900B900B900B9003C
:1000FC00B900B900B900B900B9006C037A035D000E
:10010C00B90060681221002808BF0221617001F05B
:10011C005CBA4D2800F25180A678DFE810F01F037E
:10012C004E0031033B031B044E004E0044045504A7
:10013C00A3044E004E004E004E004E004E00AC0488
:10014C00B604DE044E0005050D061B064E00260601
:10015C0035064E0040065A064E008306A706AA0630
:10016C00B706DB064E004E004E004E004E00250733
:10017C004E003307440755074E004E004E004E000C
:10018C004E004E004E004E004E004E004E004E00F3
:10019C004E006E078907A3074E004E004E004E001E
:1001AC00BD074E00E7074E00F8074E004E004E000C
:1001BC004E005108680875087F08122001F004BA37
:1001CC006068002801F0FF81A168002901F0FB8123
:1001DC0001783A20002908BF3B200BAD00211122E9
:1001EC002B462EF0FFFA0028607041F0EE81D4E926
:1001FC0001109DF82C204270097800F8021B691C34
:10020C00102200F00CBE6168002901F0DC81087836
:10021C004A783A258B7800288DF82C2008BF3B258E
:10022C000BA80130002B01F00F80033110222EF0AF
:10023C00E9FC01F00BB86168002901F0C481A068E9
:10024C00002801F0C08111F8012B00F8012B2FF0D0
:10025C006AFA60680178002901F08681DFF8C40829
:10026C000BAE002506F108080788AF4201F0A98102
:10027C00A9B204200022142300962AF0D5FF607046
:10028C0020B92EF031FF002801F0FC810135ECE79C
:10029C006068002801F097810178002900F0DC8764
:1002AC00DFF8AC0E0DF12C0A00250DF11C08002610
:1002BC000AF10809CDE90955CDE907550788B74278
:1002CC0001F0B081B1B2042000221423CDF800A0BB
:1002DC002AF0AAFF6070A0B9606849460822043071
:1002EC002DF05AF9002801F09B8155B96068414600
:1002FC00082204302DF050F900284FF0000508BFFB
:10030C0035460136DBE76068002801F05C81017836
:10031C00002900F0BB87DFF8380E0DF12C090027FF
:10032C0009F108080588BD4201F04F81BEB20420D6
:10033C0000221423CDF8009031462AF075FF60702E
:10034C0020B92EF0D1FE002801F07E810137EAE7BA
:10035C00DFF8000E4FF48071007821F09BF801F06B
:10036C0030B96068002801F02E81418800882AF09D
:10037C008DF968B9606801224188008825F06AF817
:10038C006068418800882AF081F9002801F07381A7
:10039C0061680979417001F014B96168002900F0B5
:1003AC004887DFF8B45D087885F8260095F8722048
:1003BC004888E882087A2876488968834868A86261
:1003CC008889A884887B85F83800C87B6871087C8C
:1003DC00E8704869286388696863087F824202D0A4
:1003EC0025F044FF616805F139001D312FF0FBF950
:1003FC0095F82600082840F02487DFF85C2D212092
:10040C0074212EF07FFF00200221002527F072FEC0
:10041C0000F018BF6068002800F00D87007825F008
:10042C0025FF6168DFF8305D287E4978884212D05C
:10043C0029760BA9E1202DF0E3F9606841789DF84D
:10044C002C00884207D08DF82C100BA9E12027F046
:10045C009FFB60684078012101FA00F0A8622CF043
:10046C00F5FC00260120A5F870601FF063FD00F07C
:10047C00E3BE6068002801F0A68001884088ADF8D2
:10048C001C00ADF82C100BA9532027F081FB07A9F9
:10049C00502027F07DFB0DF11B01E1202DF0B0F970
:1004AC0060689DF81B100079814201F08A808DF8FC
:1004BC001B000DF11B01E12027F06AFB01F081B854
:1004CC006168002901F07F80DFF8900C2FF02BF988
:1004DC006068DFF88C2C0189807A1180DFF8841C2D
:1004EC00087001F06EB86068002801F06C80002183
:1004FC0061708178008822F063FC01F066B8A06816
:10050C00002801F060800020607025F081FB00283D
:10051C0000F0C086A16800F067BE6068002801F09A
:10052C0052800021617000780BF0F0FA01F04DB8A8
:10053C006068002801F04780007826F051F801F03F
:10054C0043B8A068002801F03E80002060702EF0B7
:10055C0031FE97E00020607028F0DEF901F035B82C
:10056C00A068002801F02F80002060702EF006FF9C
:10057C0088E00020607028F007FA01F026B8606867
:10058C00002801F0208000216170017D19B1C17C2F
:10059C00DFF8D42B5174817D19B1417DDFF8C82B64
:1005AC009174017C19B1C189DFF8BC2B1181017BDD
:1005BC0019B18168DFF8B02B5160817C19B1417C95
:1005CC00DFF8A42B51730179002900F0FE87006835
:1005DC00DFF8941B086000F0F8BFA068002800F05A
:1005EC00F287DFF8841BD1F80D20C0F80D2091E8BC
:1005FC002C0085600D7BC0E900230573B1F8111048
:10060C00A0F8111000F0DDBFA068002800F0DB8717
:10061C0000216170411C25F0C1FF00F0D6BF60685D
:10062C00002800F0D0870021617024F0B3FCA16891
:10063C00088000F0CABF6068002800F0C48700F191
:10064C00120126F0D1FF00F0BFBF6068002800F057
:10065C00BA874168007824F00FFD00F0B5BF6068E0
:10066C00002800F0B08700216170007828F0DAFFD4
:10067C0000F0ABBFA068002800F0A58700206070D8
:10068C002CF034FCA16800F0B0BD0020607023F0A9
:10069C00F3F800F09ABF6068002800F094870068B7
:1006AC0028F056F900F090BF0020DFF8C01A6070F7
:1006BC00E07800F09ABD6168002900F08687082078
:1006CC00ADF82C000888ADF82E00081D0BAC90E896
:1006DC006800221D68C2087CD1E905231C31CDE9D4
:1006EC0010238DF83C0004F11C0010222EF08AFA25
:1006FC0020462AF0F1FD00F068BF6068002800F089
:10070C006487817A008826F013FB00F05EBF606876
:10071C000078002800F0928527F0AEFF00F055BF5E
:10072C006068002800F04F87DFF8441A0978012927
:10073C003FF643AD2DF07AFF00F046BF606800280D
:10074C0000F04187DFF8281A097801293FF635AD0A
:10075C004168008822F0DCFA00F036BF606800289F
:10076C0000F03187407818B1FF20032127F0C2FC3C
:10077C002EF029FFE948016841F000410160FEE7D5
:10078C006068002800F01F8703210171E4490160B3
:10079C0000F017BF6268002A00F01587A1680029D5
:1007AC0000F0118700206070107840B101200870B3
:1007BC00DFF8C0090078002818BF01204870907835
:1007CC0040B101200871DFF8B0090078002818BF8B
:1007DC0001204871D07848B100202DF0EFFFD4E90A
:1007EC000121C0F34030C87101208871107950B3D9
:1007FC000120087201F10C002DF0E0FFA1680882C5
:10080C00DFF86C09007802281DD1DFF87009007838
:10081C00C8B9DFF86C590120A847A16848610220CB
:10082C00A847A16888610420A847A168C86108206E
:10083C00A847A16808621020A847A1684862202038
:10084C00A847A16888626068427932B1012281F8B8
:10085C002C20DFF830291288CA85827932B1012226
:10086C0081F83020DFF8202912884A86C27932B10B
:10087C00012281F83420DFF814291288CA86027A02
:10088C003AB1012281F83820DFF80429127881F876
:10089C003920427A3AB1012281F83A20DFF8F42863
:1008AC00127881F83B20827A3AB1012281F83C20FF
:1008BC00DFF8E428127881F83D20C27A3AB101229F
:1008CC0081F83E20DFF8D428127881F83F20027B93
:1008DC003AB1012281F84020DFF8C428127881F85F
:1008EC004120427B3AB1012281F84220DFF8B42842
:1008FC00127881F84320827B3AB1012281F844209E
:10090C00DFF8A428127881F84520C27B002A00F079
:10091C00C48601201122002681F846000BAD8120EF
:10092C0000212B462DF05EFF9DF82C00A1680028BD
:10093C0081F8470000F094862EF0B6FFA1680028DD
:10094C00886400F0A5869DF82C20691C2EF05AF9BD
:10095C0000F0A2BE254655F8040F002800F033869F
:10096C0000216170017841B14078DFF8082801213D
:10097C00107063202EF0C6FC2868017941B14079D3
:10098C00DFF8F427012110706D202EF0BBFC2868D5
:10099C008179002900F08084C1794FF400500CF06B
:1009AC0071FB00F08DBC6068002800F00C8690F99B
:1009BC00005028462DF0FBFFA068002800F00186AF
:1009CC00E9B2017000F0FDBD6068002800F0FB8505
:1009DC00002161702A212EF02FFEDFF87C57606811
:1009EC00DFF8C8670822E98A0180A98C8181698BAC
:1009FC00C182DFF8BC170978817205F139010E301C
:100A0C00B04767682DF086FD0146B81C0822B04738
:100A1C00606805F11C0108221830B0476068297E17
:100A2C00012280F82310DFF88C1780F821208978B8
:100A3C00CB0718BF80F824208A0744BF012280F816
:100A4C0025204A0744BF012280F826200A0744BF0C
:100A5C00012280F82720490644BF012180F8281084
:100A6C0000F0B3BD6068002800F0AD8500782EF072
:100A7C0055FC00F0A6BD6068002800F0A485008835
:100A8C00002110F05FF900F0A0BD6068002800F0B4
:100A9C009A8530462DF0D8FA0546002800F01885C6
:100AAC00E888DFF8141740F00C00E88002202DF0E5
:100ABC00A9FDDFF8081703202DF0A4FD40F201106A
:100ACC00ADF831006068016800790B918DF8300049
:100ADC000BA821F00DFF00F077BD6068002800F036
:100AEC0072850BAD011D082228462EF08BF80320D1
:100AFC002CF09CF96068C07B29F0D0FBDFF8B406C1
:100B0C0083786068418886890278807BCDE90060B3
:100B1C00284615F079FB00F057BD00BF2800095896
:100B2C00010102063C1503006768002F00F04B859D
:100B3C002EF094FC0546002800F0DB84387828B1B0
:100B4C00E988787821F001010843E880B87830B161
:100B5C00E988F87821F0020141EA4000E880387910
:100B6C0030B1E988787921F0040141EA8000E8800D
:100B7C00B87930B1E988F87921F0080141EAC00070
:100B8C00E880387A30B1E988787A21F0100141EAAE
:100B9C000010E880B87A30B1E988F87A21F02001A9
:100BAC0041EA4010E880387B30B1E988787B21F04D
:100BBC00400141EA8010E880B87B28B1A968F87B35
:100BCC0021F001010843A860387C38B1A968787C11
:100BDC0021F00201002818BF0231A960B87C38B19D
:100BEC00A968F87C21F00401002818BF0431A96021
:100BFC00B87D38B1A968F87D21F01001002818BF24
:100C0C001031A960387E38B1A968787E21F02001B6
:100C1C00002818BF2031A960B87E38B1A968F87EC9
:100C2C0021F04001002818BF4031A96097F822003C
:100C3C0048B1A96897F8230021F48061002818BFF7
:100C4C0001F58061A96097F8260048B1A96897F86A
:100C5C00270021F40051002818BF01F50051A960AC
:100C6C0097F8280048B1A96897F8290021F4804129
:100C7C00002818BF01F58041A96097F82A0048B1F7
:100C8C00A96897F82B0021F40041002818BF01F542
:100C9C000041A96097F8340048B1A96897F835006D
:100CAC0021F48011002818BF01F58011A96097F874
:100CBC00380048B1A96897F8390021F48001002860
:100CCC0018BF01F58001A96097F83C0048B1A968EC
:100CDC0097F83D0021F08071002818BF01F1807158
:100CEC00A96097F83E0048B1A96897F83F0021F039
:100CFC000071002818BF01F10071A96097F840003D
:100D0C0048B1A96897F8410021F00061002818BF8C
:100D1C0001F10061A96097F84200002800F05584A9
:100D2C0097F84310A86800290CBF20F0805040F0C1
:100D3C008050A86000F049BC6068002800F0438433
:100D4C008178002900F0E883C2780321002A08BFCB
:100D5C000121E2E36168002900F0358408888A7873
:100D6C0001211DF0F7FA00F02FBC022060706068C2
:100D7C00002800F02A844188007826F099F9002890
:100D8C0040F01F8400F021BC6068002800F01B8438
:100D9C0000216170007827F087FD00F016BC6068B8
:100DAC00002800F01084A168002900F00C840021B8
:100DBC00617000782CF05CFDA168087040002EF08A
:100DCC0073FD0146D4E90102516000782BF04CFB15
:100DDC00FBE36068002800F0F683A068002800F0B0
:100DEC00F2830026C0E900666068418800782AF02A
:100DFC00D1FE002800F0D08366700546A1680088FB
:100E0C000880A8780028887000F0DF832EF04CFD55
:100E1C00A1680028486000F0D8838A78E91C2DF07E
:100E2C00F1FED2E36068002800F0CD830021CDF8FC
:100E3C003A10CDF83610CDF83210CDF82E100279CC
:100E4C004188ADF82C105AB1816849B10F2A28BFDE
:100E5C000F228DF82E200BA803302DF0D3FE6068E6
:100E6C0000780BA901221FF00BFFADE32DF0C8F8A1
:100E7C00AAE36568002D00F0A6832F7838462DF084
:100E8C00EFF8002800F05283D0209DE36068002822
:100E9C0000F0998300782DF0E3F8002800F093839C
:100EAC000546007B28F070FB0028607040F08D83B5
:100EBC00DFF8E40A4168002900F0878300220C4621
:100ECC002346002C00F0CE83AB4200F0CB831C6891
:100EDC001A46F5E76668002E00F07583357D2846C6
:100EEC002DF0BEF8002800F06E83307F102141EA0F
:100EFC004007717F002908BF4700B07F002818BF4A
:100F0C0047F00807F07F002818BF47F0200796F835
:100F1C002000002818BF47F0400796F82100002851
:100F2C00284618BF67F07F07D6F818802DF0F2FE20
:100F3C00002800F0488305466068827A01788DF8B5
:100F4C00352082898DF83410ADF836204A1E022ADD
:100F5C0005D3032900F047840F2940F049844188C8
:100F6C00ADF82C1000F044BC61680220002900F0A0
:100F7C002B830A888DF834004988ADF82C200BA8F7
:100F8C0002221DE061680220002900F01D838DF80B
:100F9C003400002308880A794988ADF82C000BA886
:100FAC002BF01AFA10E361680220002900F00C8380
:100FBC008DF83400052208884988ADF82C000BA860
:100FCC0000232CF001FCFFE265680220002D00F0EC
:100FDC00FB828DF834002E7B00272888AB79AA88F9
:100FEC006988ADF82C00A8682D69CDE90006CDE91B
:100FFC0002570BA817F0D6FBE6E265680220002D1D
:10100C0000F0E2828DF83400EE682F7C4FF0000C7B
:10101C002888EB8869882A79ADF82C00287A6D69C4
:10102C008DE8C100CDE9035C0BA817F063FBCBE2A4
:10103C006168002900F0C78202208DF83400887B9B
:10104C000D88421E8DF82400022AADF82C5005D3D1
:10105C00032800F0A3820F2840F0A582088AADF87F
:10106C001C00A0E26068002800F0AD8202218DF81F
:10107C0034100188ADF82C10817B4A1E8DF8241099
:10108C00022A05D3032900F0B1820F2940F0B48263
:10109C00018AADF81C10AFE26068002800F0938262
:1010AC0002214FF6FC728DF8341001888A1A032A3B
:1010BC0011D8022A0FD02DF0D5FFADF82C006068A6
:1010CC000021837AC27A0091811C0BA826F006FDC0
:1010DC00607060680188ADF82C10837AC27A0021A8
:1010EC000091811C0BA826F0F9FC6DE262680220CD
:1010FC00002A00F069828DF8340000231088917862
:10110C00D278ADF82C000BA821F0D6FD5CE261681A
:10111C00002900F05882CA7A887A0B7B4D7B002A12
:10112C0018BF40F00200002B18BF40F00400002D47
:10113C0018BF40F008008A7B002A18BF40F040001E
:10114C000023C2B20888023127F022FB3CE200BF28
:10115C003C150300487A002030690020141400204C
:10116C001214002010140020E00E0020BA150020EC
:10117C001C140020F7150020717A0020FC150020AB
:10118C00F5ED0100A4150020A0150020A8150020E5
:10119C00ED150020EA150020DF150020EB150020CE
:1011AC00F6150020E0150020F915002011EC0200C6
:1011BC00C4110020D0780020C580020091E8020004
:1011CC006068002800F0FF81A168002900F0FB8115
:1011DC0000780BA92BF07FFB0020BDF82C20607051
:1011EC00D4E90101A1F8012000780870EDE16068F4
:1011FC00002800F0E881B0F80110ADF82C10007850
:10120C000BA92CF00BFBDFE16068002800F0DB8100
:10121C00017A427A002320F0CDF9D5E160680028EC
:10122C0000F0D1818178C2780088002329F0AEF8D3
:10123C00CAE1022506E002266670C6E12BF03AFBF5
:10124C00C3E100256570C0E127F0BEFA0BAA284661
:10125C0011212EF057F8B7E100F10C010BA8102268
:10126C002DF0D0FC6068D0E907120430CDE90F12E4
:10127C0007A92BF0C3F80028607000F0FE816168AC
:10128C00488804310BAA23F063FB9DE101302DF05B
:10129C0097F899E1012097E1017A89B1C168008A38
:1012AC00420701D064290BD315F0DAFE002001218E
:1012BC000BF0E8FEDFF8E826352028212EF022F886
:1012CC002868817C41B1808ADFF8D8260221108001
:1012DC0044202EF017F82868817D41B1008BDFF88F
:1012EC00C8260221108046202EF00CF82868817E3A
:1012FC0041B1808BDFF8B4260221108083202EF0C0
:10130C0001F82868817F41B1C07FDFF8A426012154
:10131C00107029202DF0F6FF286890F8201049B1A4
:10132C0090F82100DFF88C26012110702B202DF075
:10133C00E9FF286890F8221049B190F82300DFF8F3
:10134C0078260121107043202DF0DCFF286890F8DE
:10135C00241049B190F82500DFF8602601211070A7
:10136C002E202DF0CFFF286890F8261049B190F868
:10137C002700DFF84C26012110702F202DF0C2FF22
:10138C00286890F8281049B190F82900DFF8342625
:10139C000121107030202DF0B5FF286890F82A102C
:1013AC0049B190F82B00DFF82026012110702C2079
:1013BC002DF0A8FF286890F82C1089B190F82D20FA
:1013CC00102A28BF1022016B8DF82C200BAC601C4E
:1013DC002DF018FC8120112122462DF093FF286856
:1013EC0090F8341049B190F83510102928BF10210D
:1013FC00826B62202DF086FF286890F83C1041B17A
:10140C00006CDFF8C8250421106084202DF07AFFD1
:10141C00286890F8441049B190F84500DFF8B025E1
:10142C00012110704B202DF06DFF286890F84610AC
:10143C0069B1DFF8A04500F14701082220462DF0E4
:10144C00E1FB4720082122462DF05CFF286890F82C
:10145C004F1031B100F15002012008212DF052FF44
:10146C00286890F8581041B190F859008DF82C006C
:10147C000BA9522026F08CFB286890F85E1049B11D
:10148C0090F85F00DFF850250121107033202DF00B
:10149C0039FF286890F85C1059B190F85D00DFF8BE
:1014AC003C250121107032202DF02CFF23F0B4FCD0
:1014BC00286890F86010002900F0878090F861008F
:1014CC00DFF8D4144870DFF8CC1481F868007CE0A5
:1014DC001C202EF0E9F9002877D01C2105462EF0AF
:1014EC00ABF828462E7128F005F900287FF4D8AA0D
:1014FC0091E01C202EF0D8F9002866D01C2105465E
:10150C002EF09AF828462E7128F0F4F8002800F0F6
:10151C0082806768FFF712BB002103794279002BA8
:10152C0018BF403100880FF099F84DE02CF0A4FD65
:10153C00DFF864140978884270D22DF08FFF20B147
:10154C008146007B002800F08D811C202EF0ACF928
:10155C00D8B31C2181462EF06FF889F804604FF047
:10156C00010865682F787FE1013007A92AF046FF52
:10157C00607050BB07980021182240880BAB2DF0EF
:10158C0031F9607008BBA068DDE90F12C0E90712E1
:10159C0009300BA9FEF734BEB12015E0103107A8B5
:1015AC002EF0C1F86168DFF8EC03C08A854210D1D7
:1015BC00887A0A7E0C310123009107A90BF01EFEDC
:1015CC0008B1002000E002206070012028B0BDE8C6
:1015DC00F08788890A7E8B7A07AE0025CDE9000654
:1015EC00CDE902258A1C0BA9212011E000F1100184
:1015FC0007A82EF098F860688189027E837A07AE7E
:10160C000025CDE90225CDE90016821C0BA922206C
:10161C001DF020FED8E728462EF044F9D120D3E760
:10162C0037463546012DD0DB60680822011D48463F
:10163C002DF0E8FA60681422D0E90710CDE90B1000
:10164C00B9B20BAB042008E00BAD142128462DF0E9
:10165C00F3FF0420314614222B4629F0FBFDB3E79F
:10166C008E6419E0AB42B0D1A94208BF021D2868B4
:10167C0010602846E2E0C820A6E7079818214088A9
:10168C000BAAE6E5A068DDE90B12C0E907129CE79E
:10169C000020886481F847006068007C70B11020DD
:1016AC002EF002F90346A06803653BB1012110221C
:1016BC0080F84C10622000212DF094F86068417C79
:1016CC0031B1A168012281F85420C04A12688A65A0
:1016DC00817C39B1A168012281F85C20BC4A127866
:1016EC0081F85D20C17C51B1A0680121082280F8ED
:1016FC005E10A8495F3039312DF084FA6068017DA5
:10170C0059B1A568012085F867002CF003FF01464C
:10171C0005F168002EF007F86068417D79B10BA9DE
:10172C0052202CF06DF8A068012180F870109DF803
:10173C002C10002918BF012180F871106068817D80
:10174C0019B1A1680122A1F87220C17D51B1A16823
:10175C00012281F87420A14A1278002A18BF0122B4
:10176C0081F87520017E39B1A168012281F87620BB
:10177C00994A127881F87720417E51B1A1680122F3
:10178C0081F87820844A5278002A18BF012281F807
:10179C007920807E00283FF418AFA168012081F8E1
:1017AC007A007C4991F82610082918BF042916D014
:1017BC00A1B921202DF060FF74280FD10BAB212093
:1017CC00002174222DF00EF89DF85210043901F00E
:1017DC00FB010843B0FA80F0400900E00020A1684A
:1017EC0081F87B00F1E6811C0BA82DF09CFF606852
:1017FC00817B31B348002EF057F888B361680646F8
:10180C000022887B904206D00B6933F8123026F800
:10181C0012300132F6E78B8CCA8AD1F828C091F8C5
:10182C002210FFB2CDE90406CDE90271CDE900C862
:10183C000BA8294624F04DFC607030462EF032F88F
:10184C00C3E6838CC28A816A90F82200FEB2CDE98D
:10185C000018CDE902600BA8294608F0FFFEB3E69C
:10186C001020B1E64FF000084E4606F80C7F287A9F
:10187C0030734A48706014202EF016F80028B060BF
:10188C0045D014212DF0D8FE6268D9F814005268A6
:10189C008179927901F0F00102F00F02114481710B
:1018AC006168D9F8140049680A780270D1F80220EE
:1018BC00C0F80220CA79C271097B017350002DF067
:1018CC00F3FFD9F81410886060B1CA7900239A42EA
:1018DC0008D065686D68AD6835F8135020F8135062
:1018EC000133F4E7087B40002DF0DEFFD9F814102B
:1018FC00086160B1097B0022914208D063685B6883
:10190C001B6933F8123020F812300132F4E73046FC
:10191C002AF098FDB82802D00746022806D1307864
:10192C0027F032FE30462AF08DFD074637B1B8F16C
:10193C00000F0FD048462DF0B5FF23E0B8F1000F93
:10194C003FF443AE484627F0D5FE00287FF43DAE69
:10195C00484673E7D9F8140078B1816821B108467C
:10196C002DF0A0FFD9F81400016921B108462DF023
:10197C0099FFD9F814002DF095FF0020C6E900005E
:10198C00C6E90200B82F3FF47FAA022F3FF47CAACD
:10199C001BE600BF30690020781400205561002040
:1019AC00B8740020A4150020A0150020A815002054
:1019BC00ED150020EA150020DF150020EB150020A6
:1019CC00F6150020E0150020F91500208C150020DC
:1019DC00DC150020B0140020E4150020E5150020D3
:1019EC002DE9F04F99B080466FF007000DF11C0BFC
:1019FC00063098F808105A46ADF85200D8F8040092
:101A0C0011F02EFF002800F0B5809DF81E609DF8A7
:101A1C001F409DF82070BDF826502DF01DFB844210
:101A2C0040F0A88025F003004FF6F87480B2A04275
:101A3C0000F0A080012F00F29D80022E80F09A8091
:101A4C00B8F82400ADF84800B8F82E00ADF82A001C
:101A5C009DF82200D0B1D8F804109DF81D209DF8F7
:101A6C00383001202BF04EFE08B1CF2083E0DFF898
:101A7C005807C078012809D1B8F824002DF093FD3F
:101A8C0020B1417901F0E701083141719DF8210045
:101A9C0068B1BDF82610FF202AF07CF89DF82110C3
:101AAC00D8B141F001012C268DF8211016E09DF8DB
:101ABC003900002864D09DF83D10FF2902D0002980
:101ACC0040F0ED80DFF80407BDF82620C18A8A4279
:101ADC0040F0EE800120222607E0082601F00300EA
:101AEC00012808BF46F011060120B1073746DFF880
:101AFC00DC9658BF67F07F07002808BF37469DF873
:101B0C00220030B999F80B0018B107F022002228F6
:101B1C0013D117F0400A58D0119899F80E2001787B
:101B2C00920718D40C291BD8012241F290438A4009
:101B3C001A4245D1032940D012E0F8B200F042001D
:101B4C0042287FF492AF1198007800F0FE0006282E
:101B5C007FF48BAFDDE7A1F10C0212F10C0F2AD848
:101B6C00B9F81600BDF82620824203D1BDF8280032
:101B7C0028F0E4F9D3201FF00CFB19B0BDE8F08F6E
:101B8C00BDF8260026F00CFC0238DFF84016B0FA3F
:101B9C0080F0CA8A4109BDF82600904208BF023184
:101BAC00002900F08C809DF81E20002A00F03A815C
:101BBC0001F1400738E1032902D140780D2804D007
:101BCC0007A825F05FFE0128D7D0B9F82400B8F893
:101BDC00401081420AD198F84220B8F83E10B8F86B
:101BEC0024000023009300230FF0D6FF9DF8220061
:101BFC00E0B1B8F83E10B8F8240028F047FDB8B3AF
:101C0C000646D8F804009DF81D10F2780844417B74
:101C1C008A421EBF00227260F1700130042129F04B
:101C2C0035FC71688842A8D30130706099F80E00B9
:101C3C008007A2D59DF84D0058B1BDF828002CF0B6
:101C4C006BF800286FD0D8F80400417801F0DF0160
:101C5C0041709DF82E00A0B3D8F8040081790139A9
:101C6C0081718DF82E1007F07F0009062CD12AE027
:101C7C009DF84D00002841D004202AF0F9FA0028E4
:101C8C003FF47BAF01464FF4B2700880B8F82400E3
:101C9C004880DFF83C05007820F006FF6DE7109ACD
:101CAC009DF83C0024F0D0FB30B1012000261CE74D
:101CBC0090F826000428F8D10026002015E700270C
:101CCC00B2E007F07F000746390702D44FF0000A54
:101CDC0049E0F9B24A0737D4C9069DF821103DD521
:101CEC00C1F3820212B1072A18BF013A002A08BFB9
:101CFC00074601F0E30040EA82012DE099F86C0000
:101D0C0001287FF493AF11980078062803D1BAF11B
:101D1C00000F7FF48BAFE01DBDF82A1080B281421A
:101D2C003FF42BAF44E1D3201FF033FADFF8A404C7
:101D3C000078002800F0AD80DFF89C1451F82000EA
:101D4C00C0EB00108100A6E09DF8210000F0E0013E
:101D5C0000F0E30040EAD1018DF82110D8F804001E
:101D6C004FF4805A017299F82600092801D00428F2
:101D7C0029D1B9F81610BDF8260088420AD026F0F1
:101D8C000FFB022806D09DF8210000F0030001286B
:101D9C007FF4F3AE9DF81E0000285BD011989DF8DF
:101DAC0038100078042808BF02296DD0072808BF16
:101DBC00042900F0838003287FF4DFAE07A80021FC
:101DCC0013F0D8F8D9E6FEB217F0610F49D0F0073E
:101DDC0008D0B8F8241007A817F034FD002871D0EB
:101DEC0007F09F070025FEB2B80605D52CF0A6FA21
:101DFC0007A815A906F0E0F8700640F13981B8F88B
:101E0C00241007A80DF152022B4611F0A5FD002855
:101E1C0000F08180054611980078012808BF4AF02F
:101E2C00100A25E101F1200726F0BAFA0138B0FAC0
:101E3C0080F0400947EA00069DF81E0000283FF498
:101E4C0053AE119800782BF0AFFF012818BF07F0A4
:101E5C007E0649E62CF072FA07A815A906F0ACF834
:101E6C008BE69DF81E00012864D111980078032898
:101E7C0053D005285ED1B8F8241007A80DF15202F2
:101E8C00002311F069FD78E607A9002012F0FCFB95
:101E9C0073E6D1480168D1480268BDF82800904724
:101EAC0001287FF46AAECE480168BDF82800884747
:101EBC00CC480168BDF8280088475EE607A81AF0F0
:101ECC00F5F95AE62AF012FE9DF82E100546BDF8DB
:101EDC00280021B9B8F8241088423FF484AFB9F82F
:101EEC001610814204D1B848807800283FF47BAFAB
:101EFC00B8F8241007A82A460AF0C6FA002800F001
:101F0C009E8030074AF0040ABDF8260048BFE01D49
:101F1C00ADF8520067E70025AAE0BDF826002BF0CB
:101F2C00FBFE38B1B8F8241007A80DF152020023BB
:101F3C0011F012FD9DF82E0088B327F07BFD0028D0
:101F4C007FF41BAE9DF83900B8B3109A9DF83C0095
:101F5C009DF83D1024F078FA002873D09DF83D00D0
:101F6C00002878D010992DF0A1FA9DF82430ADF806
:101F7C00520011209DF823209DF821104AF0400AB0
:101F8C00002B08BF0920002A18BF0830002918BFF1
:101F9C000130D8F804100A5C013A0A5465E09DF847
:101FAC001E00012804D11198007803283FF4E5ADF8
:101FBC0007A8414621F090F8DFE59DF82010BDF808
:101FCC0026000029ADF8520000F0CF804020BDF86B
:101FDC0026100BF11D0200EAC7099DF820004B46A4
:101FEC001BF0B0FA38B1D8F804004AF0200A017896
:101FFC0001F03F0101709DF8390048B1BDF8261081
:10200C000BF1200025F020FC4AF0400AADF85200FC
:10201C009DF81E00012806D0BDF82810BDF826003A
:10202C00002216F079FEBDF82810BDF826004A46AD
:10203C0014F028FC002818BF4AF0200A15E007F01D
:10204C00DF07CFE6BDF82610BDF828000B220023D1
:10205C001CF03EFF91E5BDF82600ADF852002DF0C6
:10206C00A2FA002808BF4AF0400A2AF03FFD0546B4
:10207C00A01DBDF8521080B20E1A5B4818BF2E4638
:10208C000078012805D1E01DB8F82E1080B28142ED
:10209C002ED178B2B0F1FF3F3FF76FAD002E3FF479
:1020AC006CADB8F808002DF0FFFB00283FF465ADCF
:1020BC00B8F80820D8F8041005462CF0A3FD9DF8BC
:1020CC001E10002098F80830B8F8242016908DF8CF
:1020DC005410BDF8521015ACCDE9006ACDE90204DC
:1020EC00284615F0E3F868B328462DF0DBFB44E5F1
:1020FC00B8F824108142CCD0601CBDF8262080B2E8
:10210C008242C6D2BDF828008142C2D02DF04BFAD3
:10211C000028BED0017901390129BAD840880121A3
:10212C008DF85410ADF8600015AD284621F08CFFE9
:10213C000028AED0281D20F0D3FA0028A9D029F011
:10214C00B1FCA6E72048407800283FF416AD0020EB
:10215C008DF81860ADF81900DDF826004FEA304014
:10216C00059005A82CF034FB07E531073FF52EAFA1
:10217C009DF81E1001293FF429AF00211BF0A2F994
:10218C0020B1407901380228FFF420AFB8F8401094
:10219C00BDF8520028F07AFA30B180782AF0A6FF08
:1021AC0001380728FFF412AFBDF828002BF0B4FD5E
:1021BC0018B104208DF8200008E7BDF82610BDF8F2
:1021CC002800022243E700BFEC13002030690020F6
:1021DC00487A0020EE150020B80D0300E410002012
:1021EC00EC100020E8100020FA1500202DE9F04F2B
:1021FC008FB00C46480718D4200471D4E00400F1C9
:10220C00CC81200600F1EA81A00700F1FE812005B7
:10221C0000F13282600600F13282A00400F1648287
:10222C00600400F1A682002015E2DFF8D4050178E5
:10223C00062900F20E82DFE811F00700C0010C0243
:10224C000C0206020C02C501DFF8B86596F83710CF
:10225C004A0700F1C6818A0700F1EB81090740F1BA
:10226C00F8810621017096F83A00002800F0C4822B
:10227C0023F0CEFC002800F0BF820546F0684068D1
:10228C004078800740F19382287804AB0321002228
:10229C0025F0E8F9002800F0788206980188B42926
:1022AC0016D8B4214FF47A720180DFF85C054FF434
:1022BC00005100782DF046FADFF85405016839B169
:1022CC00DFF850050078FF2814BF2878FF208847D6
:1022DC00F06840684078C00740F0608209205AE2FC
:1022EC00DFF83805DFF82075DFF814A5DFF8405566
:1022FC0048F2040848F202094FF6FE7B008802906F
:10230C0038781FF087FE002800F0448106460078DC
:10231C00D3280DD1F089404537D0484539D048F203
:10232C000101884240F01C81304619F039F817E160
:10233C009AF80010884219D1012856D0032840F091
:10234C000F81DFF8C80400780138012800F20881F9
:10235C00B078012877D0002840F0028170780028EE
:10236C0000F0BE80002021F0D7FFF9E00A2840F0F1
:10237C00F780DFF8901491F837003071096A002962
:10238C0000F0EE80B01C8847EAE030461DF00AF8F9
:10239C00E6E0DFF890040078002800F0E1809AF87D
:1023AC000000012840F0DC802CF084FB002840F079
:1023BC00D7807088002840F0D3800AAD12212846BF
:1023CC002DF03AF92DF009F8304629461BF0A4FD02
:1023DC00BDF83400B0F5285FC0F0958001200221D3
:1023EC0022F070FEDFF84854BAE0DFF820040078E1
:1023FC000138012800F2B4807078DFF8082460B14D
:10240C0092F83C0092F83D10013082F83C00C0B2CA
:10241C00884202D901200021A0E09AF8010003288B
:10242C0034D002284BD0012840F09A80DFF8F40316
:10243C000078002800F08C802CF03CFB002800F089
:10244C009380012085E07078002851D02CF00AFE92
:10245C005845DFF8D4B34FF6FE7103D1BBF8160024
:10246C00884207D0ABF81610ADF81010532004A911
:10247C0025F08EFB23F014F82AF058FB00208BF883
:10248C00260021F0F9F94FF6FE7B69E0AB4604AD6E
:10249C00AB2000212A4620F0F7F804200A955D466F
:1024AC004FF6FE7B8DF82C000AA812F0BBFA2CF02C
:1024BC0094FF38784FF4805141F2883220E00120AB
:1024CC0050714FF48060ADF8100004A81CF0D3F9E3
:1024DC002CF083FFDFF848034FF4805102680EE0C4
:1024EC0013F0FAFEC748406AD0BB21F0C5F937E0BB
:1024FC0002204FF4805140F6B8328AF80200387846
:10250C002DF020F92CE0C9480DF10F01006804AA48
:10251C001AF030F901460298C54D814213D29DF84C
:10252C00200010B1FD208DF820000420142204ABF3
:10253C008B4628F08FFE0BEB4B004FF6FE7B0121F8
:10254C0005EB80004172AF48002180F83B1003E09E
:10255C000020AC4981F83B000120012103F03EF939
:10256C0030462AF0B1FECBE6A64991F83E0020B1E8
:10257C00886A0028F4D08047F2E70020002102226C
:10258C000023ADF8100002208DF8180004A82BF0E1
:10259C001BF98CE784F400405DE09C48007801381E
:1025AC00012866D89648017803295AD0012960D1B0
:1025BC004178002022F086FD5BE00120012122F011
:1025CC0081FD46E00021322201708E4880F83610E1
:1025DC008D48042100782DF0B5F83AE084F08000A5
:1025EC0039E00521017096F83810890736D596F830
:1025FC003A1099BB052101600120B070002022F037
:10260C0015FD022029F042FF23E0804800780138B4
:10261C0001280BD80020CDE9040004A816F0D2FD47
:10262C0020B17948022100781EF034FF84F00200BA
:10263C0011E00421017096F83810C90709D096F8FA
:10264C003A10002942D02AF08AFE0420012103F01E
:10265C00C5F884F004000FB0BDE8F08F0520002110
:10266C00F5E78178022904D101218170002023F043
:10267C00ABFA84F48050EEE784F40060EBE723F0CF
:10268C00C7FAD0B15F4F054638780138387000066C
:10269C0016D05D4E4FF48041307825F089F930B971
:1026AC0038692CF047FB10B9287820F05DFB3078A6
:1026BC00402143F698222DF045F85248007810B985
:1026CC000B202CF02FFB84F04000C4E74F49097815
:1026DC0001390129BDD8032101600120B07001200E
:1026EC0022F0A4FC01208DE7464EDFF81C91DFF8A8
:1026FC0020A100250DF11008002006F1080702901A
:10270C003F6857B3D7F804B09BF800000028F7D007
:10271C00F028F5D803210022434624F0A3FF00281B
:10272C00EED006980188A1B94FF4407086F8365067
:10273C002CF099FE99F800000AA92CF054FFDAF855
:10274C00001086F836500029DAD09BF80000884734
:10275C00D6E7013901800120D1E7029999F80000F0
:10276C00C9070BD04FF400514FF47A722CF0EAFFEA
:10277C0008E013F0CFFA84F480406CE74FF400517A
:10278C0020F0D6FE84F4005065E7F068406840788D
:10279C00C0070CD10E202CF0C5FA08E040F209302D
:1027AC002CF061FE184800780AA92CF01CFFF06888
:1027BC0040684078C1073FF44CAF17490968C1B174
:1027CC00287820F0D1FA10B10E202CF0ABFA0E4D77
:1027DC000C20402143F69822307028782CF0B2FF60
:1027EC0040F20A302CF03FFE28780AA92CF0FBFEB0
:1027FC002FE780073FF52DAF0E202CF093FA28E73A
:10280C00A4790020B40E00204F7A00201C14002064
:10281C0070150020B5150020681100203C15030030
:10282C007C150020CE150020306900209C63002010
:10283C00047500202DE9F04F9DB00446DFF81C050F
:10284C00406818B18047002800F04782DFF810A5D7
:10285C00DFF810B50E940DF13C099AF80000411EFA
:10286C00002C0C910BF1180418BF01219BF802806D
:10287C00002700258BF80F109BF801100D91C0B2AA
:10288C0087421ED2B84517D0FEB200214A46042317
:10289C0030462CF06FF90F9810F4403F40F00400D4
:1028AC00C0B218BF01357C2806D130460621F8226B
:1028BC002AF064FEF82020709AF800000C340137DE
:1028CC00DDE7E9B201380022884204D19BF805000B
:1028DC00002800F03F82CDF82C80DDF83880DFF83E
:1028EC007C94B8F1000F404608BF1020069015AE3E
:1028FC0000200290DDE90C740025380400F0EF8113
:10290C009BF80F0010B901208BF80F00E0B20021EA
:10291C000FAA04232CF02EF90F98B8F1000F19D040
:10292C0010F4403F18D04FF400609AF800100135B5
:10293C00013FABF810009BF80F0001388BF80F002B
:10294C00012050FA84F0B0FBF1F202FB11048BF879
:10295C000D40D2E7002501E0CDE90C74C0B270281F
:10296C0004D00D987021C0B226F088FC05950B9D03
:10297C0000210FAA0423ECB220462CF0FBF89DF8A2
:10298C003C00FE2803D02046FE2126F077FC204692
:10299C000621FE222AF0F2FD4FF400600D9F0BF190
:1029AC0016018BF80C50ABF810000020ABF814009B
:1029BC00FF208BF80D708BF80E00F8B2400050FA27
:1029CC0087F001EB8000B0F806A0600050FA85F0AB
:1029DC0001EB8005FE20ABF812A0294601F8020F8E
:1029EC00E14804914FF400612CF026FE0020DC49F4
:1029FC003B46099489F800009BF80F00097850FABF
:102A0C0087F0013890FBF1F202FB1100019035F8D0
:102A1C00060F03955FFA83FB0A900D93A34500F014
:102A2C005681ABEB0400B0FA80F04009089000200E
:102A3C0007900020C00740F097801FFA8AF4162CEC
:102A4C0074D999F80000002840F04781AAF10707D3
:102A5C00584610AAB9B21AF035FFBDF84E5005F120
:102A6C001000A0423FD89DF84A0096283BD1A7EB16
:102A7C0005099DF8492029465B461FFA89F840460E
:102A8C001EF0D8FC78BB9DF84B00C10701D1800724
:102A9C0006D40020CA46DDF83880DFF8C092C9E7BA
:102AAC00E81D83B20A9813FA80F4B4F5006F01D9CB
:102ABC000120F0E7AC4980B2081A4146C01A00F573
:102ACC00006258462CF056F807980130B4F5006FA8
:102ADC00079004D101204FF400610A91DAE700203D
:102AEC00CA460A94D7E7AAF1010ADDF83880DFF864
:102AFC006C925446A0B216283BD93628A4F1160580
:102B0C005846324688BF2025641BABB2A1B22CF0CC
:102B1C0031F82804EED016FA85F010F8010C96283E
:102B2C0001D0013DF5E705EB040A82E7079810B1E7
:102B3C008C492CF0C4F90198C0B2834500F0CB80CD
:102B4C000D99012050FA81F085490978B0FBF1F21A
:102B5C0002FB1103834903EB430001EB8000B0F847
:102B6C001CA0DDE9094055E7079810B17D492CF010
:102B7C00A6F9002008900D980B9099F800000028F9
:102B8C0040F0AB800A9B7849C3F5006011FA80F2E3
:102B9C00A3F11000102183B2099825F055FC99F887
:102BAC000010084389F80000089890B16C48007830
:102BBC000BEB0001013991FBF0F202FB1011C8B2D2
:102BCC000B91400050FA81F0664901EB8000B0F89F
:102BDC001CA0DFF890B10B980A99099C01238BF883
:102BEC000E000398ABF81010BBF91220ABF814A030
:102BFC0001809BF80D10204628F02AF8BBF9142010
:102C0C009BF80E102046022328F022F8BBF8100087
:102C1C00B8F1000FC0F5006007D00699DFF840A1AD
:102C2C008842A4BF0121029101E0DFF834A106998A
:102C3C0088424FF07C01B8BF7821099C204626F0D1
:102C4C001DFB0FF001FE07469BF80F000621FC222E
:102C5C00C01B8BF80F0020462AF090FC0499FC2036
:102C6C009BF80E30087005989BF802100D9317FA1C
:102C7C0080F001449AF80000B1FBF0F202FB101155
:102C8C008BF802100B910131CAB2B2FBF0F202FBCD
:102C9C0010118BF8011003EB43010BEB8101898BB5
:102CAC00102906D10D990131B1FBF0F202FB101085
:102CBC000D900C98C01BB8F1000F0C903FF41AAE9D
:102CCC00029880F00100C0077FF414AE07E00120E9
:102CDC00A346089051E701984EE700223AE07C2089
:102CEC0026F0E6FA0446FF281DD17E2026F0E0FAF5
:102CFC000446FF2817D19BF8014004EB44000BEB72
:102D0C008000807DFF280AD09AF800009BF8021002
:102D1C000144013991FBF0F202FB101403E0204650
:102D2C007E2126F0ABFAE0B2FE218BF80340400086
:102D3C0050FA84F00BEB8000808BABF806009BF80C
:102D4C00020026F09BFA00208BF80500BBF810005F
:102D5C00C0F5006210B21DB0BDE8F08FA0100020CD
:102D6C00477A00203E6D0020C04500202DE9F04F31
:102D7C0095B0DFF8F0640546DFF8ECB43078032842
:102D8C008BF8000040F03C81002030708BF8000084
:102D9C000CAC20462CF033FD204600212AF056FEC8
:102DAC00DFF8C8A4CBF80800522150462CF044FCA4
:102DBC004FF0FF30AAF81400CAF81000CAF80C0043
:102DCC0027F05CFF0020294622F096FD0BF1100144
:102DDC00CBF80C002CF092FCDBE90502DFF89054E8
:102DEC00B0FBF2F1C9B2052928BF0521B2F5006F7D
:102DFC008AF80010297040F00181B0EBC12FC0F0AF
:102E0C00FD80DBF80C00002800F0F8804FF4006027
:102E1C00DFF868644FF00009FF22AAF80600FF20D3
:102E2C008AF803208AF8059004900020079000206F
:102E3C000A900020089000200690002005900020A9
:102E4C00099000200B90FF200190FF200390FF20A1
:102E5C000290CCB2A14580F0D6805FFA89F70021B0
:102E6C000DAA042338462BF085FEDFF80C443846B7
:102E7C00002114AAA0473846012113AAA0473846BE
:102E8C00022112AAA0470D996FF06F0050FA81F23F
:102E9C00C8B20E2A06D8012303FA02F245F2011336
:102EAC001A4203D1A0F1FE02022A04D242F283524A
:102EBC00B2EB914F1DD0384617F00AFE00288BF864
:102ECC00000040F0DD80384600210DAA04232BF0D1
:102EDC0051FEDFF8A4433846002114AAA047384617
:102EEC00012113AAA0473846022112AAA0470D9926
:102EFC00C8B209EB49020AEB8204C1F30142090A88
:102F0C00E1759DF8521004F11608FD28627688F8D8
:102F1C000000217601D910212FE0BDF850104FF69A
:102F2C00FF72914229D13846002132464FF400639A
:102F3C00DA464FF4006B2BF01DFE6FF0030313FA0F
:102F4C008BFB1FFA8BF031584A1C01D10328F6D8A1
:102F5C0001220123D7B2042F06D8CFB2FF2F18BFFE
:102F6C0013460132090AF5E731505BFA83F0D34678
:102F7C00DFF8F8A281B298F80000A1839DF84E10FA
:102F8C007028A176BDF84C10E1839DF84A10E176CB
:102F9C00BDF8481021840FD0782811D07C2813D08C
:102FAC007E2817D0FE281CD0FF2820D10798CDF8FA
:102FBC000890013007901DE009980130099019E044
:102FCC0005980130059015E00698CDF80C9001306D
:102FDC0006900FE00898013008901FFA89F00190D4
:102FEC0008E00A98CDF8109001300A9002E00B9896
:102FFC0001300B90297809F101092AE70120307082
:10300C0015B0BDE8F08F0B9800060BD10A98C0B232
:10301C00012807D80998C0B2012803D80898C0B273
:10302C00012811D99348042200240270CAB2E0B2DC
:10303C00904210D217F04CFD9BF80010013408435D
:10304C0029788BF80000F1E7079BD8B2A0421AD17F
:10305C0088480022027000208AF803008AF80100D8
:10306C00481E7E218AF80200BAF81C00AAF8060055
:10307C00002026F003F99AF80200FE2126F0FEF853
:10308C009BF80000BCE70998000625D00A98049A22
:10309C00000603D1029A180600F0848075480221BC
:1030AC000126D5B28AF80220017016FA82F0B0FB24
:1030BC00F4F101FB14008AF80100284617F008FD12
:1030CC008BF800002846FE2126F0D8F88AF8056017
:1030DC000020FFF7AFFBD3E70A98049A000621D033
:1030EC00644801218AF80220017011FA82F0039AD7
:1030FC00B0FBF4F101FB140091B2FF298AF8010036
:10310C001FD10199FF2919BF8AF8031001EB410067
:10311C008AF8030000EB40000AEB8000808BAAF8D1
:10312C000600ADE7DDE90520104300063FF47AAF59
:10313C0027F078FDA04280F084804E480321017076
:10314C003DE048008AF8032010FA82F00AEB800078
:10315C00818B1829AAF8061092D30739D0B20DAA80
:10316C0089B21AF0AFFB9DF83F004007B0D53F493C
:10317C00BDF84220002300930323C878C988891A1C
:10318C000DAA073989B208F091FD00287FF478AFB9
:10319C00BDF8401000293FF473AF9DF8440021F0B6
:1031AC0031FD6DE727F03EFD0621A042314838BFC6
:1031BC0003210329017002D0062952D060E727F0C1
:1031CC0031FD04468AF80C0000EB40000AEB80004D
:1031DC00408BAAF80D000FF037FB29782044B0FB88
:1031EC00F1F202FB11008AF802000130C2B2B2FB0C
:1031FC00F1F202FB11008AF801007C2026F058F84D
:10320C00FF2812D17E2026F053F8FF280DD1FF2085
:10321C0026F04EF8FF2808D1782026F049F8014610
:10322C009AF80100FF2918BF0846C1B28AF80300BA
:10323C00490051FA80F00AEB8000808BAAF8060056
:10324C0019E70798000609D0DFF820A0FE219AF8AC
:10325C00020026F013F82C78029A41E70548062163
:10326C000170FEE7B0150020A01000203E6D00207C
:10327C00477A0020517A002069EE0200C0450020F8
:10328C002DE9F04F87B025F097FCDFF89C148122D4
:10329C00DFF8A074DFF8A054DFF8A4640A70DFF83C
:1032AC008C140860DFF88804FF2101700020DFF81F
:1032BC00981438802870DFF88404C989007830703D
:1032CC00DFF88004006890F808804FF6FE704044E8
:1032DC0080B2884200F24A81DFF870B406F1100027
:1032EC000422DBF8001008312BF08CFCF07CDFF8AA
:1032FC006094DFF86034B47C717C89F80000388805
:10330C001B7841EA0422C4F3011AB28004303880DD
:10331C001BB9BAF1020F00F02981BAF1030F00F0CA
:10332C00258101F0070413B1002C00F01F81DFF898
:10333C0028E4042C9EF8001008BF002900F0168128
:10334C003BB1DFF818341B78862B02D1022C40F0ED
:10335C000D81930410D402F00702022A08BF002941
:10336C001BD0DFF8F8030078862805D100207446BE
:10337C0025F05AFC2178A646307800284CD000293C
:10338C004AD1012800F0F28003283FD0022843D113
:10339C00B088400740F0EA803EE0DFF8D01391F8A7
:1033AC008310022900F08180DBF80010012211FA51
:1033BC0080F000F1080102A82BF024FC38880130C1
:1033CC0038802BF031FE0446DFF890030078862815
:1033DC0068D1DFF8A453286808B92CF0DDF99DF901
:1033EC000800002100272CF0A3FA296848779DF8E3
:1033FC0008008F77C87720462CF06EF9B18899F8C1
:10340C00000001F0100120F0B1FB4EE0B08800F09C
:10341C000700032840F0AA80B088010700F1A680BD
:10342C00810402D4810500F1A180B27CC2F3810435
:10343C00012C00F09B809309012B00F09780BAF1CE
:10344C00010F0FD840F0020101F00701032909D147
:10345C0014B93F2A40F28A8024B9C149097800295D
:10346C0000F084804FF6FB71BAF1020F019308EB68
:10347C00010C1DD1DFF8F082019B18F8041018F82C
:10348C00033003EB010A0023402AB4FA84F238BF5C
:10349C00012352091A4043061AD4002A08BF0AF124
:1034AC00020A19E020462CF017F92AF0B3FA5FE073
:1034BC00DFF8B082019B402A18F8041018F803308A
:1034CC0003EB010A08D3420648BFAAF1020A03E043
:1034DC00002A18BF4FF0020AC0F300205FFA8AF1ED
:1034EC001FFA8CF30A1A70709A423FDC6044F04663
:1034FC000091401AF080703080B22AF0FFF9F06031
:10350C00A0B370212CF098F80020B07098F800004F
:10351C0018B9307900F020002870707829784FF0B5
:10352C000008254691B300284FF000002FD1B08839
:10353C0000F00701032906D00020012927D18B496F
:10354C0091F8821019B38A48007818B12AF0D8FF84
:10355C00FE2807D025F0F8FA20B929F067FD0028DD
:10356C0000F0E0800120B070254610E02BF044F90B
:10357C002BF05AFD754900240A6813681C711268F7
:10358C000A602CF0A9F807B0BDE8F08F0020F168B4
:10359C0001F1700281F836504A604A657278B4883D
:1035AC00F388002A8C81019C0B8181F82C4099F8BE
:1035BC00004008BFA046A1F85830737CFF2581F865
:1035CC004580B47C8D7303F0780360F38203C4F3FD
:1035DC000110184408743888801A5FEA0A61388030
:1035EC0000F09880009ADBF8001011FA80F032811C
:1035FC0002AD00F1080128462BF004FB3089398814
:10360C000844F1683880B07C0A7CC0F38104C0F3B4
:10361C00011902F0400894B3B9F1020F06D1B8F1C8
:10362C00000F03D0B1F8402002AD05E0BDF8082032
:10363C000235A1F84020CA874E4FFB899A4203D02D
:10364C004FF6FF739A4268D1032C0ED101F12E0074
:10365C0029462CF0C8F8F068F91C2E3029F07FF9B7
:10366C0000285AD0B07C083509E035F8022BCA8501
:10367C00B9898A4203D04FF6FF718A424DD1402856
:10368C0019D3B9F1020F04D154EA080108D1F16839
:10369C0003E0F1680A7C520602D42A880235CA87F4
:1036AC00C02805D3F068294624302CF09CF802E0A1
:1036BC002888F16888842A49B088097800F00700C6
:1036CC0089B1B9F1010F0ED8012802D12CB101201A
:1036DC000BE0032808BF002C05D12649F268C989E4
:1036EC00D28F8A4219D1032805D0012812D11F4844
:1036FC0090F8820070B1F06820F086FE50B900207E
:10370C00F17CB070B07CC1F3011100F0780008447A
:10371C00F168087406F0BCFE2AE72BF0A2F91DF044
:10372C0077FB25E7B0781FE75B7A0020E47900206F
:10373C00607A0020387A00205E7A00205D7A0020C2
:10374C007C120020187A00208C1300207C79002039
:10375C006D7A00203C0B00206C7A0020637A0020EC
:10376C00587A0020B8140300B41403002C6700200E
:10377C00C5150020A0780020501500202DE9F84335
:10378C0005460C46480413D4A00024D4A0075CD4EE
:10379C0060057ED4200500F10481200700F13781FB
:1037AC00600040F1F4801DF03FF924F08044EEE01D
:1037BC002BF03AFCDFF810140F6D3FB1D7E90A1269
:1037CC0002F0E04201F00A01891849D02BF084FF85
:1037DC0024F48044DBE0B948DFF8F073016841F071
:1037EC0080010160B878012804D1042025F0C8FDBF
:1037FC000020B8702BF018FC064604202CF056F86C
:10380C00DFF8CC130A68904219D12A7EBAB1FA6853
:10381C00AAB1DFF8B403806C002800F09580C16871
:10382C0040F603020988914206D0C06840F60401B4
:10383C000088884240F0888005F1140086E040F64C
:10384C00C4120860C5E9042282E00AF009FFDFF81F
:10385C007803006C002840F09B8024F0020496E072
:10386C00D7E90A65D7E90A12AA43B143C7E90A1294
:10387C002BF032FFB8680028AAD056EA0500A7D072
:10388C00D7F808C03869B7F9301032462B46E047F4
:10389C009EE72BF0C9FB054628F032FD002800F00E
:1038AC00B380C948876B002F00F0AE80DFF81C8313
:1038BC000420C849002288F81800C3482AF01DFDCE
:1038CC002BF03AFFC4482BF0FBFE2AF037FEC8F869
:1038DC0010000125042088F8025026F007FC3869F6
:1038EC0090F82810C8F80400490703D5436A04214E
:1038FC000022984701201FF003F9D8F80400457600
:10390C0015F04EFFD8F8040081680B461A465B6828
:10391C004BB11E88A6F60306072EF7D805FA06F655
:10392C0016F0830FF2D0537B03F0F0030133537383
:10393C000023FD6853602D88A5F60305012D00F2C8
:10394C008880C8F810309DE005F1100024F04EF886
:10395C0030462BF0C1FE26F0E1FB78B12E6A2846EA
:10396C006FF4807100224FF00073B0479648806B63
:10397C0010B11DF059F801E044F00204EE6928463C
:10398C00002100224FF08063B04724F0005434B182
:10399C00944821462830BDE8F8432BF0A1BFBDE880
:1039AC00F8838A4EB078012804D1042025F0E8FC75
:1039BC000020B07026F0B2FB38B170686FF48071E3
:1039CC0000224FF00073056AA847306940B12AF015
:1039DC00B5FD32697168801A000BC8600020306137
:1039EC00794D7F49002228462AF087FC0220307648
:1039FC00286C20B17B48022128302BF071FF1DF080
:103A0C0013F824F40064C2E72BF096FE41E02BF08F
:103A1C000BFB054628F074FCA0B1DFF8B08198F8D8
:103A2C00000000070ED498F9000000280AD468465C
:103A3C0016F096F908B1009820B1DFF8AC9199F81E
:103A4C00610048B32BF078FE1CF0EEFF24F0080464
:103A5C009DE7034633F8385FA5B190F8445090F8D1
:103A6C00456005F0F00580F8445006F0F00501358E
:103A7C0080F8455000255360C5634587507B00F0A6
:103A8C00F000507355480022C2610160012029F0FA
:103A9C007DF924F480647AE700260127602E0FD08C
:103AAC0009EB0600817A31B18772407A07FA00F08F
:103ABC00C0B225F07FFC2036F0E700BFCC210840D7
:103ACC00032088F8180044482BF0FAFD2BF034FE44
:103ADC00424F3D4D0022786900207861F968F8600A
:103AEC00284642492AF009FC2AF028FDD8F80C1087
:103AFC00D8F82020411A02EB1130B0EB113F38BF3F
:103B0C004FF0FF3098F82410C8F8200021B1D8F8F5
:103B1C000810B0EBC12F20D929F048F9B8B140F604
:103B2C000900414621F83C0F002048804A7B02F0F6
:103B3C00F00201324A730A7B02F0F0020A73486009
:103B4C00F8613960B8F83E0010F4406FFAD00020EC
:103B5C00C8F82000012088F8240021F0A9FE244890
:103B6C00002101600220002129F010F9022025F02B
:103B7C0007FC102013F0BAFC98F8010020B9D8F813
:103B8C00040050302BF0A8FE1A48807810B90D2094
:103B9C0013F0ACFC98F8250028B1002088F825001B
:103BAC00052025F0EDFB002088F818001248C8F815
:103BBC001C000220B5F85610B5F85420914208BFED
:103BCC0007201CF073F83FE7080E0020A80B00201C
:103BDC00C8140020E9C202009C70002000100440B0
:103BEC0079350100480D0020A8690020990A0200CF
:103BFC0000000460D41303007D3001002DE9F04F68
:103C0C00AFB004460020ADF8280094F82400012839
:103C1C0009D1DFF8300494F82810807831B10028ED
:103C2C0000F0FA8102E0DFF81C04807848B9207DAE
:103C3C0000F0FE00022804D12FB0BDE8F04F1CF0BC
:103C4C0043B9DFF800743878012806D1DFF8F8039F
:103C5C003979007E814240F0CE80DFF8F8534FF482
:103C6C00FA60E06028682BF054F918B1E168084458
:103C7C00E06007E0E16828682BF0D9FCDFF8D80396
:103C8C002BF03AFE94F825008DF86C0048B1022810
:103C9C0009D11BA804F11801082204302BF0B2F84A
:103CAC0001E0E06A1C900DF12B051BA80AAA29461D
:103CBC001AF0C8FB0646D0B99DF8381094F82600C7
:103CCC0001F0030181420DD105F10E0004F1340124
:103CDC0004222BF097F8BDF82810022041222B4625
:103CEC0020F094F89DF86A0008B1DC490870B878A7
:103CFC00B8B3012840F0908194F83800E3280DD136
:103D0C00B86818B18047002800F08681F86818B1AF
:103D1C008047002800F0808194F83800E22804D114
:103D2C0094F82800002840F077810020002E18BF5E
:103D3C0005460021282295F80D801EAE30462AF04B
:103D4C007EFE01A8002103222AF079FE94F83800A7
:103D5C00E32840F0C0809DF8041041F00802E320F5
:103D6C00E9E0207D042800F25781012101FA00F0DE
:103D7C0010F0130F00F0508101A8002124224FF005
:103D8C0000082AF05CFE1EAF04F1180B04F12C099C
:103D9C000026BD1C07F1060AB8F1040F45D85FFADE
:103DAC0088F0394625F02FFF06460D2820D00A2E24
:103DBC0000F08C8094F825009DF87810414049075C
:103DCC0001D0022614E048B948465146042229F095
:103DDC00D7FE002840F02F8194F82500022807D147
:103DEC0058462946082229F0CBFE002840F01781BE
:103DFC0008F10108D0E794F83800E32840F00C8172
:103E0C0092482BF077FD00283FF427AF8F4C2046CB
:103E1C002BF074FD8E48C82100682BF008FC20465E
:103E2C002FB0BDE8F04F2BF067BD002E4ED1002017
:103E3C00616B9DF885509DF878209DF8793006913E
:103E4C0094F83810C5F382068DF81C1094F82910DC
:103E5C00002918BF083606F15001182606EAD202CE
:103E6C00104403F0010240EA4210BDF8042040EA7D
:103E7C008510C0B2104340EA0120ADF8040094F85C
:103E8C00400058B18DF81D002BF070FD089028B142
:103E9C0094F8402004F141012AF0B4FF6A48C08A2A
:103EAC00ADF8240094F9150010F16D0F0146D8BF40
:103EBC006FF06C012AF0FCFFC8BF3B21A07D0028ED
:103ECC0018BF012041EAC0108DF82600E17D01A841
:103EDC0001F06EFFA0E094F8251011F0070119D045
:103EEC00022920D106F1080004F1180108222AF059
:103EFC0089FF94F8301094F8380002228DF888105D
:103F0C009DF80410E32862F302018DF804103FF4CD
:103F1C0024AF0AE0E16A1F919DF8041021F007011B
:103F2C008DF8041001E09DF8041094F8292021F07C
:103F3C00080141EAC2029DF80510022302F00F02AB
:103F4C0063F3051194F82630022B16D394F82760EE
:103F5C00012E17D0D6B94FEA980606F00706042EA4
:103F6C006DD8012707FA06F616F0160F67D0C8F3BE
:103F7C00820621F01701314408E0002B08BF21F024
:103F8C00170103E041F0040121F0130163F3051262
:103F9C00237D032B03D1E36B41F0080127938DF8AC
:103FAC009000606B239001F00700C9B242EA8010C8
:103FBC00C1F3C00240EA4220C1F30012C1F3401128
:103FCC0040EA822040EAC120ADF8780094F8400025
:103FDC0020B18DF8910004F1410025901A482B4630
:103FEC00C08AADF8980094F9150010F16D0F0146D8
:103FFC00D8BF6FF06C012AF05BFFC8BF3B21A07DDE
:10400C00002818BF012041EAC010E17D8DF89A000C
:10401C001EA81BAA09F084FE2FB0BDE8F08F01A8E2
:10402C005946082208302AF0EDFE94F830008DF83D
:10403C0014000220FCE6D9F800000290F7E601F02B
:10404C00E801A3E75412002030690020AC71002075
:10405C00CC790020C879002068710020051400205C
:10406C002DE9FE4F8846080426D45FEAC87004BFC9
:10407C000020BDE8FE8FE54805682BF0E1FB044607
:10408C002BF0DCFB60434FF47A714FF6FF72B0FB00
:10409C00F1F14FF6FF70002D00F01A812B886C881F
:1040AC00CB1A9BB29C4240F21C81E31A94B2A342FD
:1040BC00B8BF1A46ED68EEE7DFF840A3CDF80480F0
:1040CC009AF800001DF0A6FF002800F0FC800646C0
:1040DC000078012840F0EC80DAF8041096F8339060
:1040EC00D6F814B096F8138021B1484688470028BA
:1040FC0040F0DE80718896F83100022227F06AFBCE
:10410C000546002842D0287A297CA0F10108FF2915
:10411C0000F0BB80707F4F46C00718BF0027E97CBA
:10412C00287D0144B94204D8E974FF2101FA00F05A
:10413C006874A969A87C96F83020896A10FB07106E
:10414C00F16A2AF05FFD287D697CB7FBF0F202FB77
:10415C00107001228240D2B20A436A74C8457CD1E5
:10416C0096F83010AB7C13FB0713A9698B844FF4C2
:10417C00FF7303FA00F0C0B21043FF2868746CD1CF
:10418C00287C1EF091FCFF2028747FE0707FC00714
:10419C0000F08E80B07F2AF0BDFD002800F08880F2
:1041AC0004461C202BF080FB002800F081801C2191
:1041BC0005462BF041FAB07F02A928F08CFB9DF844
:1041CC00090002212875284628F030FC708896F8E2
:1041DC00312096F8301096F83330A880287DEA719B
:1041EC00FF2202FA00F0687460680078A9742874E1
:1041FC00302013FB010080B228F03AF80028A861A7
:10420C005DD004461A20B11C2060708CA080A01DCB
:10421C0029F012FBF27F04F13000B17F96F82830C0
:10422C00C4F81CB084F81980A062307CE273744A24
:10423C00217563750121A075928C2282F28EA28564
:10424C00F28C6282B6F81100A4F817009AF80000FC
:10425C0085F808901DF01EF955E72BF0F1FA04468D
:10426C002BF0ECFA60434FF47A71B0FBF1F0654936
:10427C00288063480978007948436421484362499F
:10428C00097800FB0100688000E04F46E87C297D3E
:10429C006A7C01440139B94218BFFF2A0CD186F857
:1042AC003300708806F11C0186F834201AF06DFA80
:1042BC00304629F009F803E7C845F9D1EFE728465D
:1042CC0028F0C4FBF4E7019880F40040BDE8FE8FB1
:1042DC0092B282424BD04948012100782BF032FA3D
:1042EC0045E0A879022806D1287CFF2837D0A86998
:1042FC0028F0EAFF33E02BF0A3FA04462BF09EFAE9
:10430C0060434FF47A71B0FBF1F03F49288095F887
:10431C003800097888421BD295F83620FF2A06D13E
:10432C0095F83720013085F8380085F8362095F857
:10433C00351095F8394082F0FF0300200126C7B2F2
:10434C00A7421DD206FA07F71F4214D10130F6E737
:10435C00EA8BA87E95F82A10E92323F055FC284611
:10436C0028F074FB2548012100781DF093F888F0A3
:10437C000100BDE8FE8FFBB201441A4385F83620DC
:10438C00AB8F95F83440C8B204FB10339EB2A642F2
:10439C0003D2FF2285F8362002E0FF2A08D12346FB
:1043AC00184A174E1278367972436426724302E02B
:1043BC0095F83A2023466A802A8D0E0606D022F004
:1043CC00200244432A852A6C224404E042F0200156
:1043DC002A6C2985297A85F82E10E9796A6285F884
:1043EC002D10D9B269840549496811B18847002854
:1043FC00B8D105F1100005F095FDB3E73814002095
:10440C0030690020D9150020DF150020B45400209D
:10441C002DE9F04FC3B00DF1450B8846014691468E
:10442C0058462BF0DAF908F0080500260DF1040ABD
:10443C00042E39D8F4B25146204625F0E4FB0D2861
:10444C0003D007460A2801D17DE17DBB20465946A1
:10445C001DF06AFE01360028EAD0002D51D10BF177
:10446C0037010DF1860002222AF0CCFCBDF8860043
:10447C009DF83A10ADF8C800C80700F083800AF127
:10448C00370732A90222384629F07AFB9DF83A10F8
:10449C00012877D101F0FE00FF2104228DF83A00AB
:1044AC0038462AF0CCFA6FE001274CE10220214675
:1044BC0041225B461FF0AAFC0746B4480BF10B01E6
:1044CC002AF01EFE68B90BF1370120462BF01CF9BF
:1044DC0038B90BF13B0120462BF016F9002800F0FF
:1044EC0032810C202BF042FA002800F019812AF0BE
:1044FC00C4FFB9F1000F18BF4FF0010984F80A90FE
:10450C0005E19DF84500400661D49DF84600C007C2
:10451C0000F0A48032AF0DF1450138462BF05DF967
:10452C000DF1860901A948462BF057F99DF8BC00FE
:10453C00810700F1288110F001054FF03B0007F1D5
:10454C00370108BF3720042248442AF05BFC0220C4
:10455C00002D08BF01209DF8BC10084349468DF87A
:10456C00BC0001A82BF039F908F060009DF805108B
:10457C004038B0FA80F001F0FE01400908448DF893
:10458C0005006BE0880733D44FF0FF300BF12206A7
:10459C002AF030FB3846314629F0F2FA0AF12C05A4
:1045AC00E0B3384629460A222AF02CFC32AE2846C3
:1045BC000A2231462AF026FC304639462BF0B6F852
:1045CC00002800F0B98001A82AF003FAB4E04FF0FB
:1045DC00FF302AF00FFB32A8394629F0D1FA0BF143
:1045EC00220930B3384649460A222AF00BFC27E050
:1045FC000AF13B0632A90222304629F0C1FA9DF895
:10460C003A10012840F08E8001F0FD00FF210422B9
:10461C008DF83A0030462AF012FA8DE028463146E1
:10462C002BF084F8002800F0928032A928460A2248
:10463C0080E0384649462BF079F8002800F0958048
:10464C0008F060019DF804006039B1FA81F100F0C6
:10465C00BF00490940EA81108DF804009DF846001E
:10466C00810608D50AF10B000BF10B0102222AF08E
:10467C00C9FB9DF84600400613D59DF805000BF1CB
:10468C000D01012240F040008DF805000AF10D00EB
:10469C002AF0B8FB0AF112000BF1120110222AF0D9
:1046AC00B1FB9DF84500800605D59DF8040040F04F
:1046BC0020008DF804000AF10E000BF10E0104220B
:1046CC002AF0A0FBBDF88400214641225346ADF8E8
:1046DC00430002201FF09AFB07462C480AF10B01FD
:1046EC002AF00EFD58B90AF1370120462BF00CF8D0
:1046FC0028B90AF13B0120462BF006F818B30C2020
:10470C002BF034F960B12AF0B8FE0120A0722048D9
:10471C00214600782AF01AFF20462AF0B5FF12E055
:10472C00102710E041F00100314604228DF83A00C8
:10473C000AF137002AF066FB01AB02202146412228
:10474C001FF064FB0746384643B0BDE8F08F32A833
:10475C0039462AF0EBFF0128EED132A829462AF07F
:10476C00E5FF01283FF42FAFE6E70AF12C0732A84A
:10477C000A22394629F004FA00287FF433AF384670
:10478C0049462AF0D3FF0C27DDE700BF3069002033
:10479C00527A00202DE9F04F8FB00C46080430D42B
:1047AC00A00448D4A00652D4E00600F10D816006A6
:1047BC0000F11C81200600F11E81E00500F1208132
:1047CC00200500F12281E00400F13581600400F144
:1047DC003C81A00700F15081A00500F15E8120070B
:1047EC0000F16881600500F16B81E0034FF000057A
:1047FC0040F1F8801FF050FCBA48C57084F4803545
:10480C00F0E0B64800781DF005FC88B10178B44A98
:10481C0005460020582808D0135C08308B42F9D18B
:10482C00104450F8041C28468847284628F04CFDB4
:10483C0084F40045D6E021F0C3FA28B10546FDF713
:10484C00CFF8284628F040FD84F40055CAE0A34F69
:10485C002021387823F0ACF8DFF888824FF001097A
:10486C00D8F80810084317D02AF0EAFF05462AF0BA
:10487C00E5FF68434FF47A71B0FBF1F0D8F80810FB
:10488C00401A4FEA500938BF6FF000490025002943
:10489C0064D0B9F1000F61D000200421002227F070
:1048AC0041FA06464FF0060A4FF0FF0B4FF6FF7821
:1048BC0002AD002E4ED0304604210022374627F0A0
:1048CC0031FA06463889B0EB090038BF0020388130
:1048DC000004EED1B87BD0B301280AD17889400707
:1048EC0007D4386887F80DA0B721407B21F020FA57
:1048FC00DFE739682A468DF806B0ADF80480086AFF
:10490C00C97F0EF0ADFF01281BD1B87BB97A8DF8A9
:10491C0038000907788A40F08002ADF8362006D5B9
:10492C0040F4C070ADF83600387B8DF83A007869E9
:10493C0010B1007BADF81800284601A9002203F045
:10494C003BFB387B87F80DA018F07CFEB1E701200B
:10495C007873AEE7DFF88C81604F4D4627F02FFB64
:10496C0000200121002227F0DDF918B13878202130
:10497C001CF090FD002004210022002627F0D2F923
:10498C0060B306890421002227F0CCF928B1B1B21A
:10499C000689B14238BF0E46F4E7A8B2B1B28142E3
:1049AC0017D9D6FA55F0202180B2420038782AF077
:1049BC00C9FE2AF045FF05462AF040FF68434FF434
:1049CC007A71B0FBF1F609E009F056FA84F01005A3
:1049DC0008E0387820211CF05DFD0026C8F808603E
:1049EC0084F0200528460FB0BDE8F08F0DF0B0FF25
:1049FC0084F04005F6E729F0E3F984F08005F1E74F
:104A0C0026F088FF84F48075ECE71EF0E5FD37484E
:104A1C00007801280CD13448007848B14FF47A71F1
:104A2C0000FB01F22D484FF4006100782AF087FE5C
:104A3C0084F40065D6E72B48017819B10021017088
:104A4C001EF0CAFD84F48055CCE72A48006880B17A
:104A5C002749097801290CD180472748006800B103
:104A6C0080471E484FF480414FF47A7200782AF048
:104A7C0066FE84F48045B5E72048007890B102AD1D
:104A8C0028462AF09CFD2AF0DBFA1D490B781D49BB
:104A9C000A7829461DF058FF09E018F049FA84F409
:104AAC0000759FE71848418B01202AF0F1FE84F035
:104ABC00020597E70B48012184F00805817091E706
:104ACC0012480078022808BF1FF0B7FF0E480121DA
:104ADC00808C2AF0CFFE84F4806583E7487A00202E
:104AEC00CC0B0300EC130020E4150020E51500208E
:104AFC00E3150020D4100020E0100020BC1500208D
:104B0C00E8150020E9150020306900201C14002055
:104B1C0070B586B00C46080403D4600433D400206E
:104B2C003EE0C64800781DF075FAB8B3054600782B
:104B3C00A0F1D00106292BD9A0F131010629C0F032
:104B4C008A801A2844D0FD2857D0FE286FD1162011
:104B5C0027F08EFB002800F07E80064602301421E0
:104B6C002AF06AFD932030802A796878A978EB883E
:104B7C00012A33813071317418BF0222B271E97885
:104B8C00A87831754DE024F0ADFB84F4804007E04B
:104B9C000120884010F0750F04D05CE084F40040D4
:104BAC0006B070BD01294BD1A54E6878B178814211
:104BBC0051D006F8020FA34B4FF000700021324683
:104BCC0025F0C4FD16F8010C9F4981F8680042E0FD
:104BDC00302027F04DFB00283DD0302106462AF02E
:104BEC002BFD9220A91D3070A87B0328307169D150
:104BFC00B01D08222AF006F866E00A2027F038FBE0
:104C0C0048B306460020C6F80600C6F802009120FC
:104C1C003080A8786978EA7870713171B271A9889E
:104C2C00318129F01DFA002840F084808AE0284662
:104C3C00FBF7FEF978B1A87829461DF035FFADE7F2
:104C4C00E889A0F50041062913D8DFE801F0087FB8
:104C5C008A0498B0BB00284628F036FB9EE728460D
:104C6C001CF078FC0028F6D06988824B064601209F
:104C7C00B2E048F23601884200F0B58048F22001DB
:104C8C00884200F0B88048F22101884200F0BB80D5
:104C9C0048F22201884200F0BE8048F2340188427A
:104CAC0000F0C1801328D6D100206E460290CDE9C9
:104CBC0000002846314628F05DFD69886E4B4FF0A8
:104CCC0080705AE00888F080D5F80200C6F812000F
:104CDC00E88AA6F81B00E87BB073288A3082688AC1
:104CEC00F082287D3076687D002818BF0120707610
:104CFC00687E002818BF0120B076287E7077E8699E
:104D0C00306295F8200086F82400A88DF08495F880
:104D1C002E0086F82800A88C70852AF0C5FD002886
:104D2C00F06298D0AA8CA96A29F06CFF287D29F032
:104D3C0097F920B1007931461DF0B6FE8BE7F06A89
:104D4C002AF0B0FD304628F0BFFA84E728461CF064
:104D5C0001FC00283FF47FAF6988454B06460220D2
:104D6C003AE06E46122130462AF066FC284631465F
:104D7C0019F0D2F869883D4B042032465AE06E4651
:104D8C00182130462AF058FC2846314629F0FCF808
:104D9C006988354B1020324625F0D8FC039818B1A1
:104DAC002AF080FD002003900598C8B953E72846E7
:104DBC0026F0ABFB00283FF44EAF6988294B064622
:104DCC00202009E0284626F0A0FB00283FF443AF42
:104DDC006988234B06464020324625F0B7FC304606
:104DEC002AF060FD37E7A8696988184B2AF00EFB9A
:104DFC004FF480001EE0A8696988174B2AF006FB67
:104E0C004FF4804016E0A8696988144B2AF0FEFA2A
:104E1C004FF400500EE0A86969880E4B2AF0F6FAA0
:104E2C004FF4004006E0A8696988094B2AF0EEFAB5
:104E3C004FF4801025F08AFC0DE700BF556100206F
:104E4C0078140020AFC9020030690020BBB6020004
:104E5C0091B60200E5B6020067B602003DB602004C
:104E6C00DF25020085250200D5B40100217D01005B
:104E7C00E1190200411A0200095702002DE9F04F16
:104E8C0085B005460868C8B1D5E901790C462AF009
:104E9C00CBF80646D7F8E80003210322112838BFC7
:104EAC000122092838BF0022A068024202D16068A2
:104EBC00024208D0304621742AF00EFC0024204611
:104ECC0005B0BDE8F08FD7F8C0206AB197F8FC2088
:104EDC00002AEFD006212174D7F8C410C7F8C440BB
:104EEC004C6197F800110DE000210522C7E9304410
:104EFC00C7E93411C7E9361197F80011002908BF2A
:104F0C000122227400220129626109D102204FF48E
:104F1C00E02187F8000197F8FF0024F0AFFF6068EC
:104F2C00A4490138884205D8042025F0DFF8062072
:104F3C0025F0DCF8022025F0D9F897F8FC0040B9F0
:104F4C00D9F83C002168814203D297F8000100286F
:104F5C0074D0D9F8000040F2FF118164816A41F4E9
:104F6C00C0718162D5E90148D4E9361009B118B98C
:104F7C0000E028B32AF047FBD9F80000816A41F021
:104F8C000101816230462AF0A7FB97F8FC0008B1BA
:104F9C00012494E707F16C06D7F8EC1030462AF0A0
:104FAC008FFA0028F4D0D7F8C000032101742846EA
:104FBC0016F062F93046002100242AF081FA7EE7CF
:104FCC0098F804002AF04AFCD8F8101029F0EAFDF1
:104FDC00D8F8141029F0E6FD98F8040027F076FDB7
:104FEC0098F804002AF03CFC2AF00DFB0020C4F8D1
:104FFC00E000D4F8C0000068B0F5806F01D92AF049
:10500C0002FB94F802010028B6D1284626F09EFF38
:10501C0094F8FD000028AFD1D8F80000D8E90412AC
:10502C00D0F8183143F00303C0F8183142EA0100FC
:10503C00D4F8CC104968096888629DE797F8FD00A0
:10504C0020B1D7F8EC0001307FF483AF30462AF062
:10505C0043FBD4F808B0D5E90110BBF1000F029066
:10506C0005D0D1F8E800092806D2012002E001F1B0
:10507C00F80B0020019004E00422112838BF022212
:10508C0001926668039136B1D1F8E800092807D27D
:10509C004FF001080AE001F1FA064FF0000805E0B4
:1050AC004FF00408112838BF4FF00208D4F80090D4
:1050BC00284626F04BFF04AD0399CA46B9F1000F00
:1050CC005ED0D1F8E810082914D8029801210068A4
:1050DC00BAF1000F25D0C90723D032782AF0B9F9DC
:1050EC0018BFC0F8402100291CBF46440121AAEB7F
:1050FC00010AEDE70298112900681AD20121BAF1D0
:10510C00000F29D0C90727D032882AF0A2F918BF7E
:10511C00C0F8402100291CBF46440121AAEB010A1A
:10512C00EDE7294629F00EFEDDE903108BF80000AF
:10513C0021E00121BAF1000F16D0C90714D0326852
:10514C002AF087F918BFC0F8402100291CBF46443B
:10515C000121AAEB010AEDE7294629F0F3FDDDE96F
:10516C000310ABF8000006E0294629F0EBFDDDE961
:10517C000310CBF800000198A9F1010983449DE7C5
:10518C00D1F8F00002990968D1F8102102401028DA
:10519C0002D1002AF8D101E0002AF5D0606827F08E
:1051AC0095FAD7F8C0100020C7F8C400C7F8C000A3
:1051BC000874EDE6FEFFFF0F98B0B74D01214FF0DC
:1051CC00010A28602AF0E0F803AF38462AF0E6F925
:1051DC00B24E4FF0000800213A468DF80C8006F1D3
:1051EC001404204628F078FC74602AF0BBF806F111
:1051FC00080921464A4624F08FF83070A848A0F8D8
:10520C000880A0F8008006AF384629F05BFC41F21C
:10521C0088303946079000200FF076FCF0600120B2
:10522C0039460FF071FC30614068007828F0FEF8C8
:10523C0010B930782AF07BF99A4FF06839462AF089
:10524C0036FA306939462AF032FA082005F8040F8C
:10525C0095482946A860307817F030FF05F1100109
:10526C00082020F061FE29F003FB9048904A017859
:10527C00082023F0B9FD8F4908201EF09DFD3078E1
:10528C001FF092FF4FF400608B498DF82AA08DF827
:10529C0024A08DF81CA00DF1180A089006908748E0
:1052AC00CDF826105146CDF82B0030782AF044F971
:1052BC0006AF442138462AF0BFF940F201103946B6
:1052CC00ADF8560030782AF023F97D487D4A0178F4
:1052DC00082024F04BFC30784FF480614FF40072BE
:1052EC004FF48073CDE900214946224616F0C8FEE2
:1052FC008DF81880307806AF39462AF022F9734DB4
:10530C0007F106094FF00A0B20464FF0FF310FF062
:10531C00DFFC0028F8D030781CF07CFE002876D01A
:10532C0007460078922815D0E5282BD0CA282DD016
:10533C00CB2832D0E22834D0E32836D0C5285FD130
:10534C00387900285CD1307851468DF818B02AF0A5
:10535C00F8F855E0D7F81200B97BCDF81A00387977
:10536C008DF82710398AADF82810411E8DF82600CB
:10537C00022903D303281CD00F281FD1F888ADF8BD
:10538C001E001BE0381D2AF05FF939E030785146D9
:10539C008DF818802AF0C1F832E030782AF0C2F883
:1053AC002EE0381D17F01AF92AE0381D23F0F7FD0E
:1053BC0026E0B91D4846082229F024FCD7F816002F
:1053CC00CDF82A00F87E8DF82E00B88BADF82F00A2
:1053DC00B87E8DF83100386A0D9097F824008DF85E
:1053EC003800F88CADF8440097F828008DF846008A
:1053FC00788DADF83C00F86A1090504601F0BEFD77
:10540C00384614F08DFE10B9384627F05DFFB068B1
:10541C00810723D4C1050BD52878012802D11CF0B3
:10542C00F9FB01E015F0A0F8B06820F48070B060D2
:10543C00810505D51AF048FDB06820F40070B06005
:10544C00410505D51EF090FFB06820F48060B06077
:10545C00010744BF20F00800B06055E70020CDE9FB
:10546C00060006A813F0AEFE2AF0E8F94FF47A71A4
:10547C00B1FBF0F04FF4FA61484316F06FF8FF20DF
:10548C00032122F037FE2AF09EF80F48016841F004
:10549C0000410160FEE700BF701000200C100020DE
:1054AC00287900208DC70200B81200206C1503006B
:1054BC0050080300E18F0200FFFF0104030100010B
:1054CC006A150300301503002800095856120020F5
:1054DC0092B0DFF8C892D9F8000010B1002180F822
:1054EC004510483026F0CEFB29F09EFD8046072063
:1054FC0012F0DCF91AF010FC10B1A94829F038FFB1
:10550C001DF056FB01AD284629F0E4FB04270020D2
:10551C0029468DF8047029F0E5FBDFF888A2A24E2D
:10552C00CAF800003068006880473068C1680AAD6E
:10553C002846884730688DF8287029464268002034
:10554C0090479A4C20603068C06980473068816A07
:10555C0006AD2846884730688DF818702946026ACF
:10556C00002090472168924D286019B9914829F084
:10557C00FFFE286810B9904829F0FAFEDAF800000E
:10558C0010B98E4829F0F4FE23F0CAFFD9F80000B8
:10559C004FF0FF3438B1CDE9104410A9082227F0A0
:1055AC00FBFF01281BD1CDE9104408202AF07CF91F
:1055BC00002846D005460026052E04D829F06CFF9D
:1055CC00A8530236F8E74FF6200029460822E88057
:1055DC007B4829F017FB28462AF064F909E0D9F832
:1055EC000010CDE910440029DFD07548082229F0BD
:1055FC0009FB10AA0120082129F07EFE092800D001
:10560C00D8B926F0D2F8800712D4CDE91044CDE9F0
:10561C000E440EAB01200021082229F0E3F860B9FA
:10562C000EA810A9082227F0B7FF002800F0AF80C1
:10563C00634A0120082129F065FE6149E22022F02D
:10564C00A7FA14F0DFFF24202AF02EF95D4E002873
:10565C0030604AD05C4F5D4C07F10C0529F0BFFF60
:10566C0029F00EFE3068056007F1100529F0B7FF30
:10567C0021F09EFE3068456007F1140529F0AFFF5C
:10568C0025F09EFC3068856007F1180529F0A7FF0E
:10569C001DF052FE3068C56007F11C0529F09FFF14
:1056AC0023F01CFD3068056107F1200529F097FFF8
:1056BC0022F0C6FF3068456107F1240529F08FFF01
:1056CC0020F028FF3068856107F1280529F087FF55
:1056DC001EF07EF83068C56107F12C0529F07FFFBC
:1056EC00387012F023F8306805621BF027FC29F0A3
:1056FC0025FC404629F0F0FF1AF0CEFE29F0F9FE09
:10570C00012024F073FE22F061FA3248007802285E
:10571C0008D12F480078012804D14FF40040012112
:10572C0007F0B0FC284D4FF48041287829F0EEFCAE
:10573C00DFF8A4904FF0000868684FF0FF310FF0CD
:10574C00C7FA3068002750F82710096821B9791C6E
:10575C00082F0F46F7D3EFE729F099FE316851F87F
:10576C0027100C68C1F8008029F0F5FF59F82720A4
:10577C00002021469047044629F089FE316851F8F3
:10578C0027100A6822430A6029F0E5FFD4E70C4889
:10579C000EA9082229F036FA4FE700BF6415002045
:1057AC00F00F030090790020101500209479002050
:1057BC00987900204B120300381203008212030068
:1057CC0061790020107A0020600E002025930200E1
:1057DC00FC1500201C1400200C0F03007FB50138B1
:1057EC00062800F2DE800C46DFE800F00428465E56
:1057FC007A8C9900B54800780138012800F2D180E4
:10580C00002C00F0108100200321002422F072FCF7
:10581C00AB4DAC4E0420042132222870307829F094
:10582C0091FF0820002107F02DFC30786C704FF4AC
:10583C00805104B0BDE870401DF07ABE00200025F8
:10584C0029F0A8FAA0480121017004208DF80D0060
:10585C0024B19A48C586072027F0E8FA9848042115
:10586C00322205709748007829F06CFF934890F825
:10587C00371001F0FE0192E09448007801380128BD
:10588C0000F28F808F4804213222007829F05AFFD1
:10589C00002C00F0E280894C894801210170E069FC
:1058AC00E0B323F055F8FAE701208DF80D0054B160
:1058BC0082480021874A80F83610854829F01AFC66
:1058CC00072027F0B3FA7E480021322201707D4870
:1058DC0029F095FE794890F8371001F0FD015EE053
:1058EC0002208DF80D00754854B30021794A80F8D8
:1058FC003610774829F0FEFB0020032122F0FAFB3A
:10590C00072034E06D4C03208DF80D0094F8360020
:10591C0008B90120A0712078002854D07FBD002543
:10592C008DF80D5094B312F01DFC65480D21C82262
:10593C000570624880F83610624829F060FE29E054
:10594C00082180F8361061490978012911D890F89E
:10595C003A0070B900200DF10A018DF80A005220AE
:10596C0022F016F928F094FE24F0D0FA002027F04B
:10597C005DFA5348002132220170524829F03FFE53
:10598C004E4890F8371001F0FB0108E04B4802211B
:10599C0080F83610494890F8371001F0EF0180F884
:1059AC0037104648016A0029B8D090F8360000221A
:1059BC0003238DF80C004348007803A900910A21B9
:1059CC0021F0F3FD7FBD206929F0B4F90028A5D1A1
:1059DC003C4D4FF48041287821F0EAFF00289DD1FE
:1059EC00002604F11000C4E9056626F061FD287854
:1059FC004FF480411DF09CFDA079012806D194F84C
:105A0C0036000B2804BF002084F836002C48A67101
:105A1C000178062946D10021322201702878042110
:105A2C0029F090FE43E0254C0720264D4FF4805181
:105A3C0084F8360001208DF80D0028781DF078FDD3
:105A4C000020002626F0BAF82878022141F288328C
:105A5C0084F8376029F076FEA3E7184C0220002169
:105A6C008DF80B1084F836001548017094F8370047
:105A7C000DF10B0100F0FD0084F8370001208DF8CA
:105A8C000D00522022F084F828F002FE24F03EFA99
:105A9C00002027F0CBF9E06900283FF482AF22F018
:105AAC0057FFF8E7C178062904BF0021C17094F8AC
:105ABC00370000F0F70084F8370072E7B40E0020CE
:105ACC00A47900204F7A0020D71500201C14002048
