:1000000000FC0320B16B02002D5E02002D5E020099
:100010002D5E02002D5E02002D5E02002D5E0200AC
:100020002D5E02002D5E02002D5E02002D5E02009C
:0C0030002D5E02002D5E0200C30E0100D8
:10003C002DE9F04F99B0054680780224532800F240
:10004C00CD85DFE810F054009900A800B800C80076
:10005C00DA00EA000C011B01CB052A013801590119
:10006C00CB05CB05CB05CB05CB05CB05CB05CB0504
:10007C00CB05CB05CB05CB05CB05CB05CB05CB05F4
:10008C00CB05CB05CB0565018A019601A201AD011B
:10009C00BC01D601ED0109023C02CB05CB05CB0519
:1000AC00CB05CB05CB05620278028E02A402BA0204
:1000BC00CF02E0020103CB05CB05CB05CB05CB056D
:1000CC00CB0536034A035E03CB056B037503930321
:1000DC009C03A803B403C303CD03F1030E04330440
:1000EC003B044D045A0466048A0491049404EC1CE9
:1000FC00E97A2A7B002320461FF0E4F98DF81800DA
:10010C0006AB65200021012224F040F8DFF8240B17
:10011C000078012800F2618520462BF041FF002871
:10012C0000F05B8505460079012840F056852BF0E0
:10013C008FFC00274FF400018DF84B008DF8440024
:10014C00000ACDF846108DF84D708DF84A708DF878
:10015C004C008DF8450011AE214606F10A002BF03B
:10016C00A6FF297815223346017069788770417093
:10017C004520FF2100F02FBD2BF048FF6979AA79AB
:10018C000023002427F0D2F88DF8440011AB652031
:10019C00012100F058BC2BF0A3FC2BF00BFE014608
:1001AC0011A802222BF0C0FE8DF8180006AB6520BA
:1001BC00022100F048BC2BF093FC2BF0FBFD014618
:1001CC0011A803222BF0B0FE8DF8180006AB6520A9
:1001DC00032100F038BC2BF083FC2BF0EBFDEA790B
:1001EC00014611A80023002429F058F88DF81800B6
:1001FC0006AB6520042100F026BC2BF071FC2BF023
:10020C00D9FD014611A805222BF08EFE8DF81800A1
:10021C0006AB6520052100F016BC0020DFF83C4A37
:10022C002BF045FBADF83800681DA0478046E81D53
:10023C00A04795F809A0814605F10A07BAF1100FFD
:10024C0000F2B08311AC5546002D00F0AE83384659
:10025C002BF080FF24F8020B013D0237F4E72BF062
:10026C003FFC2BF0A7FD014611A810222BF05CFEE1
:10027C008DF8180006AB65200721E4E32BF030FC69
:10028C002BF098FD014611A811222BF04DFE8DF894
:10029C00180006AB65200821D5E32BF0B7FE6A7B6E
:1002AC00691D0023002425F08BFB8DF8440011AB55
:1002BC0065200A21C7E302208DF820002BF0A6FE52
:1002CC00ADF81800681D2BF045FFEA79064605F1DC
:1002DC0008018DF8442011AF781C2BF09FF906A86B
:1002EC0031463A460023002422F084F98DF8380078
:1002FC000EAB65200B21A6E32BF088FE0021002419
:10030C0024F096FD8DF8440011AB65200C219AE386
:10031C000020DFF848492BF0CAFAADF83800681D08
:10032C00A047814695F80FA005F11000A04795F85D
:10033C0012B0074605F11304BBF10F0F00F247830F
:10034C0011AE5D46002D00F0458320462BF002FFD8
:10035C0026F8020B013D0234F4E72BF0C1FB2BF025
:10036C00ADFA2BF04BF940F0498306A82BF09FFE19
:10037C0049E32BF0B5FB2BF0A1FA2BF03FF940F041
:10038C00508306A82BF093FE50E32BF03FFE2BF08E
:10039C00EEFC8DF8440011AB6520232100F01ABC53
:1003AC00DFF89018C8208DF81800E81C097800298F
:1003BC0000F085832AF077FD8DF81800A7E36879A3
:1003CC00EE1CFE280BD1A879FF2808D12878082824
:1003DC0005D330462BF0BEFE314627F02FFA11A97B
:1003EC0030462AF0DDF9002800F0958305460024FC
:1003FC00A3E3E81C042128F019F8E9792BF0D2FECC
:10040C00DFF84C188DF8440002202AF077FEDFF854
:10041C00441803202AF072FE11AB65202621D9E383
:10042C002BF0EBFD044605F10E002BF093FE297C1E
:10043C006A7C0346E878CDE90012AA1D214627F014
:10044C00F3FCDFF808188DF8440004202AF056FE5F
:10045C0011AB65202721BDE34FF00208E81C8DF895
:10046C004C802BF077FEADF8440068798DF838009D
:10047C00A81D2BF06FFE2E7A044600270935CDE916
:10048C0000570EA811A92246334622F09FFE2BF0EE
:10049C003FFB10D1DFF898078DF84C80CDE9005761
:1004AC0022463346C08AADF844000EA811A922F0AA
:1004BC008DFE8DF8180006AB652028218AE30226F4
:1004CC00E81C8DF84C602BF045FE2BF073FCED799D
:1004DC00044611A8002321462A4629F0CBFF2BF015
:1004EC0017FB0ED1DFF848078DF84C6021462A46E1
:1004FC000023C08AADF8440011A829F0BBFF8DF889
:10050C00180006AB6520292164E32BF0E9FAADF85D
:10051C004400681D042127F089FF6A7AAB7A002415
:10052C000146009411A827F0ABFC8DF8180006AB1F
:10053C006520302187E22BF0D3FA2BF01DFC312201
:10054C0001238DF838000EA8CDE90004DFF8F80679
:10055C0011A922F03BFE8DF8180006AB6520312165
:10056C0071E22BF0BDFA2BF007FC322201238DF83F
:10057C0038000EA8CDE90004DFF8CC0611A922F052
:10058C0025FE8DF8180006AB652032215BE22BF0BE
:10059C00A7FA2BF0F1FB332201238DF838000EA8BB
:1005AC00CDE90004DFF8A00611A922F00FFE8DF8AA
:1005BC00180006AB6520332145E22BF091FAADF81B
:1005CC004400687B0024691D0094C0F3400200F0D5
:1005DC00010311A824F00EFC8DF8180006AB652061
:1005EC00342130E22BF07CFA6A7BADF84400691DB3
:1005FC0011A80023002428F0CFF98DF8180006ABC1
:10060C00652035211FE22C4614F8030B04281ABF71
:10061C00E8782C1D02208DF84C0020462BF09AFD1A
:10062C00DFF820560121E278ADF844000023297050
:10063C00A17811A8002420F085F98DF818002C70F1
:10064C0006AB65203621FEE12BF0E0FCADF8440052
:10065C00687904218DF84C00A81D27F0E7FE0446AC
:10066C00AE7AEF7A05F10C002BF074FDDFF8C08543
:10067C000546214632463B462BF027F911A822F0BD
:10068C0081FD2BF045FA10D10220214632463B4623
:10069C008DF84C00B8F81600ADF844002BF015F9A5
:1006AC0011A822F06FFD8DF8180006AB65203721DC
:1006BC0090E26C782BF0AAFC0146DFF884050078F8
:1006CC0021F072FF8DF8440004F0E000202840F087
:1006DC00848211AB65203E217CE26C782BF096FC79
:1006EC000146DFF85C05007823F0A8F98DF844008A
:1006FC0004F0E000202840F0708211AB65203F210F
:10070C0068E200206C788DF84400DFF8280500784A
:10071C00411E022980F09B8102209CE12BF076FC8B
:10072C002BF025FB8DF8440011AB6520422151E2E2
:10073C00002006908DF84900CDF84500E81C06A96C
:10074C0028F0BEFD8DF84400069850B12BF093F8BC
:10075C0081788DF84710C1788DF8481000798DF8A4
:10076C00490011AB65204321062234E2E81C2AF033
:10077C009AFB8DF8440011AB652044212AE22BF042
:10078C0045FC6979AA790EF0BDF88DF8440011ABDF
:10079C00652045211EE22BF039FC6979AA791BF002
:1007AC00C9FB8DF8440011AB6520462112E2EC78B0
:1007BC002BF023FC0146204623F088FEB0FA80F093
:1007CC00472140098DF8440011ABC9E1E8780024B9
:1007DC008DF8444025F080F911AB6520472132E1BA
:1007EC00E87811AC214628F0A1FD07468DF81800D9
:1007FC0040000130C6B230462BF0B0FC002800F0AF
:10080C00AA810770054600209DF81810814200F05F
:10081C00C18014F8102005EB40035A7004EB400221
:10082C00013052789A70F1E711AC132120462BF06D
:10083C0087FBEE782BF0E1FB0146304628F0FCF804
:10084C00002800F08F810021231D8DF844102BF01F
:10085C0012F8C11C827818468DF847202AF0DEFE6B
:10086C0083E10020EC78CDF85200CDF84E00CDF8A5
:10087C004A00CDF846002BF0C0FBAA79ADF8440035
:10088C000F2A28BF0F228DF8462022B111A8E91D8E
:10089C0003302AF0C3FE11A9204601221EF088F86D
:1008AC008DF8180006AB65204B2193E12AF090F9E6
:1008BC008DF8440011AB65204C218BE1E878297947
:1008CC008DF8441011A9032800F06681022800F06D
:1008DC006981012840F06D81522024F003FB6BE10B
:1008EC002BF094FB69790246A81D1CF03DFA8DF89B
:1008FC00440011AB65204E216CE12BF087FB0146C7
:10090C0068791AF009FF8DF8440011AB65204F216E
:10091C0060E1C74D0822E88A05F13901ADF84400C1
:10092C00C54800788DF84600A88CADF84700688B58
:10093C00ADF8490011ACE01D2AF070FE04F10F0077
:10094C0005F11C0108222AF069FE287E502118228C
:10095C0023468DF85B0065203DE1B6480078002801
:10096C0000F00881122011E121F0ACFD35E10020EE
:10097C008DF84400E87841B2B1F1FF3F06DC10F08D
:10098C007F00AB4918BF012081F8680011AB6520CE
:10099C0053211FE16520492132462B4623F0F6FBFB
:1009AC0028463EE180208DF8430097F800B0BBF15B
:1009BC00100F53D87E1C4FEA4B05002406AFA542FE
:1009CC004ED030192BF0C6FB38530234F7E7802099
:1009DC008DF8430026780F2E58D80597671C7500A4
:1009EC004FF0000806AC454552D007EB08002BF041
:1009FC00B1FB24F8080008F10208F4E708462BF0D4
:100A0C00A9FBADF81800687E06A92AF0FFFD11A914
:100A1C0021201CF033FB8DF838000EAB6520212112
:100A2C0011E008462BF096FBADF81800687E06A97D
:100A3C002AF0ECFD11A922201CF020FB8DF83800C7
:100A4C000EAB65202221012223F0A0FBC6E000287A
:100A5C0040F0B680042009F055F9B4E080200EE097
:100A6C00BAF1100F0DD811A900204A465346CDE912
:100A7C00001BCDE902700EA8414615F0FDFC8DF867
:100A8C0043000DF1430365200621A3E080200FE015
:100A9C00BBF10F0F0ED811A90020CDE9026452460C
:100AAC00CDE900B104900EA8059B494615F08CFCCD
:100ABC008DF843000DF14303652020218AE00EA937
:100ACC0011AD2A4619F058FD04469DF83800F0B1D6
:100ADC00614904EB4400002641F8206001EB8000E2
:100AEC0046609DF95700B0F1FF3F03DC05F11300A0
:100AFC0024F0E2FC11AD142128462BF021FA04203D
:100B0C00214614222B4627F0E1FB8DF8186006AB2A
:100B1C00652024215EE018202BF020FB002800F03B
:100B2C0083800446BDF844000021182223462AF095
:100B3C00CBFB0546002818BFC82519202BF00EFB4F
:100B4C00002867D007460130002D4BD01821FF221A
:100B5C002BF08AF950E0002049218DF8180006ABE3
:100B6C00652037E001208DF8440011AB65204A2147
:100B7C00132230E02BF04AFA044605F10D002BF05D
:100B8C00E9FA0246691D204627F090F98DF84400D9
:100B9C0011AB652051211DE0522024F0A3F9274808
:100BAC00002104E0522024F09DF924480121017019
:100BBC0002E0522029F088FC11AB65204D2109E0A0
:100BCC0001208DF8440004F0E000202805D111AB81
:100BDC0065204021012223F0D9FA0024204619B0C7
:100BEC00BDE8F08F314608222AF018FD07F1090004
:100BFC00214610222AF012FD6520252119223B46A0
:100C0C003D7023F0C3FA384619212BF099F9384678
:100C1C002BF0A2FA002CE0D0204618212BF090F9F2
:100C2C0020462BF099FAD8E7C825FFF7E0BB00BFA8
:100C3C00305D0020F01200209C130020AF14002027
:100C4C00ED6B0020701400205413002075870200F7
:100C5C003B8D0200055C0100704C002061C102005C
:100C6C002DE9F04F99B080466FF00700DFF8DCA853
:100C7C000630ADF852009AF80000022814D1DFF8C3
:100C8C00C808007880B9B8F8080010B1102001210C
:100C9C0001E0302000210AF0A7FC00208DF81C0098
:100CAC0007A9522024F01EF90DF11C0998F8081020
:100CBC00D8F804004A4610F097FEE8B19DF81E6083
:100CCC009DF81F409DF82050BDF826702AF0BAFE02
:100CDC00844211D127F003004FF6F87180B288429C
:100CEC000AD0012D08D8022E06D29AF8000002284C
:100CFC0008D19DF84D0028B1D3201AF098FB19B0FB
:100D0C00BDE8F08FB8F82400ADF84800B8F82E0014
:100D1C00ADF82A009DF82200D0B1D8F804109DF847
:100D2C001D209DF83830012029F042FB08B1CF205E
:100D3C00E3E7DFF81C08C078012809D1B8F82400D3
:100D4C002BF0BAF820B1417901F0E701083141717B
:100D5C009DF8210068B1BDF82610FF2027F06CFE2D
:100D6C009DF82110E0B141F001012C268DF82110E5
:100D7C0017E09DF83900002800F0EB809DF83D103D
:100D8C00FF2902D0002940F02681DFF8C807BDF802
:100D9C002620C18A8A4240F027810120222607E0C2
:100DAC00082601F00300012808BF46F011060120B7
:100DBC009AF800104FF6F877012908D8B207344694
:100DCC0058BF64F07F04002808BF344600E0344666
:100DDC009DF82200DFF87C575FFA84FB30B9E87A83
:100DEC0020B10BF02200222840F080801BF0400044
:100DFC0004901CD0012903D8A87B800700F1D8806F
:100E0C00119801780C2900F2DB80012241F2984301
:100E1C008A401A4200F0D480032902D140780D2870
:100E2C0005D007A823F060FE01283FF468AFA88C1A
:100E3C00B8F8401081420AD198F84220B8F83E1018
:100E4C00B8F8240000230093002307F06DFE9DF8F2
:100E5C002200F8B1B8F83E10B8F8240024F08CF950
:100E6C00002800F08F800646D8F804009DF81D106D
:100E7C00F2780844417B8A421EBF00227260F170F6
:100E8C000130042127F0D2FA71688842FFF437AFA1
:100E9C00013070609AF80000022834D2A87B8007D9
:100EAC007FF52DAF9DF84D004FF6F87660B1BDF88B
:100EBC00280029F019FD002800F00781D8F804005B
:100ECC00417801F0DF0141709DF82E00002800F000
:100EDC00DF80D8F804008179013981718DF82E10EA
:100EEC0004F07F00090640F0D680D3E00BF04200FE
:100EFC0042287FF41CAF1198007800F0FE00062801
:100F0C007FF415AF72E77FF4FAAE95F82600092846
:100F1C0002D004287FF4F3AE5FEA8B6000F19E8070
:100F2C00049800283FF4EBAE11989DF83810007827
:100F3C00042808BF022900F04581072808BF0429AE
:100F4C0000F009810C2840F04D8107A815F0A6FF90
:100F5C00D5E6BDF8260024F03BFB0238DFF8F4158B
:100F6C00B0FA80F0CA8A4109BDF82600904208BF49
:100F7C00023100293FD09DF81E20002A56D001F1E5
:100F8C00400455E09DF84D00B8B3042028F0C0F89B
:100F9C0000283FF4B4AE01464FF4B2700880B8F8A4
:100FAC0024004880DFF8B00500781FF097FBA6E618
:100FBC0011980178A1F10C0212F10C0F3FF62CAF35
:100FCC00E88ABDF8262082427FF496AEBDF8280050
:100FDC0025F09CFF90E6109A9DF83C0022F084FCD2
:100FEC0030B101200026E3E690F826000428F8D161
:100FFC0000260020DCE600241AE095F86C0001289D
:10100C007FF448AF11980078062803D10498002883
:10101C007FF440AFF81DBDF82A1080B281423FF436
:10102C006EAE07A841461FF045FE68E601F12004AC
:10103C0024F0CEFA0138B0FA80F0400944EA0006F8
:10104C009DF81E0000283FF4B2AE1198007829F0EC
:10105C009FFC012818BF04F07E06A8E698F8420011
:10106C002AF0E6FB9DF82E00012840F0B480B8F879
:10107C002400BDF82810814240F0AD80BDF8260058
:10108C0024F0A6FA022804BF00208DF82E00A2E05E
:10109C0004F07F000446210702D44FF0000A34E02C
:1010AC00E1B24A0722D4C9069DF8211028D5C1F314
:1010BC00820212B1072A18BF013A002A08BF04465F
:1010CC0001F0E30040EA820118E0D3201AF0AFF9F6
:1010DC00DFF888040078002800F09F80DFF8801487
:1010EC0051F82000C0EB0010810098E09DF8210021
:1010FC0000F0E00100F0E30040EAD1018DF821108E
:10110C00D8F804004FF4805A017295F8260009288B
:10111C0001D0042823D1E98ABDF8260088420AD0E0
:10112C0024F056FA022806D09DF8210000F00300A6
:10113C0001287FF4E4AD9DF81E00002847D01198DB
:10114C009DF838100078042808BF02293AD00728E7
:10115C0048D1042946D107A818F066FFCFE5E7B2BD
:10116C0014F0610F46D0F80709D0B8F8241007A87E
:10117C00A94616F0D3F9002864D004F09F0400258A
:10118C00E7B2A00609D598F84200D8F838202AF022
:10119C004FFB07A815A905F0C7FB780640F126817F
:1011AC00B8F8241007A80DF152022B4610F098FC49
:1011BC0000286FD0054611980078012808BF4AF026
:1011CC00100A13E107A9002011F0AAFA97E598F884
:1011DC0042002AF02DFBD8F8382007A815A905F0F5
:1011EC00A3FB8CE503287FF48AAD07A800210FF040
:1011FC0003FF84E59DF81E0001285AD11198007850
:10120C00032849D0052854D1B8F8241007A80DF1AB
:10121C005202002310F064FC71E5D1480168D148FA
:10122C000268BDF82800904701287FF468ADCE48CD
:10123C000168BDF828008847CC480168BDF8280033
:10124C0088475CE528F012FB9DF82E100546BDF88A
:10125C00280019B9B8F82410884291D0B9F81610A2
:10126C00814204D1BA48807800283FF489AFB8F89D
:10127C00241007A82A4609F07BFC002800F09B806C
:10128C0038074AF0040ABDF8260048BFF01DADF837
:10129C00520075E70025A9E0BDF8260029F024FBD3
:1012AC0038B1B8F8241007A80DF15202002310F041
:1012BC0017FC9DF82E0088B325F0BEFB00287FF4A8
:1012CC001EAD9DF83900A0B3109A9DF83C009DF816
:1012DC003D1022F009FB002870D09DF83D0000283D
:1012EC0075D010992AF093FD9DF82430ADF852007A
:1012FC0011209DF823209DF821104AF0400A002B64
:10130C0008BF0920002A18BF0830002918BF013077
:10131C00D8F804100A5C013A0A5462E09DF81E00E9
:10132C0001287FF47EAE1198007803283FF4E7ACD7
:10133C0077E69DF82010BDF826000029ADF8520084
:10134C0000F0D3804020BDF8261009F11D0200EA00
:10135C00C4059DF820002B4619F06AFE38B1D8F868
:10136C0004004AF0200A017801F03F0101709DF859
:10137C00390048B1BDF8261009F1200023F096FB86
:10138C004AF0400AADF852009DF81E00012806D024
:10139C00BDF82810BDF82600002215F027FBBDF87B
:1013AC002810BDF826002A4613F022F9002818BF91
:1013BC004AF0200A15E004F0DF04E0E6BDF8261040
:1013CC00BDF828000B2200231BF05CFC97E4BDF851
:1013DC002600ADF852002AF06FFD002808BF4AF035
:1013EC00400A28F043FA05464FF6F876B01DBDF8D2
:1013FC00521080B20F1A5E4818BF2F460078012891
:10140C0005D1F01DB8F82E1080B281422FD160B2F8
:10141C00B0F1FF3F3FF773AC002F3FF470ACB8F85E
:10142C0008002AF09BFE00283FF469ACB8F80820AD
:10143C00D8F8041005462AF0F1F89DF81E1000208B
:10144C0098F80830B8F8242016908DF85410BDF890
:10145C00521015ACCDE9007ACDE90204284611F002
:10146C00EBF870B328462AF077FEFFF748BCB8F8C3
:10147C0024108142CBD0701CBDF8262080B2824251
:10148C00C5D2BDF828008142C1D02AF015FD002834
:10149C00BDD0017901390129B9D8408801218DF8D5
:1014AC005410ADF8600015AD284620F0C1F90028A5
:1014BC00ADD0281D1EF0B2FF0028A8D023F022FCCE
:1014CC00A5E72348407800283FF419AC00208DF89C
:1014DC001870ADF81900DDF826004FEA3040059081
:1014EC0005A829F0E7FEFFF70ABC39073FF52AAF3C
:1014FC009DF81E1001293FF425AF002119F058FD6D
:10150C0020B1407901380228FFF41CAFB8F8401024
:10151C00BDF8520023F030FE30B1807828F086FC04
:10152C0001380728FFF40EAFBDF8280029F0DCF9CC
:10153C0018B104208DF8200004E7BDF82610BDF882
:10154C00280002223FE700BFAF140020F012002059
:10155C00C0120020305D0020EF6B0020A114002091
:10156C0000D40200041000200C10002008100020F1
:10157C00AD1400202DE9F04F85B084780226362C6E
:10158C0000F2BC820546DFE814F06B0173017200B7
:10159C007B017800B902B902810037004C008C0045
:1015AC009F00AD00B902B5008F01B902B9029901D3
:1015BC00AC01BA01B902B902B902B902B902B90255
:1015CC00B90237004C00B902B902B902B902B9022A
:1015DC00B902B902B902B902B902B902B902B90227
:1015EC00B902B902B902B902B902BD00EB00C701D8
:1015FC00FF005B005B00D7012AF0F9FC242840F0C7
:10160C00A68102AB352000210422002429F05CFEC7
:10161C00002800F0F881012002228DF81000002033
:10162C00F8E100208DF810002AF0E1FC0646092CA8
:10163C0040F0EC8095F8059095F806800720EEE0D8
:10164C00DFF82065306880B1406A70B102A92AF0D9
:10165C00DAFC0546342C40F0278228462AF07AFD25
:10166C00002800F0208204203FE203203DE2DFF856
:10167C000035612002210A223DE202ACE220214623
:10168C0028F022FF61200421082284E12AF0AFFC1B
:10169C000446681D2AF05EFD242C40F08381002056
:1016AC00F6E1E878032800F29381281D2AF052FD18
:1016BC000246E878DFF8B01431F81010DFF8AC040B
:1016CC0000782AF0ACFC84E1E878032800F28581EC
:1016DC00DFF8941431F81010DFF8900400781FF044
:1016EC0093FC7BE12AF089FBADF8080002AB61208A
:1016FC000C2102E1002661200E2101228DF80860E8
:10170C0002AB19E2DFF85C6401208DF81000306840
:10171C00002800F028810069002800F0248102A92B
:10172C002AF071FC042126F081FE002800F0EA81E9
:10173C0004462AF013FD002800F0188121460546C6
:10174C002AF0FEFB3068BDF80C1022462B460669C9
:10175C000298B0478DF8100028462AF0FDFC05E1F0
:10176C00DFF800442068002800F00481806900281C
:10177C0000F0008102A92AF046FC2068BDF80C108C
:10178C00826902989047F6E0DFF8D8733868002831
:10179C0000F0F780C069002800F0F38002A92AF05D
:1017AC0032FC9DF80850BDF80AB0BDF80C90044608
:1017BC002AF0D0FCA6788046F72E28BFF726B01C5E
:1017CC005FFA80FA50462AF0C9FC002800F09C8190
:1017DC00012D044608BFBBF1000F00F09981386859
:1017EC00A11C42463346C569029800914946A84758
:1017FC000746002840F09281002761203321524691
:10180C0023466670277022F0C1FC87E1681D2AF020
:10181C00A1FC8146E81D2AF09DFC8046092002AF00
:10182C00242E18BF2F1809EB080508BF35263046A3
:10183C002AF0A2FB854201D9022056E1B9F1000F32
:10184C0004D1304641463A4625F092F9304641469D
:10185C003A462AF01DFA002800F0E2800A2044E102
:10186C00E878012802D0002840F0478129F01EFCBE
:10187C0040F259600121ADF8080002AB61203CE058
:10188C000120EC1C8DF80800E220214623F02AFBF5
:10189C0030B90120082122462AF0FAF98DF8080007
:1018AC0002AB6120032125E1E878291D012800F015
:1018BC00DD80002840F0E180E020DBE02AF097FB9F
:1018CC000446681D2AF046FC242C0FBF002001465C
:1018DC0020462AF0E2FA8DF8080002AB61201221B2
:1018EC0008E12AF084FB24280CBF00202AF044FBDA
:1018FC00ADF8080002AB612013210222FBE014209A
:10190C008DF8080002A9E02009F0B6FA8DF8100055
:10191C0004AB61201421EDE0924C206898B3806AEE
:10192C0088B302A92AF06FFB2068BDF80C10826AFC
:10193C0002989047014627E08A4C206868B3C0683B
:10194C0058B32AF054FB2168C968884726E08346BF
:10195C006938002680B2032838BF0126681D082C80
:10196C0040D1057841E003208DF8100004AB6120D4
:10197C003021BFE003208DF8100004AB6120312131
:10198C00B8E00327CFE0002102AC20462AF04AFB46
:10199C006120322104222346ADE003202AF005FA0F
:1019AC003621A7E005F10806ED790146A8426BD96E
:1019BC00204600222AF066F909288DF8080069D122
:1019CC00002D67D02046294632462AF061F961E0A5
:1019DC0002202AF0EAF90A218CE002202AF0E5F92B
:1019EC000B2187E02AF0B6FB054658462AF0C4FACC
:1019FC000227A84288BF7700CFB100268DF8087067
:101A0C006120214694E002988DF810400422ADF834
:101A1C00120002208DF8110004AB612008216AE04D
:101A2C00012E64D1E220394623F05CFA5DE0401BC4
:101A3C0087B2F72F28BFF727B81C5FFA80F840460B
:101A4C002AF08CFB002861D000F1020A814639464D
:101A5C0050462AF075FA584629463A46534629F01C
:101A6C0033FC054600286AD00A2773E00878022860
:101A7C0014D2522023F036FA00E002208DF8080030
:101A8C0002AB61200F2135E0204632462AF0FAF8ED
:101A9C008DF8080002AB612007212BE002A952202F
:101AAC0028F012FDECE702359DF8080015F8018BC3
:101ABC00012811D1BDF80A0070B9BDF80C7041466F
:101ACC002A46384625F054F8012F07D1E220294642
:101ADC0023F008FA012701E0BDF80C703068394694
:101AEC0042462B46466A0298B0478DF8100004AB6C
:101AFC0061202146012222F049FB0026304605B028
:101B0C00BDE8F08F05202FE710270CE0102774E7B5
:101B1C00A9F169000328BFF462AE022720462AF01F
:101B2C001BFB002FE9D000268DF8087061203321B3
:101B3C008DF8096002AB022222F028FBDEE789F85F
:101B4C00017000276120214642464B4689F80070FF
:101B5C0022F01CFB48462AF0FFFA002D7FF44DAF13
:101B6C00CBE700BF34140020BCD90200ED6B002081
:101B7C0060D902002DE9F0438DB00546807802242F
:101B8C00252800F27380DFE810F026009E00BE00CE
:101B9C00D100E400F20000013302330217013302DA
:101BAC003302330233023302330228012D01330294
:101BBC00330236013A01430133023302330233025A
:101BCC00330233023302330233024F015201550107
:101BDC0058015C016301DFF83C7500240E258DF87B
:101BEC0004403878012807D801A81EF025F80446CF
:101BFC009DF8040005EB4005EEB230462AF0AEFA33
:101C0C00002800F03F824FF000080546431C0021DD
:101C1C00082280F80080012029F056FB29F018FFDB
:101C2C006872000A0721A872DFF8EC04E9720078E8
:101C3C0028733878012800F21A829DF80420002AB3
:101C4C006A7300F0168205F10E00002123469142C2
:101C5C0080F00F8213F8022B013100F8022B13F8DD
:101C6C00012C00F8012C9DF80420F0E7A0F14001B4
:101C7C000D291FD8DFE811F00E00F400BC01BC01E7
:101C8C0002011201BC01BC011E01290134014901F0
:101C9C00BC01580101ACE91C0822201D29F0BEFC36
:101CAC0020461AF089FCBDF806004021ADF828004A
:101CBC000AABD2E0E02840F09B8100244720E021D1
:101CCC0000220023ADE020202AF048FA002800F082
:101CDC008E812021FF2204462AF0C6F8631C0120C5
:101CEC000021082229F0F0FA0546002818BF01252A
:101CFC0001AB84200021042229F0E6FA002800F030
:101D0C00C3810235C4E1E81C2AF024FAADF80400C2
:101D1C0083202AF031F9014601AA832029F0B8FF6B
:101D2C008DF828000AAB672002215DE1E81C042134
:101D3C0026F07CFB019084202AF01EF9014601AAB2
:101D4C00842029F0A5FF8DF828000AAB6720032119
:101D5C004AE161202AF010F90146EA1C612029F0C1
:101D6C0097FF8DF8040001AB672004213CE1622051
:101D7C002AF002F90146EA1C622029F089FF8DF84D
:101D8C00040001AB672005212EE100208DF8040032
:101D9C00E81C2AF0DFF96A7900F4F851002A00F007
:101DAC001681B1F5A06F04D04FF6FF71884240F058
:101DBC0018814FF0FF3012E12AF0A0F904462AF006
:101DCC009BF9D249604301ACB0FBF1F120462AF0FB
:101DDC0029F967200921042295E015F8032B6720C7
:101DEC00102170E0E87825F051F98DF8040001AB72
:101DFC0067201121F8E000246720142102E0002460
:101E0C0067201521ADF80840019401AB062208E0CB
:101E1C0000246720162109228DF80C40CDE90144DD
:101E2C0001AB22F0B3F9E3E0F52020210BE0F52023
:101E3C00212108E0F520222105E04FF6F570232141
:101E4C0008E0F52024218DF8040001AB6720CBE0DD
:101E5C00F5202521ADF8040001AB67200222C4E077
:101E6C00E81C2AF077F9ADF8060001AC204618F012
:101E7C0097F8231D672041210822B6E0E81C0AA927
:101E8C0028F08EFC00288DF8040000F0B58001A825
:101E9C001821FF22013029F0E7FFDAE0E81C0AA93B
:101EAC0028F07EFC00288DF8040000F0D7804FF05D
:101EBC00FF30D5E015F8030F697823F035FB288047
:101ECC006720482102222B468FE0E87826F0FCFBA5
:101EDC0001AC014620461EF047FA6720492111E06B
:101EEC00EC1C204628F070F8002818BF2046B5F8E6
:101EFC000B1019F0F3FE01AC014620461EF034FA2B
:101F0C0067204A21242223466FE001ACE91C0822F9
:101F1C00204629F083FB204629F004F98DF828008F
:101F2C000AAB67204B215FE04FF0FF3095F8038040
:101F3C00691D0190ADF81000CDE90200FE208DF86E
:101F4C000600287903288DF8300003D10AA82AF05E
:101F5C00AEF804E008462AF0FDF8ADF82800AF7B97
:101F6C00002F00F0CB807E0095F80D9030462AF0C3
:101F7C00F5F8002800F0C28005F10F013246044646
:101F8C0029F04CFB00940AA940464A463B460DF00A
:101F9C002DF8002800F0A880837801784278057924
:101FAC0046798DF806308DF804108DF80520C3782D
:101FBC008DF809608DF808508DF8073001A98B1D3C
:101FCC00811D40794200184629F028FB93E0B1F5B9
:101FDC00A06F03D04FF6FF71884202D100204C490C
:101FEC00086001AB67200621012222F0CFF8002403
:101FFC0020460DB0BDE8F08318202AF0AFF840B3AE
:10200C00BDF828100446009006200022182326F064
:10201C0047F9B8B9BDF8285001AE21461022701C02
:10202C0029F0FCFA384F05EB450506F1110057F87D
:10203C00251029F0F7FF07EB8500416806F1150024
:10204C0029F0F0FF2046182129F07AFF20462AF0CB
:10205C0083F801AB672044211922C6E7BDF828009C
:10206C00ADF8050001AB672045210322BDE785F8DB
:10207C000D806720002132462B4622F087F8284637
:10208C002AF06AF864BBB2E7019800BAC4F80900F8
:10209C000AAB83200021022229F016F908B104357D
:1020AC0003E0BDF82800A4F80D0004F10F03612033
:1020BC000021012229F008F9002804F1100318BFAF
:1020CC00083562200021102229F0FEF80028234652
:1020DC0018BF1035672001212022257022F056F8F8
:1020EC0020462AF039F882E74FF6FF70ADF8080069
:1020FC006FF48030019020462AF02EF801AB672057
:10210C004D210E2271E700BFA866002040420F004F
:10211C00506B0020F01200209C1300202DE9F04F92
:10212C009DB00446DFF87C05406818B18047002854
:10213C0000F04C82DFF870A5DFF870B50E940DF14D
:10214C003C099AF80000411E002C0C910BF118046C
:10215C0018BF01219BF80280002700258BF80F1077
:10216C009BF801100D91C0B287421ED2B84517D012
:10217C00FEB200214A460423304629F00FFA0F988C
:10218C0010F4403F40F00400C0B218BF01357C2869
:10219C0006D130460621F82228F054F8F820207099
:1021AC009AF800000C340137DDE7E9B2013800245D
:1021BC00884204D19BF80500002800F06F82DDF8FE
:1021CC003890CDF82C80DFF8DC84B9F1000F48464C
:1021DC0008BF1020069015AE00200290DDE90C74AB
:1021EC000025380400F0F4819BF80F0010B9012091
:1021FC008BF80F00E0B200210FAA042329F0CEF9CE
:10220C000F98B9F1000F19D010F4403F18D04FF4CB
:10221C0000609AF800100135013FABF810009BF8F4
:10222C000F0001388BF80F00012050FA84F0B0FB3E
:10223C00F1F202FB11048BF80D40D2E7002501E00E
:10224C00CDE90C74C0B2702804D00D987021C0B2C6
:10225C0024F064F805950B9D00210FAA0423ECB221
:10226C00204629F09BF99DF83C00FE2803D020461F
:10227C00FE2124F053F820460621FE2227F0E2FF2F
:10228C004FF400600D9F0BF116018BF80C50ABF85E
:10229C0010000020ABF81400FF208BF80D708BF8A9
:1022AC000E00F8B2400050FA87F001EB8000B0F855
:1022BC0006A0600050FA85F001EB8005FE20ABF81B
:1022CC0012A0294601F8020FDFF8E40304914FF441
:1022DC00006129F035FE0020DFF8CC133B46099451
:1022EC0088F800009BF80F00097850FA87F0013845
:1022FC0090FBF1F202FB1100019035F8060F0395EB
:10230C005FFA83FB0A900D93A34500F05981ABEB68
:10231C000400B0FA80F040090890002007900020DB
:10232C00C00740F09A801FFA8AF4162C73D998F8DB
:10233C000000002840F06C81AAF10707584610AA4B
:10234C00B9B219F035F8BDF84E5005F11000A042A5
:10235C000FD89DF84A0096280BD1A7EB05099DF8DC
:10236C00492029465B461FFA89F840461CF08AFF33
:10237C0018B3AAF1010ADFF82C835446A0B2162830
:10238C0067D93628A4F116055846324688BF202551
:10239C00641BABB2A1B229F001F92804EED016FAF5
:1023AC0085F010F8010C962801D0013DF5E705EBFE
:1023BC00040A0020DDF83890B2E79DF84B00C10705
:1023CC0001D1800704D40020CA46DFF8D882F1E797
:1023DC00E81D83B20A9813FA80F4B4F5006F01D9A2
:1023EC000120F2E7B24980B2081A4146C01A00F542
:1023FC000062584629F0D2F807980130B4F5006F06
:10240C00079004D101204FF400610A91DCE7002011
:10241C00CA460A94D9E7079810B1A44929F039FAA9
:10242C000198C0B2834500F0CF800D99012050FA7D
:10243C0081F09D490978B0FBF1F202FB11039B4935
:10244C0003EB430001EB8000B0F81CA0DDE9094070
:10245C0056E70020DDF8389005E0079810B1934955
:10246C0029F017FA002008900D980B9098F80000AE
:10247C00002840F0CD800A9B8D49C3F5006011FA0D
:10248C0080F2A3F11000102183B2099823F048F9CF
:10249C0098F80010084388F80000089890B182481A
:1024AC0000780BEB0001013991FBF0F202FB1011EB
:1024BC00C8B20B91400050FA81F07C4901EB8000CE
:1024CC00B0F81CA0DFF8E4B10B980A99099C012321
:1024DC008BF80E000398ABF81010BBF91220ABF878
:1024EC0014A001809BF80D10204625F0ABFBBBF926
:1024FC0014209BF80E102046022325F0A3FBBBF8FA
:10250C001000059CB9F1000FC0F5006007D00699CA
:10251C00DFF894A18842A4BF0121029101E0DFF809
:10252C0088A1069988424FF07C01B8BF7821099D9B
:10253C00284623F0F3FE0EF0CBF907469BF80F006C
:10254C000621FC22C01B8BF80F00284627F07AFED0
:10255C000499FC209BF80E3008709BF8021017FAB7
:10256C0084F00D9301449AF80000B1FBF0F202FBE9
:10257C0010118BF802100B910131CAB2B2FBF0F2C0
:10258C0002FB10118BF8011003EB43010BEB8101E3
:10259C00898B102906D10D990131B1FBF0F202FBA8
:1025AC0010100D900C98C01BB9F1000F0C903FF45B
:1025BC0015AE029880F00100C0077FF40FAE07E063
:1025CC000120A346089051E701984EE7002465E0EE
:1025DC007C2023F0BDFE0446FF2848D17E2023F04A
:1025EC00B7FE0446FF2842D19BF8014004EB44009F
:1025FC000BEB8000807DFF2835D09AF800009BF80B
:10260C0002100144013991FBF0F202FB10142EE090
:10261C00264E254F00253878854213D2ECB2204641
:10262C0016F0C6F898F80010084388F800003DB181
:10263C0038780138854203D020467E2123F06EFE87
:10264C000135E8E7B18B01380024B070C0B2F470EA
:10265C007470F180FE2123F061FE00207C2123F0B8
:10266C005DFE74711AE020467E2123F057FEE0B225
:10267C00FE218BF80340400050FA84F00BEB8000F5
:10268C00808BABF806009BF8020023F047FE00207D
:10269C008BF80500BBF81000C0F5006420B21DB02B
:1026AC00BDE8F08F10100020EE6B0020A66100201A
:1026BC00B83800202DE9F04F8FB00C4648070FD4E6
:1026CC00200441D4E00400F19781200600F1C08180
:1026DC00A00700F1D481200500F1F3810020B4E1C2
:1026EC00DFF820050178062900F2AD81DFE811F052
:1026FC0007009401AB01AB019901AB01A001DFF81C
:10270C001055DFF804152A7891F82B30022A02D1E3
:10271C009E0600F198815E0700F19D819B0740F1B8
:10272C0092810423037091F82C30DB0700F08B812D
:10273C0091F82E30002B00F0528227F0A0FC0420E0
:10274C00012101F0A7FF57E2DFF8C8040394DFF87A
:10275C00BCB4DFF8B094DFF8C474DFF8AC44DFF835
:10276C00B054DFF8BCA448F20208008802909BF831
:10277C0000001DF0D1FB002800F03A8106460078DD
:10278C00D3282DD1F089404540F0198138780028A4
:10279C0000F0158199F80000012840F0108128F014
:1027AC007DFE002840F00B817088002840F00781E6
:1027BC00A24604AC1221204629F0C2FB29F07EF976
:1027CC003046214619F098F9BDF81C00B0F5285F89
:1027DC00C0F088800120022120F088FD54462AE0B8
:1027EC0099F80010884217D1012834D0032840F002
:1027FC00E68028780138012800F2E180B0780128C1
:10280C0051D0002840F0DB807078002800F0BF80A9
:10281C0000201FF04DF9D2E00A2811D194F82B00BA
:10282C00BA46B71C3071A16909B138468847384699
:10283C0026F0ECFF5746DFF8D853DFF8E4A3BEE0F0
:10284C002978002940F0BB80092840F0B880A168A5
:10285C00B01C8847B3E028780138012800F2AF801B
:10286C00707860B194F8330094F83410013084F827
:10287C003300C0B2884202D9012000219DE099F8B2
:10288C000100032858D0022871D0012840F097800D
:10289C003878002800F08C8028F000FE002800F02A
:1028AC009280012085E07078002875D029F0D0F84E
:1028BC004FF6FE71884203D1BAF81600884207D051
:1028CC00AAF81610ADF8281053200AA922F00AFB1A
:1028DC0020F0A4F826F0FAFF00208AF826001EF05B
:1028EC000DFD6CE0CF48006809A90AAA17F044FE58
:1028FC00074602985446C64DDFF824A3874212D2ED
:10290C009DF8380010B1FD208DF8380004203946B0
:10291C0014220AAB25F0DAFCC34907EB470001EBA4
:10292C008000012141720020012184F83200012035
:10293C0001F0B0FEB94F42E0A2460AACAB20002138
:10294C0022461DF03FFD042004945446DFF8D0A22B
:10295C00AF4D8DF8140004A810F0B0F829F0AEF8C3
:10296C009BF800004FF4805141F288321DE00120A9
:10297C0020714FF48060ADF828000AA819F0E2FD30
:10298C0029F09CF8A4484FF4805102680BE010F039
:10299C0071FD606998B9A2E702204FF4805140F6AE
:1029AC00B83289F802009BF8000029F038FB06E0E9
:1029BC00002084F832000120012101F06BFE30462A
:1029CC0027F020FBD3E694F8350020B1E06900280D
:1029DC00F5D08047F3E70020002102220023ADF858
:1029EC00280002208DF830000AA827F043FDB5E737
:1029FC00039880F4004028E08548007801380128CD
:102A0C0059D88048017803294DD0012953D14178F8
:102A1C00002020F06BFC4EE00120012120F066FC30
:102A2C0011E027F02CFB0420012101F033FE0AE019
:102A3C00002132220170744880F82A107348042156
:102A4C00007829F0ECFA84F004000FB0BDE8F08FA8
:102A5C0084F08000F9E70522027091F82C2092078F
:102A6C002CD591F82E204ABB05220260012048701B
:102A7C0000201DF0ADFA022026F06AFCE3E7644862
:102A8C000078013801280BD80020CDE90A000AA8EB
:102A9C0012F066FD20B15D48022100781CF022FC8A
:102AAC0084F00200D1E78178022904D101218170E0
:102ABC00002020F0F7FB84F48050C6E705200021AD
:102ACC00B3E753480078002840F08680DFF838A13F
:102ADC00DAF80C50002D79D004A80DF1280B013038
:102AEC000BF104060390002D6DD0A87A18B10138B3
:102AFC00A872000646D19AF83180B8F1000F11D0B7
:102B0C000020A91C08228DF82800304628F086FDEC
:102B1C00584619F051FD28B12A88BDF82A003146D3
:102B2C0025F0C4F9AF1C0DF127015A46384617F0B1
:102B3C0023FD8146384609A924F097FEB8F1000F11
:102B4C0005D09DF8380040F0020002281CD1DAF8BC
:102B5C000800A0B103983946082228F05FFD022036
:102B6C0000220C238DF81000BDF82400ADF81A00DB
:102B7C002648007804A90091092121F086FE2846F8
:102B8C001FF0AAFDED68AEE7384625F08EFC9DF8E7
:102B9C0027000128DBD15846142129F0D1F9224A0B
:102BAC0009EB490000215B4642F8201002EB800043
:102BBC00142241604172FF2049468DF838000420F0
:102BCC0025F084FBC3E7DAF80C0028B90F484FF462
:102BDC00006100781EF018FA84F4006035E7013AC1
:102BEC00012A09D8032202600120487001201DF03F
:102BFC00EFF9012026F0ACFB287800287FF423AFF6
:102C0C0004205CE7546B00201C0F0020F66B0020A6
:102C1C00F01200202ADA02003C1400208414002058
:102C2C00305D00203C5F0020704C00202DE9F04FFF
:102C3C0095B0DFF8F0640546DFF8ECB43078032883
:102C4C008BF8000040F03C81002030708BF80000C5
:102C5C000CAC204629F037FA2046002127F030FD35
:102C6C00DFF8C8A4CBF808005221504629F068F9C7
:102C7C004FF0FF30AAF81400CAF81000CAF80C0084
:102C8C0024F0F6FF0020294620F0CCF80BF11001BF
:102C9C00CBF80C0029F09FF9DBE90502DFF8905422
:102CAC00B0FBF2F1C9B2052928BF0521B2F5006FBE
:102CBC008AF80010297040F00181B0EBC12FC0F0F0
:102CCC00FD80DBF80C00002800F0F8804FF4006069
:102CDC00DFF868644FF00009FF22AAF80600FF2015
:102CEC008AF803208AF805900490002007900020B1
:102CFC000A900020089000200690002005900020EB
:102D0C00099000200B90FF200190FF200390FF20E2
:102D1C000290CCB2A14580F0D6805FFA89F70021F1
:102D2C000DAA0423384628F039FCDFF80C44384649
:102D3C00002114AAA0473846012113AAA0473846FF
:102D4C00022112AAA0470D996FF06F0050FA81F280
:102D5C00C8B20E2A06D8012303FA02F245F2011377
:102D6C001A4203D1A0F1FE02022A04D242F283528B
:102D7C00B2EB914F1DD0384615F01AFD00288BF898
:102D8C00000040F0DD80384600210DAA042328F015
:102D9C0005FCDFF8A4433846002114AAA0473846A6
:102DAC00012113AAA0473846022112AAA0470D9967
:102DBC00C8B209EB49020AEB8204C1F30142090AC9
:102DCC00E1759DF8521004F11608FD28627688F81A
:102DDC000000217601D910212FE0BDF850104FF6DC
:102DEC00FF72914229D13846002132464FF40063DC
:102DFC00DA464FF4006B28F0D1FB6FF0030313FAA3
:102E0C008BFB1FFA8BF031584A1C01D10328F6D8E2
:102E1C0001220123D7B2042F06D8CFB2FF2F18BF3F
:102E2C0013460132090AF5E731505BFA83F0D346B9
:102E3C00DFF8F8A281B298F80000A1839DF84E103B
:102E4C007028A176BDF84C10E1839DF84A10E1760C
:102E5C00BDF8481021840FD0782811D07C2813D0CD
:102E6C007E2817D0FE281CD0FF2820D10798CDF83B
:102E7C000890013007901DE009980130099019E085
:102E8C0005980130059015E00698CDF80C900130AE
:102E9C0006900FE00898013008901FFA89F0019015
:102EAC0008E00A98CDF8109001300A9002E00B98D7
:102EBC0001300B90297809F101092AE701203070C3
:102ECC0015B0BDE8F08F0B9800060BD10A98C0B274
:102EDC00012807D80998C0B2012803D80898C0B2B5
:102EEC00012811D99348042200240270CAB2E0B21E
:102EFC00904210D215F05CFC9BF800100134084392
:102F0C0029788BF80000F1E7079BD8B2A0421AD1C0
:102F1C0088480022027000208AF803008AF8010019
:102F2C00481E7E218AF80200BAF81C00AAF8060096
:102F3C00002023F0F3F99AF80200FE2123F0EEF9B9
:102F4C009BF80000BCE70998000625D00A98049A63
:102F5C00000603D1029A180600F0848075480221FD
:102F6C000126D5B28AF80220017016FA82F0B0FB65
:102F7C00F4F101FB14008AF80100284615F018FC46
:102F8C008BF800002846FE2123F0C8F98AF805606A
:102F9C000020FFF7C3F8D3E70A98049A000621D063
:102FAC00644801218AF80220017011FA82F0039A18
:102FBC00B0FBF4F101FB140091B2FF298AF8010077
:102FCC001FD10199FF2919BF8AF8031001EB4100A9
:102FDC008AF8030000EB40000AEB8000808BAAF813
:102FEC000600ADE7DDE90520104300063FF47AAF9B
:102FFC0024F012FEA04280F084804E480321017020
:10300C003DE048008AF8032010FA82F00AEB8000B9
:10301C00818B1829AAF8061092D30739D0B20DAAC1
:10302C0089B218F0C5F99DF83F004007B0D53F496B
:10303C00BDF84220002300930323C878C988891A5D
:10304C000DAA073989B207F0ADF900287FF478AFE3
:10305C00BDF8401000293FF473AF9DF844001FF0F9
:10306C004DF96DE724F0D8FD0621A042314838BF58
:10307C0003210329017002D0062952D060E724F005
:10308C00CBFD04468AF80C0000EB40000AEB8000F4
:10309C00408BAAF80D000DF01BFC29782044B0FBE6
:1030AC00F1F202FB11008AF802000130C2B2B2FB4D
:1030BC00F1F202FB11008AF801007C2023F048F9A0
:1030CC00FF2812D17E2023F043F9FF280DD1FF20D9
:1030DC0023F03EF9FF2808D1782023F039F9014676
:1030EC009AF80100FF2918BF0846C1B28AF80300FC
:1030FC00490051FA80F00AEB8000808BAAF8060098
:10310C0019E70798000609D0DFF820A0FE219AF8ED
:10311C00020023F003F92C78029A41E705480621B6
:10312C000170FEE76514002010100020A66100203D
:10313C00EE6B0020FA6B002013B80200B8380020A8
:10314C002DE9F04F87B022F0C3FDDFF89C148122EB
:10315C00DFF8A074DFF8A054DFF8A4640A70DFF87D
:10316C008C140860DFF88804FF2101700020DFF860
:10317C00981438802870DFF88404C989007830707E
:10318C00DFF88004006890F808804FF6FE70404429
:10319C0080B2884200F24A81DFF870B406F1100068
:1031AC000422DBF80010083128F038FAF07CDFF844
:1031BC006094DFF86034B47C717C89F80000388846
:1031CC001B7841EA0422C4F3011AB280043038801F
:1031DC001BB9BAF1020F00F02981BAF1030F00F00C
:1031EC00258101F0070413B1002C00F01F81DFF8DA
:1031FC0028E4042C9EF8001008BF002900F016816A
:10320C003BB1DFF818341B78862B02D1022C40F02E
:10321C000D81930410D402F00702022A08BF002982
:10322C001BD0DFF8F8030078862805D100207446FF
:10323C0022F086FD2178A646307800284CD0002953
:10324C004AD1012800F0F28003283FD0022843D154
:10325C00B088400740F0EA803EE0DFF8D01391F8E8
:10326C008310022900F08180DBF80010012211FA92
:10327C0080F000F1080102A828F0D0F9388801305C
:10328C00388028F0B5FB0446DFF8900300788628D8
:10329C0068D1DFF8A453286808B928F0E4FE9DF93A
:1032AC0008000021002728F097FF296848779DF82F
:1032BC0008008F77C877204628F07BFEB18899F8F4
:1032CC00000001F010011EF015F94EE0B08800F07E
:1032DC000700032840F0AA80B088010700F1A680FF
:1032EC00810402D4810500F1A180B27CC2F3810477
:1032FC00012C00F09B809309012B00F09780BAF110
:10330C00010F0FD840F0020101F00701032909D188
:10331C0014B93F2A40F28A8024B9C149097800299E
:10332C0000F084804FF6FB71BAF1020F019308EBA9
:10333C00010C1DD1DFF8F082019B18F8041018F86D
:10334C00033003EB010A0023402AB4FA84F238BF9D
:10335C00012352091A4043061AD4002A08BF0AF165
:10336C00020A19E0204628F024FE27F09BF95FE0C2
:10337C00DFF8B082019B402A18F8041018F80330CB
:10338C0003EB010A08D3420648BFAAF1020A03E084
:10339C00002A18BF4FF0020AC0F300205FFA8AF12E
:1033AC001FFA8CF30A1A70709A423FDC6044F046A4
:1033BC000091401AF080703080B227F0E7F8F0608E
:1033CC00A0B3702128F0BCFD0020B07098F800006C
:1033DC0018B9307900F020002870707829784FF0F7
:1033EC000008254691B300284FF000002FD1B0887B
:1033FC0000F00701032906D00020012927D18B49B1
:10340C0091F8821019B38A48007818B127F0EAFDB8
:10341C00FE2807D022F024FC20B926F0A7FC0028B7
:10342C0000F0E0800120B070254610E027F056FF38
:10343C0028F0DEFA754900240A6813681C711268BA
:10344C000A6028F0B6FD07B0BDE8F08F0020F168E7
:10345C0001F1700281F836504A604A657278B4887E
:10346C00F388002A8C81019C0B8181F82C4099F8FF
:10347C00004008BFA046A1F85830737CFF2581F8A6
:10348C004580B47C8D7303F0780360F38203C4F33E
:10349C000110184408743888801A5FEA0A61388071
:1034AC0000F09880009ADBF8001011FA80F032815D
:1034BC0002AD00F10801284628F0B0F830893988AF
:1034CC000844F1683880B07C0A7CC0F38104C0F3F6
:1034DC00011902F0400894B3B9F1020F06D1B8F10A
:1034EC00000F03D0B1F8402002AD05E0BDF8082074
:1034FC000235A1F84020CA874E4FFB899A4203D06F
:10350C004FF6FF739A4268D1032C0ED101F12E00B5
:10351C00294628F0CCFDF068F91C2E3026F0E3F893
:10352C0000285AD0B07C083509E035F8022BCA8542
:10353C00B9898A4203D04FF6FF718A424DD1402897
:10354C0019D3B9F1020F04D154EA080108D1F1687A
:10355C0003E0F1680A7C520602D42A880235CA8735
:10356C00C02805D3F0682946243028F0A0FD02E0DD
:10357C002888F16888842A49B088097800F0070007
:10358C0089B1B9F1010F0ED8012802D12CB101205B
:10359C000BE0032808BF002C05D12649F268C98925
:1035AC00D28F8A4219D1032805D0012812D11F4885
:1035BC0090F8820070B1F0681EF0CAFA50B9002081
:1035CC00F17CB070B07CC1F3011100F078000844BC
:1035DC00F168087405F032FF2AE720F016FD1BF0A5
:1035EC00AFFA25E7B0781FE7036C00207C6B002056
:1035FC00086C0020DC6B0020066C0020056C0020A1
:10360C00A0110020BC6B00208C120020206B00202D
:10361C00166C00203C0B0020156C00200B6C00205D
:10362C00006C0020B0D90200ACD902002C5B002049
:10363C007A140020546A0020201400202DE9F8434D
:10364C0005460C46480413D4A00024D4A0075CD42F
:10365C0060057ED4200500F10481200700F137813C
:10366C00600040F1F4801BF077F824F08044EEE029
:10367C0028F0BEF9DFF810140F6D3FB1D7E90A122C
:10368C0002F0E04201F00A01891849D028F091FCBF
:10369C0024F48044DBE0B948DFF8F073016841F0B2
:1036AC0080010160B878012804D1042022F0B8FE12
:1036BC000020B87028F09CF90646042028F050FD34
:1036CC00DFF8CC130A68904219D12A7EBAB1FA6895
:1036DC00AAB1DFF8B403806C002800F09580C168B3
:1036EC0040F603020988914206D0C06840F60401F6
:1036FC000088884240F0888005F1140086E040F68E
:10370C00C4120860C5E9042282E009F0F9F8DFF878
:10371C007803006C002840F09B8024F0020496E0B3
:10372C00D7E90A65D7E90A12AA43B143C7E90A12D5
:10373C0028F03FFCB8680028AAD056EA0500A7D0AC
:10374C00D7F808C03869B7F9301032462B46E04735
:10375C009EE728F04DF9054625F022FD002800F0E3
:10376C00B380C948876B002F00F0AE80DFF81C8354
:10377C000420C849002288F81800C34827F046FBEB
:10378C0028F047FCC44828F00EFC27F049FCC8F888
:10379C0010000125042088F8025023F0D7FC38696A
:1037AC0090F82810C8F80400490703D5436A04218F
:1037BC000022984701201CF0BDFFD8F80400457684
:1037CC0013F05AFED8F8040081680B461A465B6861
:1037DC004BB11E88A6F60306072EF7D805FA06F697
:1037EC0016F0830FF2D0537B03F0F00301335373C5
:1037FC000023FD6853602D88A5F60305012D00F20A
:10380C008880C8F810309DE005F1100021F03EFAD8
:10381C00304628F0CEFB23F0B1FC78B12E6A284656
:10382C006FF4807100224FF00073B0479648806BA4
:10383C0010B11AF091FF01E044F00204EE69284641
:10384C00002100224FF08063B04724F0005434B1C3
:10385C00944821462830BDE8F84328F09BBCBDE8CD
:10386C00F8838A4EB078012804D1042022F0D8FDC8
:10387C000020B07023F082FC38B170686FF4807156
:10388C0000224FF00073056AA847306940B127F059
:10389C00C7FB32697168801A000BC8600020306168
:1038AC00794D7F490022284627F0B0FA0220307665
:1038BC00286C20B17B480221283028F06BFC1AF0D0
:1038CC004BFF24F40064C2E728F0A3FB41E028F08E
:1038DC008FF8054625F064FCA0B1DFF8B08198F8AC
:1038EC00000000070ED498F9000000280AD468469E
:1038FC0014F0A2F808B1009820B1DFF8AC9199F857
:10390C00610048B328F085FB1AF026FF24F0080468
:10391C009DE7034633F8385FA5B190F8445090F812
:10392C00456005F0F00580F8445006F0F0050135CF
:10393C0080F8455000255360C5634587507B00F0E7
:10394C00F000507355480022C2610160012026F03E
:10395C00FDF824F480647AE700260127602E0FD04E
:10396C0009EB0600817A31B18772407A07FA00F0D0
:10397C00C0B222F06FFD2036F0E700BFCC2108402A
:10398C00032088F81800444828F00DFB28F041FB70
:10399C00424F3D4D0022786900207861F968F8604B
:1039AC002846424927F032FA27F03AFBD8F80C1097
:1039BC00D8F82020411A02EB1130B0EB113F38BF80
:1039CC004FF0FF3098F82410C8F8200021B1D8F837
:1039DC000810B0EBC12F20D926F0C8F8B8B140F6CA
:1039EC000900414621F83C0F002048804A7B02F038
:1039FC00F00201324A730A7B02F0F0020A7348604B
:103A0C00F8613960B8F83E0010F4406FFAD000202D
:103A1C00C8F82000012088F824001FF0BBF92448C6
:103A2C00002101600220002126F090F8022022F0F3
:103A3C00F7FC102011F014FC98F8010020B9D8F80C
:103A4C000400503028F0A2FB1A48807810B90D20E1
:103A5C0011F006FC98F8250028B1002088F8250004
:103A6C00052022F0DDFC002088F818001248C8F868
:103A7C001C000220B5F85610B5F85420914208BF2E
:103A8C00072019F013FF3FE7A00D0020A80B002022
:103A9C00AC13002089910200306300200010044018
:103AAC0005170100E00C0020105E0020C9E70100A2
:103ABC0000000460E8D80200051201002DE9F04F67
:103ACC008DB084780226142C00F21F820546DFE8A4
:103ADC0014F02900150015004A0085001C021C0278
:103AEC001C021C021C021C021C021C021C021C02DA
:103AFC001C028E009C00AF00BE00CC0001206A7836
:103B0C00022C8DF83100089240F0C080E878291D15
:103B1C0003288DF82C0040F0E18009A8082227F03A
:103B2C007DFDE0E010208DF82400102028F016FB1D
:103B3C0098B10446DFF8E00321466060E81C11F000
:103B4C0081F88DF8240028B9204625F0DDFB8DF88E
:103B5C00240010B1204628F0FFFA002609AB64209F
:103B6C0000210122C2E10020CDF82A00ADF82E0080
:103B7C00CDF8260002208DF82C00E81C28F0EAFA7B
:103B8C00ADF824006979A8798DF82D1027F0C6FDC1
:103B9C008346E81D28F0DEFA95F80C908046687A8A
:103BAC00AC7A95F80BA04FEA49078DF831003846EE
:103BBC0028F0D4FA002800F01081CDE90748064619
:103BCC004FF0000805EB0800474570D00D3028F089
:103BDC00C1FA26F8080008F10208F3E7E87822F0A9
:103BEC0023FD8DF8240009AB6420042189E1E978D8
:103BFC00032900F25281281DDFE811F00400510165
:103C0C0055015D0119F0F4FE76E1E81C28F0A2FAEA
:103C1C00C04C6668002E00F0E4806A79002A00F03F
:103C2C00E4803368A91D184427F0F8FC0020D9E083
:103C3C00B84EEC1C04212046376824F0F7FB002F0B
:103C4C004AD0B968814200F0A0803F68F7E7A888A5
:103C5C00ADF82400E87809A926F044FC8DF8320070
:103C6C000DF13203642013214BE10026E878ADF806
:103C7C00246009A925F015FDBDF824000DF13203CF
:103C8C0014210222ADF8320064202FE1E81C02213D
:103C9C008DF82C1028F05EFAADF82400002005F108
:103CAC000608ADF82E0068798DF82D0026E0BBF1E2
:103CBC00000F00F0B580437B0DF131010E30CDE9E2
:103CCC000496CDE9000107985946CDE9020A09A8E6
:103CDC00089A1FF071FCA4E0012000E1084628F0CE
:103CEC0039FAADF82400287B8DF82D0005F10D0074
:103CFC0028F030FAADF82E0005F10F0898F8000006
:103D0C0027F00CFD054608F1010028F023FA98F87D
:103D1C00036098F804A098F805B08146022C8DF841
:103D2C00326009D108F1060028F014FA074608F1B0
:103D3C00080007F10A0104E098F8067008F1070082
:103D4C0039464DB10A3189B2FB2907D3DFF8C4815A
:103D5C00D8F8040000286ED0022009E00DF13201E1
:103D6C008DE8030C09A84A463B46294603F026FE7B
:103D7C00089E8DF8310006F0E000202840F0C48049
:103D8C000DF1310364202146BBE0EC1D204628F0E8
:103D9C00E1F96D7A002D00F0978005F10209824659
:103DAC00484628F0DBF9002800F098800026457082
:103DBC0080462A460670786800EB0A0108F102007A
:103DCC0027F02CFC5FFA89F264201221434620F084
:103DDC00DDF9404628F0C0F997E010208DF832004C
:103DEC0024E010208DF8240016E0D6F800C0F38AE9
:103DFC00B28A3169757EB77E06F11800CDE900C034
:103E0C00301DCDE9025703F0D9FD8DF82400606810
:103E1C0028F0A2F90020606009AB6420112170E049
:103E2C0002208DF83200304628F096F90DF132035D
:103E3C006420032165E007F11C0028F08FF90028AD
:103E4C00C8F8040055D000F11C010C2201600020C0
:103E5C008DF83100D8F8040009A9043027F0DEFBF6
:103E6C00D8F804000F214FF47A7205612A4DC176FF
:103E7C0080F81AB080F819A00676C782A0F81490C2
:103E8C000821287828F0CBF8089E00283FF473AF5F
:103E9C00287808211BF026FA6DE702202CE0007828
:103EAC001BF050FA28E0007827F038FC18B327F004
:103EBC00E9F8002020E028F04DF9A97927F052FE0E
:103ECC00B0FA80F0400917E03068B84201D1386888
:103EDC003060384628F040F9002000E01020002621
:103EEC0020706420122102222346667020F04EF9C5
:103EFC000BE010203CE701208DF8240009AB642076
:103F0C001021012220F042F9002630460DB0BDE808
:103F1C00F08F00BF34130020ED6B00202DE9F04F23
:103F2C008FB00C4608040CD4A00426D4DFF88853B8
:103F3C00287802282DD1E10740F00381A10641D554
:103F4C0058E0DFF86C0300781BF0E6FF90B10178C5
:103F5C00DFF8602305460020602808D0135C083089
:103F6C008B42F9D1104450F8041C28468847284647
:103F7C0026F048F884F4004595E11FF047FA28B183
:103F8C000546FCF76DFE284626F03CF884F40055F7
:103F9C0089E1A1062ED4012814D8E10600F117817D
:103FAC00610600F12F81210600F13D81E10500F150
:103FBC003F81210500F14181E10400F1548161044C
:103FCC0000F15B81A10700F1E280A10500F1FA800C
:103FDC00210700F11181610500F11981E0034FF017
:103FEC00000540F160811DF04BFCB648C57084F4AF
:103FFC00803558E1AE4F2021387820F029FEDFF8CB
:10400C00C4824FF00109D8F80810084317D028F0E3
:10401C0075F8054628F070F868434FF47A71B0FBD8
:10402C00F1F0D8F80810401A4FEA500938BF6FF079
:10403C0000490025002964D0B9F1000F61D000209F
:10404C000421002224F0C0FD06464FF0060A4FF072
:10405C00FF0B4FF6FF7802AD002E4ED030460421F8
:10406C000022374624F0B0FD06463889B0EB090033
:10407C0038BF002038810004EED1B87BD0B30128C2
:10408C000AD17889400707D4386887F80DA0B72182
:10409C00407B1FF073F9DFE739682A468DF806B0CC
:1040AC00ADF80480086AC97F0DF09EFC01281BD175
:1040BC00B87BB97A8DF838000907788A40F080020D
:1040CC00ADF8362006D540F4C070ADF83600387B1C
:1040DC008DF83A00786910B1007BADF818002846CD
:1040EC0001A9002202F020FC387B87F80DA017F004
:1040FC009FF8B1E701207873AEE7DFF8C8816C4F09
:10410C004D4624F099FE00200121002224F05CFD94
:10411C0018B1387820211BF0E5F80020042100228A
:10412C00002624F051FD002847D0068904210022E6
:10413C0024F04AFDA0B1B1B20689B14238BF0E4697
:10414C00F4E7644890F82C100F2906D190F826005B
:10415C00022802D3002022F099FF84F00105A2E08E
:10416C00A8B2B1B2814223D9D6FA55F0202180B23F
:10417C004200387827F053FF27F0C0FF054627F0A0
:10418C00BBFF68434FF47A71B0FBF1F615E052486F
:10419C00007808B302AD284627F09EFE27F046FCB7
:1041AC004E490B784E490A7829461CF0E7F920E075
:1041BC00387820211BF096F80026C8F8086084F0A7
:1041CC00200570E016F0F0FC84F400756BE008F04C
:1041DC004BF884F0100566E03E48418B012027F037
:1041EC00B1FF2878022804D13148012100781CF055
:1041FC000BFF84F0020556E03248012184F00805DB
:10420C00817050E00CF0E8FB84F040054BE0022894
:10421C0008BF16F08DFF2F480121808C27F084FFFA
:10422C0084F480653FE026F0BFFB84F080053AE023
:10423C0024F0C2FA84F4807535E01CF039FF204874
:10424C00007801280CD11D48007848B14FF47A71E0
:10425C0000FB01F216484FF40061007827F0DCFEF9
:10426C0084F400651FE01748017819B10021017032
:10427C001CF01EFF84F4805515E01448006880B1D2
:10428C001149097801290CD180471148006800B107
:10429C00804707484FF480414FF47A72007827F03A
:1042AC00BBFE84F4804528460FB0BDE8F08F00BFFC
:1042BC00EF6B002000D20200F012002096140020B8
:1042CC0097140020C012002094140020F40F00203A
:1042DC0000100020305D0020721400209A14002081
:1042EC009C1400202DE9FE4F8846080426D45FEA72
:1042FC00C87004BF0020BDE8FE8FE548056827F0B4
:10430C00FDFE044627F0F8FE60434FF47A714FF639
:10431C00FF72B0FBF1F14FF6FF70002D00F01A8127
:10432C002B886C88CB1A9BB29C4240F21C81E31AFE
:10433C0094B2A342B8BF1A46ED68EEE7DFF840A38B
:10434C00CDF804809AF800001BF0E6FD002800F080
:10435C00FC8006460078012840F0EC80DAF8041066
:10436C0096F83390D6F814B096F8138021B14846DD
:10437C008847002840F0DE80718896F831000222D0
:10438C0024F066F90546002842D0287A297CA0F151
:10439C000108FF2900F0BB80707F4F46C00718BF93
:1043AC000027E97C287D0144B94204D8E974FF2137
:1043BC0001FA00F06874A969A87C96F83020896A23
:1043CC0010FB0710F16A27F029F9287D697CB7FBEF
:1043DC00F0F202FB107001228240D2B20A436A74DE
:1043EC00C8457CD196F83010AB7C13FB0713A96938
:1043FC008B844FF4FF7303FA00F0C0B21043FF2814
:10440C0068746CD1287C1CF069F9FF2028747FE05B
:10441C00707FC00700F08E80B07F27F07FF90028F6
:10442C0000F0888004461C2027F098FE002800F03D
:10443C0081801C21054627F083FDB07F02A925F061
:10444C0030F99DF8090002212875284625F07EF9DF
:10445C00708896F8312096F8301096F83330A88092
:10446C00287DEA71FF2202FA00F068746068007817
:10447C00A9742874302013FB010080B224F048FE8C
:10448C000028A8615DD004461A20B11C2060708CF5
:10449C00A080A01D26F034F8F27F04F13000B17F2B
:1044AC0096F82830C4F81CB084F81980A062307CCF
:1044BC00E273744A217563750121A075928C228276
:1044CC00F28EA285F28C6282B6F81100A4F8170065
:1044DC009AF8000085F808901AF004FF55E727F0C9
:1044EC000DFE044627F008FE60434FF47A71B0FBD2
:1044FC00F1F06549288063480978007948436421C4
:10450C0048436249097800FB0100688000E04F468F
:10451C00E87C297D6A7C01440139B94218BFFF2A25
:10452C000CD186F83300708806F11C0186F8342013
:10453C0017F092FF304625F065FD03E7C845F9D129
:10454C00EFE7284625F012F9F4E7019880F40040D3
:10455C00BDE8FE8F92B282424BD0494801210078CF
:10456C0027F05DFD45E0A879022806D1287CFF28BC
:10457C0037D0A86925F046FD33E027F0BFFD04468F
:10458C0027F0BAFD60434FF47A71B0FBF1F03F496C
:10459C00288095F83800097888421BD295F8362087
:1045AC00FF2A06D195F83720013085F8380085F8B8
:1045BC00362095F8351095F8394082F0FF0300202D
:1045CC000126C7B2A7421DD206FA07F71F4214D123
:1045DC000130F6E7EA8BA87E95F82A10E92320F043
:1045EC00BDFC284625F0C2F82548012100781AF0B8
:1045FC0079FE88F00100BDE8FE8FFBB201441A433E
:10460C0085F83620AB8F95F83440C8B204FB1033D4
:10461C009EB2A64203D2FF2285F8362002E0FF2A82
:10462C0008D12346184A174E1278367972436426FD
:10463C00724302E095F83A2023466A802A8D0E06D2
:10464C0006D022F0200244432A852A6C224404E03E
:10465C0042F020012A6C2985297A85F82E10E979F7
:10466C006A6285F82D10D9B269840549496811B17F
:10467C0088470028B8D105F1100004F029FCB3E7F5
:10468C0014130020305D00208A14002090140020A8
:10469C00AC4700207FB50138072800F24C810C464E
:1046AC00DFE810F008002C0054006E00890049016E
:1046BC00A600C900CB4800780138012800F23B81E4
:1046CC00002C00F0478100200321002420F080FE04
:1046DC00C64DC74E0420042132222870307827F0B2
:1046EC009EFC0820002106F07FFF30786C704FF4A0
:1046FC00805104B0BDE870401CF086BC0020002541
:10470C0027F044F8BB480121017004208DF80D00FE
:10471C0074B1B548B34C45852078012803D10720E6
:10472C0025F064FA2078022802D1062025F05EFAE2
:10473C00AE48042132220570AD48007827F06FFC9A
:10474C00A94890F82B1001F0FE01F2E0A548007882
:10475C000138012800F2EF80A548042132220078AC
:10476C0027F05DFC002C00F00F819F4C9F4801212D
:10477C0001702069002800F0EC8021F0C9F9F8E7FD
:10478C000120002C8DF80D007BD0974800219B4A0E
:10479C0080F82A10984827F0B5F9924C2078012817
:1047AC0003D1072025F022FA2078022870D10620A8
:1047BC0025F01CFA6CE002208DF80D008A48002CC4
:1047CC0073D000218D4A80F82A108B4827F09AF973
:1047DC000020032120F0FCFD824C2078012803D11D
:1047EC00072025F003FA2078002877D1092073E000
:1047FC007C4D00208DF80D00002C28787BD018B94A
:10480C00092025F0F3F92878022806D10820002188
:10481C0006F0EAFE042025F0E9F911F071FC73486A
:10482C000021C822017070480D2180F82A107048B0
:10483C0027F06AFB78E005208DF80D0069480078B8
:10484C00022878D1002C00F0C38068480022C1787F
:10485C00C270017042F20800002106F0C5FE6248E9
:10486C000D2190F82B2080F82A10C17802F0DF027D
:10487C00002980F82B200CBF04200D2025F0B6F960
:10488C0059E05848007818B95748022180F82A1086
:10489C005648002132220170554827F035FB52480A
:1048AC0090F82B1001F0FD0143E0082180F82A104C
:1048BC004C490978012911D890F82E0070B90020C4
:1048CC000DF10A018DF80A00522020F00BFB26F0A6
:1048DC006FFC20F045F9002025F088F943480021B1
:1048EC0032220170424827F00FFB3F4890F82B1002
:1048FC0001F0FB011DE03C4C022812D194F82E0073
:10490C0078B194F82B00002140F0200084F82B00A3
:10491C0005208DF80D00082006F066FE0A2025F013
:10492C0065F9022084F82A002F4890F82B1001F02A
:10493C00EF0180F82B102C480022032390F82A005A
:10494C008DF80C002A48007803A900910A211FF069
:10495C009CFF7FBD244C0720254D4FF4805184F8DB
:10496C002A0001208DF80D0028781CF04DFB00204A
:10497C00002624F075F82878022141F2883284F858
:10498C002B6027F04CFBD6E7174C022000218DF84A
:10499C000B1084F82A001548017094F82B000DF1C7
:1049AC000B0100F0FD0084F82B0001208DF80D00A8
:1049BC00522020F097FA26F0FBFB20F0D1F80020D3
:1049CC0025F014F920690028B5D021F0A1F8F9E7F9
:1049DC000548022180F82A1090F82B1041F0200194
:1049EC00A7E700BFF01200201C0F0020546B002022
:1049FC00F66B002087140020305D00205C14002032
:104A0C002DE9F04F85B005460868C8B1D5E90179A4
:104A1C000C4626F0EDFF0646D7F8E80003210322EA
:104A2C00112838BF0122092838BF0022A068024291
:104A3C0002D16068024208D03046217427F0B9FADE
:104A4C000024204605B0BDE8F08FD7F8C0206AB12D
:104A5C0097F8FC20002AEFD006212174D7F8C41057
:104A6C00C7F8C4404C6197F800110DE000210522F5
:104A7C00C7E93044C7E93411C7E9361197F800117A
:104A8C00002908BF0122227400220129626109D188
:104A9C0002204FF4E02187F8000197F8FF0022F084
:104AAC00BDF96068A4490138884205D8042022F079
:104ABC004DFB062022F04AFB022022F047FB97F820
:104ACC00FC0040B9D9F83C002168814203D297F828
:104ADC000001002874D0D9F8000040F2FF11816465
:104AEC00816A41F4C0718162D5E90148D4E936107C
:104AFC0009B118B900E028B327F00EFAD9F8000074
:104B0C00816A41F001018162304627F052FA97F830
:104B1C00FC0008B1012494E707F16C06D7F8EC10FF
:104B2C00304627F07EF90028F4D0D7F8C0000321D6
:104B3C000174284614F05EFA30460021002427F058
:104B4C0070F97EE798F8040027F0E4FAD8F8101012
:104B5C0026F03CFDD8F8141026F038FD98F8040027
:104B6C0024F044FE98F8040027F0D6FA27F0D4F984
:104B7C000020C4F8E000D4F8C0000068B0F5806FE5
:104B8C0001D927F0C9F994F802010028B6D12846BA
:104B9C0024F019F994F8FD000028AFD1D8F80000E2
:104BAC00D8E90412D0F8183143F00303C0F81831D7
:104BBC0042EA0100D4F8CC104968096888629DE784
:104BCC0097F8FD0020B1D7F8EC0001307FF483AFEB
:104BDC00304627F0EEF9D4F808B0D5E90110BBF156
:104BEC00000F029005D0D1F8E800092806D2012068
:104BFC0002E001F1F80B0020019004E004221128DE
:104C0C0038BF022201926668039136B1D1F8E800F0
:104C1C00092807D24FF001080AE001F1FA064FF01B
:104C2C00000805E04FF00408112838BF4FF00208C7
:104C3C00D4F80090284624F0C6F804AD0399CA466F
:104C4C00B9F1000F5ED0D1F8E810082914D80298F9
:104C5C0001210068BAF1000F25D0C90723D03278A2
:104C6C0027F0B7F818BFC0F8402100291CBF4644F4
:104C7C000121AAEB010AEDE70298112900681AD26A
:104C8C000121BAF1000F29D0C90727D0328827F0AB
:104C9C00A0F818BFC0F8402100291CBF46440121D0
:104CAC00AAEB010AEDE7294626F040FDDDE90310E9
:104CBC008BF8000021E00121BAF1000F16D0C907D2
:104CCC0014D0326827F085F818BFC0F840210029AD
:104CDC001CBF46440121AAEB010AEDE7294626F048
:104CEC0025FDDDE90310ABF8000006E0294626F0AF
:104CFC001DFDDDE90310CBF800000198A9F10109B5
:104D0C0083449DE7D1F8F00002990968D1F810218D
:104D1C000240102802D1002AF8D101E0002AF5D077
:104D2C00606824F0FFFBD7F8C0100020C7F8C4005F
:104D3C00C7F8C0000874EDE6FEFFFF0F92B0DFF875
:104D4C00E492D9F8000010B1002180F845104830E9
:104D5C0023F0EAFE26F04CFE8046072010F05EFCA5
:104D6C0018F0DAFD10B1B04826F0CEFF1BF03AFD7A
:104D7C0001AD284626F0B2FC0427002029468DF808
:104D8C00047026F0B3FCDFF8A4A2A94ECAF8000008
:104D9C003068006880473068C1680AAD284688478B
:104DAC0030688DF828702946426800209047A14C45
:104DBC0020603068C06980473068816A06AD28463B
:104DCC00884730688DF818702946026A0020904791
:104DDC002168994D286019B9984826F095FF2868E4
:104DEC0010B9974826F090FFDAF8000010B99548F2
:104DFC0026F08AFF21F0E4FBD9F800004FF0FF34D5
:104E0C0038B1CDE9104410A9082225F029FA01285F
:104E1C001BD1CDE91044082027F0A0F9002846D07A
:104E2C0005460026052E04D826F0E7FFA8530236C7
:104E3C00F8E74FF6300029460822E880824826F031
:104E4C00EDFB284627F088F909E0D9F80010CDE9E8
:104E5C0010440029DFD07C48082226F0DFFB10AA82
:104E6C000120082126F00EFF092800D0D8B923F024
:104E7C00D9FB800712D4CDE91044CDE90E440EAB1A
:104E8C0001200021082226F01FFA60B90EA810A9F3
:104E9C00082225F0E5F9002800F0BD806A4A0120BF
:104EAC00082126F0F5FE6849E22020F01BF813F0EB
:104EBC0067FA282027F052F9644E0028306052D04F
:104ECC00634F644C07F10C0527F01AF826F01EFB13
:104EDC003068056007F1100527F012F826F09CFEEB
:104EEC003068456007F1140527F00AF81DF0BCFD89
:104EFC003068856007F1180527F002F81AF06EFE8D
:104F0C003068C56007F11C0526F0FAFF21F0CEF8D9
:104F1C003068056107F1200526F0F2FF1FF0D4FE82
:104F2C003068456107F1240526F0EAFF1EF042FDCA
:104F3C003068856107F1280526F0E2FF25F0DCFDDD
:104F4C003068C56107F12C0526F0DAFF22F07EFAF5
:104F5C003068056207F1300526F0D2FF387026F074
:104F6C00F5F83068456219F081FE26F0DFFC40460A
:104F7C0027F01FF819F0C2F826F071FF012022F07B
:104F8C0035FA1FF0CDFF35480078022808D1324899
:104F9C000078012804D14FF40040012106F024FBD5
:104FAC002B4D4FF48041287826F0B8FD2C484FF05B
:104FBC00FF3100680DF0BCFFDFF8A8904FF000083F
:104FCC0068684FF0FF310DF0B3FF3068002750F8E0
:104FDC002710096821B9791C092F0F46F7D3EFE781
:104FEC0026F006FF316851F827100C68C1F80080D4
:104FFC0027F01EF859F82720002021469047044638
:10500C0026F0F6FE316851F827100A6822430A6030
:10501C0027F00EF8D4E70C480EA9082226F0FEFA69
:10502C0041E700BF34140020ECD502003C6B00209B
:10503C00D8130020406B0020446B0020D7D702000F
:10504C00C4D702000ED80200076B0020B46B0020FE
:10505C00F80D0020C5630200AF140020F0120020F0
:10506C00906B0020DCD402002DE9F04F89B08A4609
:10507C0008040DD45FEACA7040F01F815FEA8A70A1
:10508C0000F12D815FEA0A7000F13581002044E1C6
:10509C00A34F38781AF040FFDFF88C92A64DA14C44
:1050AC0006464FF0000B48F21508002E00F0028166
:1050BC00307831283AD032284BD0D32840F0B48005
:1050CC00F089404574D0382840F0AE80CDF820B03F
:1050DC00CDE906BB304606A922F0F8F89DF81C1065
:1050EC00052969D8307B002840F09E809DF81D0072
:1050FC00002800F09980052800F29680069825F08B
:10510C00A6FE002840F09080707C8849AC467870F0
:10511C00708808809DF81D00214601388DF81D000F
:10512C0006A890E82C002CC165467DE0B8780328D1
:10513C007AD899F82E10284625F089FE002873D1CC
:10514C00FF207C49607170880880B088784908809D
:10515C006AE06079FF2814D0002017F08FF802461F
:10516C00B9F8701078783346CDF800B013F050FCD5
:10517C006079002858D038780821322226F04FFF69
:10518C0052E099F81810706820FA01F2D2071ABF91
:10519C003144097A002100221B2A43D020FA02F361
:1051AC00DB0703D0B3181B7A99421ED80132F3E700
:1051BC00304623F0C9FB37E0FF293DD0FE2956D1FC
:1051CC0099F872109DF81E00884202D860BBFF2926
:1051DC002AD11EF09BFA069900201B2859D021FADF
:1051EC0000F2D20757D10130F7E7B9F86E004F49FA
:1051FC00334608804E4802884E48018810200090A3
:10520C00002013F005FC0120F870B87840B93C2060
:10521C0002214EF66022B880387826F000FFB8786C
:10522C000130B87084F805B0304624F0EBFE3878C5
:10523C001AF072FE064638E799F872109DF81E00B7
:10524C00884203D80028EFD1FF29EDD11EF05EFA79
:10525C00069838B1D9F82810814203D0C9F8280033
:10526C0024F0D4FCBDF8200025F076FCDCE7307B84
:10527C000028D9D170882D49802200230880707CA9
:10528C00CDE900BBCDE902BBCDE904BB11F05AFE60
:10529C00CAE71B2000E0C0B299F818108142C3D0B5
:1052AC002649087099F80700642100FB01F2387850
:1052BC00012163E78AF400402FE020491A4C08785A
:1052CC002076E1201FF00EFE24F0A0FC0020A4F8B4
:1052DC007000012016F0D2FF8AF001001DE010488A
:1052EC008188B1B101394EF66022818000780221AB
:1052FC0026F095FE0FE00B4C607938B121792068CF
:10530C0025F0A5FD10B96079013860718AF00800AC
:10531C0003E0002181708AF0020009B0BDE8F08F33
:10532C00B4110020A06A0020305D0020DA6A002051
:10533C00DA6B0020D86B002000F8FF07F26B00201E
:10534C002DE9F04F85B08846080418D4AA48007897
:10535C00012802D85FEAC87156D15FEA88714DD432
:10536C00022807D1A5480078012803D15FEA4870CC
:10537C0000F18A805FEA087059D400202DE1DFF833
:10538C0060A29AF800001AF0C7FD002800F02381F3
:10539C000546807FD0B9688C132817D1DFF844926A
:1053AC006E880021D9F81C000F1D002908BF09F1D7
:1053BC001C0758B101884468B14204D13C6026F006
:1053CC00CBFE2046F5E701462046EDE7A87A05F12D
:1053DC00020B022840F0E580DFF8089295F8317056
:1053EC00BBF8006009F11C000068A0B10188B14253
:1053FC0002D18178B94243D00430F5E779480121D4
:10540C00017088F00200E8E07648406900B18047FE
:10541C0088F00100E1E0D9F81C00002858D00122E6
:10542C0004464068114601320028F9D152E0704818
:10543C00DFF8B091807BD9F81C60000760D426F0AF
:10544C005DFE044626F058FE6A4A60434FF47A71BA
:10545C00B0FBF1F0D9F818101288411A91427AD3A6
:10546C00B1FBF2FB0BFB02F2511A08445E49C9F87E
:10547C0018001FFA8BF00978884288BF8B4641E0F0
:10548C0059490978C170A3E05E495D4800224FF686
:10549C00FE7300240978023079B130F8025C9D4229
:1054AC0008D04588013D45802D0406BF027020F8C8
:1054BC00023C012401390630EEE734B1484804219E
:1054CC004FF4FA72007826F0AAFD88F0040084E00C
:1054DC0000240021454889B20088814261D208200D
:1054EC0026F03CFE00285CD00021068087704160CD
:1054FC003D490978C170D9F81C1079B360603FE060
:10550C004FF0010B00205FFA8BF44FF0000A071DDF
:10551C00002808BF09F11C0796B1F078C0FA5BF1BE
:10552C00A042F17006D8756830463D6026F014FE36
:10553C002E46F1E7716830460AF1010A0E46E6E79D
:10554C005FEA0A4007D100200821C9F81800244856
:10555C0000781BF059FD88F008003EE0C9F81C00EB
:10556C002348807B00070BD426F0C8FD044626F0A8
:10557C00C3FD60434FF47A71B0FBF1F0C9F8180029
:10558C001B48807B00070CD59AF8000008211FF0FF
:10559C005FFB30B91748082102889AF8000026F002
:1055AC003BFD2878022810D0012811D1297EAA8928
:1055BC00EB7C05F11C006C696E7E8DE85A0005F1E0
:1055CC001003594605F0D8FD02E0284616F0D2FA31
:1055DC00284624F017FD88F4004005B0BDE8F08F94
:1055EC00EC6B0020C41000208F14002056140020F7
:1055FC00305D00205A140020F0120020AF1400205F
:10560C00A45D00206D1400202DE9F04F87B0851C9F
:10561C008346284626F0C4FC01AC064618212046D9
:10562C0026F08EFC9BF801A004F10B002946009596
:10563C0026F03DFD6FF001009BF80A1002240122B8
:10564C00ADF8180000208DF81A408DF80C0001F010
:10565C000800C1F3C007890782EAD00507D40028E7
:10566C00B946A84608BF01240027002507E00424FA
:10567C004FF000094FF00008002808BF03248548AC
:10568C00007850EA0A000BD0834890F826000828CE
:10569C0009D125F003FF00285AD0BAF1010F57D1D8
:1056AC004FF0C30901E04FF0C2090025BAF1000F19
:1056BC0010D07F48007890B9BAF1010F0FD1002EAD
:1056CC0063D00020214601228DF81A0001A815F0A4
:1056DC006FFB0AE001A81EF035FC86B91CE001A89E
:1056EC002146524615F064FBB6B17179BAF1020F3E
:1056FC0041F04002727104BF41F0600171719BF87E
:10570C000A10490603D5717941F080017171B179A4
:10571C0000240131B17100E00124B0FA80F1490993
:10572C000D423AD107D1002D18BF814641F201003C
:10573C00494622F07AFE14B900981AF06FFEBDF8B3
:10574C0018004FF6FE71884218BF26F019FD24E0B0
:10575C00DEB33279A24218BFBAF1020F20D1D01EAB
:10576C00C0B2012802D857EA050006D1501EC0B2BB
:10577C00012822D859EA08011FD0308823F0FCF9FF
:10578C0020BB3088ADF8180022E00220214601220F
:10579C008DF81A0001A815F00BFB07B0BDE8F08FCF
:1057AC004FF00009009953468DF81A903088ADF8E7
:1057BC00180026F0BBFC012578E7012802D83088B8
:1057CC0026F0DEFC00981AF029FE0026BDF8180021
:1057DC004FF6FE7188421ED122F062FF10B1BDF867
:1057EC00180011E0BAF1000F04D02C4D288823F0DA
:1057FC00C3F930B19BF80A0000F0020021F0D6FC8E
:10580C0000E02888ADF818004FF6FE71884202D1EE
:10581C004FF0C70949E79BF80A200099534626F038
:10582C0085FC10B14FF001093FE71D48016811B12B
:10583C00BDF818008847BDF818000099224605F0FD
:10584C008FFF0646174818490A6800784FF48031D4
:10585C0026F0E5FB01211548C17096B1AAF10100B3
:10586C00C0B2012807D81020BAF1020F08BF0820D7
:10587C007179084370714FF0000901258DF81A9069
:10588C0014E74FF6FE7000254FF001090026ADF825
:10589C0018000BE7EC110020305D00204C140020A8
:1058AC0008100020EF6B002018DA0200C012002054
:1058BC00F01200202DE9F04F87B000240293002A4B
:1058CC0000F03A81074603A892460E464FF0200B93
:1058DC0010300190504610F8011B25290CD00029DE
:1058EC0000F02781022EC0F0D680013E002F00F080
:1058FC00D18007F8011BCEE09AF801002D2806D1C3
:10590C009AF802000AF103034FF0010C03E00AF1CC
:10591C0002034FF0000C30280CBF13F8011B01469A
:10592C002A2920D1029D2A68111D2960D2F80090E5
:10593C0013F8011BB9F1FF3FDCBFC9F100094FF0AF
:10594C00010C2E291ED11A4612F8011B2A291CD132
:10595C00029D2A68111D29609D1C126859782B46DE
:10596C0022EAE27821E04FF00009A1F13002092A85
:10597C00E7D809EB890201EB4201A1F1300913F8D8
:10598C00011BF2E74FF0FF380FE04FF00008A1F1D8
:10599C003003092B08D808EB880301EB4301A1F174
:1059AC00300812F8011BF2E7134630284FF00002C2
:1059BC0041F0200008BF4A466C2808BF13F8011BB1
:1059CC009A46692901D0642909D1029B1868011DE6
:1059DC00196090456FF00903C8BF42461BE075295A
:1059EC000AD0A1F16F00092858D8DFE800F005694A
:1059FC005F5F835F5F5F5F05029D2868031D2B60FF
:105A0C0090454FF00803C8BF4246782908BF1023C1
:105A1C00752908BF0A23DDF80480016840466546F5
:105A2C0017F024FDAC460546A8EB0001A9EB0100DC
:105A3C00BCF1000F0DD109E0022E05D3013E17B1C8
:105A4C0007F801BB00E00027013801340128F3DA24
:105A5C0001380A465AB1022E06D3013E1FB12B78EB
:105A6C0007F8013B00E00027013A0135F2E70C444E
:105A7C00BCF1000F3FF42EAF0128FFF62BAF022E26
:105A8C0005D3013E17B107F801BB00E00027013830
:105A9C000134F1E70027013482461BE7632905D165
:105AAC00029A1068011D1160006804E0AAF101005F
:105ABC00022E3AD300788DF80C00012103ADB5E726
:105ACC00029ADDF804801023CDF800C01068011D87
