:10000000A81701206D6900007D6900007F6900006C
:100010008369000081690000836900008569000030
:100020008369000083690000836900003195000046
:100030008369000083690000C194000039920000C8
:100040008369000083690000836900008369000000
:1000500083690000836900008369000083690000F0
:1000600083690000836900008369000083690000E0
:1000700083690000836900008369000083690000D0
:1000800083690000836900008369000083690000C0
:1000900083690000836900008369000083690000B0
:1000A00083690000836900008369000083690000A0
:1000B0008369000083690000836900008369000090
:1000C0008369000083690000836900008369000080
:1000D0008369000083690000836900008369000070
:1000E0008369000083690000836900008369000060
:0C00F00083690000836900008369000040
:1001000053B94AB9002908BF00281CBF4FF0FF317E
:100110004FF0FF3000F080B9ADF1080C6DE904CE6E
:1001200000F006F8DDF804E0DDE9022304B07047D2
:100130002DE9F04F099D04468846002B40F084804D
:100140008A42174643D9B2FA82F242B1C2F1200084
:100150009140974024FA00F0944040EA01084FEAA9
:10016000174C230C1FFA87FEB8FBFCF60CFB16811C
:1001700006FB0EF043EA0143984207D9FB1806F14B
:10018000FF3102D2984200F231810E46191AA3B211
:10019000B1FBFCF00CFB101100FB0EFE43EA014426
:1001A000A64507D93C1900F1FF3302D2A64500F25B
:1001B0001A81184640EA0640A4EB0E0400261DB141
:1001C000D4400023C5E900433146BDE8F08F02B9B1
:1001D000FFDEB2FA82F2002A52D1CB1B4FEA174E51
:1001E0001FFA87F80126210CB3FBFEFC0EFB1C3026
:1001F00008FB0CF941EA004189450BD979180CF14B
:10020000FF332CBF01200020894502D9002800F0CF
:10021000F0809C46A1EB0901A3B2B1FBFEF00EFBFE
:10022000101108FB00F843EA0144A04507D93C1926
:1002300000F1FF3302D2A04500F2D2801846A4EBB1
:10024000080440EA0C40BAE78B4209D9002D00F0BF
:10025000BE800026C5E9000130463146BDE8F08F7A
:10026000B3FA83F6002E4DD18B42C0F0B3808242A8
:1002700040F2B0803046002DA6D0C5E90048A3E783
:100280009740C2F1200301FA02F04FEA174ED9401D
:1002900024FA03F31FFA87F894400343B1FBFEF0FE
:1002A0001E0C0EFB101100FB08FC46EA01418C45B8
:1002B0000ED9791800F1FF362CBF4FF001094FF02D
:1002C00000098C4503D9B9F1000F00F09680304643
:1002D000A1EB0C019BB2B1FBFEF60EFB161106FB67
:1002E00008FC43EA01418C4507D9791806F1FF3330
:1002F00002D28C4500F288801E46A1EB0C0346EA30
:10030000004670E7C6F1200703FA06F402FA06FC7D
:1003100001FA06FEFA4020FA07F8F94000FA06F35F
:10032000224348EA0E044FEA12484FEA144E1FFADD
:1003300082F9B1FBF8FA08FB1A110AFB09F04EEA40
:10034000014E70450ED912EB0E0E0AF1FF312CBF93
:100350004FF0010B4FF0000B704502D9BBF1000FBD
:100360004ED08A46AEEB000EA4B2BEFBF8F008FBFE
:1003700010EE00FB09F944EA0E4EF14507D912EBE5
:100380000E0E00F1FF3101D2F14540D8084640EA97
:100390000A40AEEB090EA0FB0C89CE4541464C4607
:1003A00002D306D1434504D20138B8EB0C0169EB06
:1003B00002047DB35A1A6EEB040EF2400EFA07F7F0
:1003C0002EFA06F300261743C5E90073FCE62E4615
:1003D0002846F9E6841A61EB0301012088464AE7C2
:1003E00002383C442BE702383C44E3E6023E3B44FF
:1003F000CCE6ACF1020C39440CE70238394467E72B
:10040000AAF1020A9644ADE7023E394475E7023884
:100410009644BCE72E46D7E6704700BF10F8012B84
:1004200011F8013B012A28BF9A42F7D0D01A704731
:10043000034613F8012B002AFBD1181A0138704724
:1004400070B505460E463146284603F083FC04F09D
:10045000CFF8044628B95F210A4B0B4A0B4810F02D
:1004600043FF00F01FF803F0A1FC18B1204604F090
:10047000C3F8E8E7204604F077F9204603F02CFDA6
:10048000F1E700BFF8250100262601000126010042
:1004900010B50C4603F0BCFD204610BD00F02DB990
:1004A00000F022B910B5044603F070FD2046BDE807
:1004B0001040014900F076B8910400000021084680
:1004C000FFF7BEBF1FB502F002F80DF023FF0BF0DF
:1004D0005BFD0EF085F90EF08DF90EF011F90EF0BE
:1004E00093F90EF011FB094B4FF400620293084B95
:1004F00008490193022308480093002307F030FFC6
:1005000000B9FEE707F066FFFEE700BF70E20020DB
:1005100000E700202F260100BD04000070B504464E
:10052000154600F095F904F68213C4F87C394FF4AF
:100530000063C4F8785904F58C5004F58C55A4F880
:10054000803904F67C110C35043010F0D9FD2846B2
:1005500010F038FE002304F58D52138041F2A412EE
:10056000A118881DA0504FF400728A8041F2AC326D
:10057000A35441F2B032084EA018A6504360074A77
:100580002346284610F025FE201D2246044910F07F
:1005900071F8204670BD00BFC1060000D5070000FD
:1005A000DD05000010B5064C0A4601462046FFF75F
:1005B000B5FF00F0D5F9844200D0FEE710BD00BFC2
:1005C00080070020D0F87C2900F682139A4204D1DB
:1005D00000F59D50103004F0EBB87047FFF7F2BF04
:1005E0002DE9F041044600F58D57051D013704F54E
:1005F0008D56284610F05CF9337880B1022B4DD02F
:10060000D4F87C5904F682102D1AA9B2002955D0CD
:10061000D4F878399847ADB285424FD0FEE7012B28
:1006200022D0022B3AD0002BE3D1204600F09EF9D5
:1006300008B102F081F8204600F0A2F90028DFD1CD
:1006400004F58C50043010F05FFD0028D8D1284606
:1006500010F079F901233370284610F089F960B958
:10066000284610F08EF9387004F58C503978043033
:1006700010F054FD0028EFD0C2E794F89880284687
:1006800010F060FAB8F1000F06D094F898301BB95A
:1006900041F2AC330122E2540223337004F58C5052
:1006A000043010F069FD0028AAD141F2AC33E21801
:1006B000E35C3070002B9CD0107098E7BDE8F081AF
:1006C00008B500F04DF9BDE80840FFF789BF00F616
:1006D0008213C0F87C394FF40063A0F8803900F52C
:1006E0009D50103004F064B808B500F039F918B125
:1006F000BDE80840FFF7EBBF08BD13B50446019104
:1007000000F02EF948B12146019A00F58C500C30CA
:1007100002B0BDE8104010F061BD02B010BD000095
:10072000F0B50C46A1B015461E4600F033F923463D
:100730008021194A684611F0A3F96846FFF778FE50
:1007400069460246002001F0F9F80024134FA64242
:10075000A0B20ED0292C0BD0A4EB840104EB4400F2
:100760002B5D3A468031684411F08AF90134EEE796
:10077000204600EB4000C0F18001094A684411F0B6
:100780007FF96846FFF754FE0DF10101421E00207B
:1007900001F0D4F821B0F0BD332601004726010056
:1007A0004D26010041F2A412F8B583588718BE1DEA
:1007B0009B1B054614469BB241B91A46314600F0D0
:1007C000E9FE4FF400732E51BB80F8BD3246FFF7AF
:1007D000A7FFF6E7FFF7E6BF0020704701B1FEE78D
:1007E000006870471C282ED8DFE800F0300F111386
:1007F0002D1517192D2D2D2D1B1D1F212D2D2D27AD
:100800002D2D2D25232D2D292B00012070470E2065
:1008100070470B2070470C20704709207047032059
:100820007047022070470420704711207047122043
:100830007047132070471420704716207047172008
:1008400070471820704700F58040704700207047BF
:10085000F8B506460446002546F8041B4FF400622E
:1008600000F1D10130460FF0F8FE266504F1540383
:1008700004F17402C3E9005508339A42FAD1C4E97D
:100880001E55A4F8745004F1800010F0AFF9C8238D
:1008900004212E4A4FF6FF77C4E928232C4B00226F
:1008A000C4E92B35002384F8C8102A49C4E92E2353
:1008B0000968C4E93023C4F8CC1004F5176184F842
:1008C0009850C4F89C50A4F8A870C4F8B45084F8A8
:1008D000D050A4F8D258A4F84C5984F84F59C4F811
:1008E0005059C4F85859C4F85C59C4F86059C4F850
:1008F000645984F86859C4F86C59C1E90023236825
:1009000003B9FEE7144B2246304614491C600FF031
:10091000B4FE7822002104F6D40010F050FD7722B6
:10092000002104F1B80084F8545984F8565984F829
:10093000557984F84E5984F8D15801F033FC04F10C
:10094000AC0003F035FF2046F8BD00BF00F8FF07FC
:10095000190D0000E83A0100381B00207F0D00004F
:10096000014B1868704700BF381B002090F8C83052
:10097000042B1ABF90F8980080F001000020704707
:1009800090F8C830012B06BF90F8980080F0010065
:1009900000207047D0F858390133C0F858397047F3
:1009A0002DE9F843994690F850390D1E0446164635
:1009B00008BF702513B10D20BDE8F88300F1B8071A
:1009C0002946384601F06CFC0028F4D194F8D2286E
:1009D00094F8D3389A420AD00B220021384601F00D
:1009E000E1FB04F1AC0003F0E3FE0320E4E704F1D3
:1009F00050082B4606228021404610F0FEFA48B9E6
:100A00003146206D1FFA89F210F071F810B9404696
:100A100010F0D6FA0328CFD1DEE700000138042811
:100A20009ABF024B185C0020704700BF502601009F
:100A30002DE9F84311F00F0601F00F0709D1022A42
:100A400004D11A463146B83001F0ACFB3046BDE85F
:100A5000F88390F8D35890F8D288A5EB08040E2CB0
:100A600006DD0E220021B83001F09CFB0326EDE7E5
:100A7000C1F3011C6146441894F8D148B4421CD01B
:100A800045451AD944460E2C02D90F3CE4B2FAE788
:100A900004F58D7400EBC40494F804E01EF0400FDC
:100AA00011D00EF0030949450DD1CEF38309B145AC
:100AB00009D16FF3861E84F804E029460E2907D970
:100AC0000F39C9B2FAE708F101085FFA88F8D7E7E9
:100AD00001F58D714CF0400400EBC10102F00302FE
:100AE00044EA870444EA02248A88013522F45F72CA
:100AF00022F0030214438A688C8063F317028A6031
:100B0000002680F8D358A1E713460222FFF790BFD2
:100B100038B511F0300F00F1500408BFC0F89C2028
:100B2000154600230622204610F067FA48B92946E8
:100B3000204610F0AAF920B92046BDE8384010F050
:100B40003FBA38BD2DE9F74304460D4668461146C5
:100B500091461E4600F026FFDDE900782FB918F017
:100B6000010F02D1E6B932461BE004F150064B46B4
:100B700006222946304610F040FAC8B918F0010F95
:100B80004FEA680318BFE35804EB680018BFDF5949
:100B9000B84768B9304603B0BDE8F04310F010BA6A
:100BA0000D222946204603B0BDE8F043FFF7B0BF51
:100BB00003B0BDE8F08370B50446002694F8D2581F
:100BC00094F8D338AB423ED005F58D7504EBC502E1
:100BD0001379590616D404EBC5052B796FF38613E8
:100BE0002B7194F8D2380133DBB20F2B84F8D23852
:100BF000E4D194F8D33884F8D2680E2B20D90F3B77
:100C0000DBB2FAE7C3F30100C3F38301537941EA8E
:100C10000011926803F0030361F07F01022BC9B257
:100C2000C2F3170205D12046FFF772FF0028D2D089
:100C300070BDB3FA83F320465B09FFF783FFF5E746
:100C400084F8D338BAE70020F2E700002DE9F74F27
:100C5000D0E92E23134304464BD0B83001F0A0FA5C
:100C6000002580464FF0010A2A4FEBB2434540D29F
:100C7000D4E92E30C5F12001A5F12002EB4000FAA5
:100C800001F10B4320FA02F2134313F0010FC5F1F7
:100C90002009A5F1200602D10C370135E5E73A68B5
:100CA0006ABBD7F804B0BBF1770F06D1206801F01A
:100CB00037FD082898BF00F1700B5A468021204666
:100CC000FFF726FFA8B9D4E92E120AFA06F62AFA87
:100CD00009F90AFA05F321EA030346EA0906009333
:100CE00022EA06030193DDE90023C4E92E2313431E
:100CF000D2D1012384F8683903B0BDE8F08F94F8AD
:100D00006839002BDFD0012380212046FFF71AFF2E
:100D1000D8E700BFD0290100014B1868FFF796BF44
:100D2000381B002090F8983010B5044633B1D0F845
:100D3000CC308B4204BF002380F898302046FFF768
:100D40003AFFD8B994F8D01099B101230C2220466B
:100D5000FFF7F8FE90B994F8C83084F8D000042B5F
:100D600007D0201D0FF0A2FD0123C4F8CC0084F8A9
:100D700098302046BDE81040FFF768BF10BDFFF770
:100D8000D1BFF8B500F1500504462846069EBDF8CF
:100D90001C7010F032F950B93A463146206D0FF010
:100DA000A6FE20B92846BDE8F84010F009B9F8BD04
:100DB0002DE9F04F042B04460D46174687B002D0AC
:100DC000052B18D0FEE74FF00709114604A800F0E4
:100DD00001FEDDE9048606F0010BB8F1000F13D126
:100DE000BBF1000F10D10D2229462046FFF78CFEE3
:100DF00007B0BDE8F08F114604A800F0F7FDDDE96B
:100E000004864FF00809E6E704F1800A50460FF027
:100E1000CCFF0DF10A0203A950460FF0A6FF504681
:100E20000FF0CAFF002304EB660084F850397310FA
:100E3000BBF1000F02D0E35853F80880C0470123EC
:100E4000064684F8503918B1FFF7CCFC0246CBE7D0
:100E5000BDF80A304A460193039B29460093204679
:100E60003B46FFF78EFF0028C2D03246BCE708B5EC
:100E70000022FFF749FE08BD022337B5B0F88820ED
:100E80008DF80730B0F8863004469A4222D12068A7
:100E900003F0B6FB0023FF2194F8532904F150001E
:100EA000224482F8551982F84E3982F8543982F872
:100EB0005639C4F85839C4F85C39C4F86039C4F8F4
:100EC000643910F0CAF8702280212046FFF720FE16
:100ED00088B1FEE70DF1070180300FF09FFE054657
:100EE00000B1FEE79DF807302068022BCFD003F059
:100EF00085FB024B1D60002003B030BD381B002075
:100F000010B50446006803F084FB0146206DBDE87F
:100F100010400FF0D9BD10B50446006803F005FC81
:100F20000146206DBDE810400FF0CEBD002337B55F
:100F3000054601A9803001930FF0F2FE0446A0B9E6
:100F40009DF80410286803F0F2FB044668B928688D
:100F500003F05FFB48B195F853392B4493F84E39B1
:100F60001BB1286803F07CFB0446204603B030BD6B
:100F700010B50446006803F057FB002818BF022193
:100F8000206D08BF0021BDE810400FF09DBD00237B
:100F900013B504460DF1070180308DF807300FF0CE
:100FA0003DFE58B99DF8073023B1013B012B07D90D
:100FB000072003E00146206803F03CFB02B010BDAF
:100FC0000121F8E713B504460DF1070180300FF059
:100FD00035FE20B99DF80710206803F0B9FB02B078
:100FE00010BD10B5044654F8500B03F0A3FB0146A6
:100FF0002046BDE810400FF0ECBE13B504460DF1DD
:10100000060180300FF038FE20B9BDF806102068C8
:1010100003F092FB02B010BD10B50446006803F067
:101020008EFB08220146206DBDE810400FF05FBD29
:1010300013B50822044601A980300FF088FE18B9C4
:101040000199206803F07DFB02B010BD10B5044685
:1010500054F8500B03F078FB01462046BDE81040E1
:101060000FF0B7BE90F85339034493F84E19006D52
:101070000FF02ABD002337B505460DF1070180307A
:101080008DF807300FF0DAFD044688B9286803F0C0
:10109000C0FA30B19DF80730286863B103F0E0FA78
:1010A000044695F853099DF80730054485F84E39F4
:1010B000204603B030BD03F0C9FAF1E72DE9FF4146
:1010C00000F18007064602A938460FF001FE20BB5A
:1010D000384601A90FF0E4FDF8B938460DF10301D7
:1010E0000FF09CFDC8B9306802F08EFB88460746B9
:1010F000DDE90201884508BF874211D2C41B61EBBC
:101100000805002D08BFB4F1FF3F09D22246019B1C
:101110009DF80310306802F08BF804B0BDE8F08150
:101120000720FAE710B50446006802F0FDFB01460F
:10113000206DBDE810400FF0C7BC10B50446006834
:1011400002F0F4FB0146206DBDE810400FF0BCBC7E
:10115000F8B505460E460024012707FA04F333428A
:10116000E1B204D10134202CF7D1002004E0286D35
:101170000FF0AAFC0028F5D0F8BD0023F7B505460E
:101180000C4601260B6000F18007B5F88620B5F803
:1011900088309A420FD038460DF107010FF03EFD1E
:1011A00050B99DF807301F2B08D8226806FA03F3C0
:1011B00013432360E9E7002003B0F0BD0720FBE7FD
:1011C000D0F8A010FFF7C4BF002313B501A904464F
:1011D0000193FFF7D2FF10B9019BC4F8A03002B011
:1011E00010BDB0F8A41050300FF0F3BD00F1A40111
:1011F00080300FF041BD10B50446006803F009FAD5
:10120000014640B194F85339234493F955390133D9
:101210000CBF00210221206DBDE810400FF054BC2E
:10122000002337B505460DF1070180308DF80730F2
:101230000FF0F4FC044620BB9DF807300BB3022BE3
:1012400022D1286803F0E5F9D8B195F8530928446C
:1012500090F95539013319D1D5F8A030C3B15A1ED0
:101260001A4015D15B081446D1B202F10102F9D13E
:1012700080F85549074BB5F8A420286803F0FBF91E
:101280000446204603B030BD0C24FAE70D24F8E7ED
:101290000724F6E7051D000013B5044601A98030B8
:1012A0000FF03EFD28B90122019904F1B80000F0C9
:1012B000AFFF02B010BD13B5044601A980300FF096
:1012C0002FFD28B90246019904F1B80000F0A0FFF3
:1012D00002B010BDD0F89C1050300FF0D6BD10B544
:1012E00000F15004042120460FF0CFFD28B920461C
:1012F000BDE8104003210FF0C8BD10BD03215030E0
:101300000FF0C3BD002150300FF0BFBD10B500F18C
:101310005004052120460FF0B8FDF8B90C212046F5
:101320000FF0B3FDD0B9182120460FF0AEFDA8B9DB
:10133000222120460FF0A9FD80B940F2012120466C
:101340000FF0A3FD50B9402120460FF09EFD28B9B3
:101350002046BDE8104041210FF097BD10BD10B5EB
:10136000044603F04FF9014604F15000BDE8104077
:101370000FF0C8BD0121006D0FF0A6BB0021006D6C
:101380000FF0A2BB0421006D0FF09EBB0C20704734
:1013900013B504466946006803F0D8F90822694687
:1013A000206D0FF0A4FB02B010BD022150300FF0F1
:1013B00042BE90F8C810006D0FF086BB73B50446AE
:1013C0000E4680300DF107010FF028FC80BB9DF820
:1013D0000730022B23D002D9DA1E012A21D884F843
:1013E000C83000230C2284F8D03031460123204637
:1013F000FFF7A8FB94F8C8300546042B08D090B935
:10140000201D0FF053FAC4F8CC00012384F8983063
:1014100015B1002584F8D060284602B070BD0123C4
:10142000DDE70323DBE7074B1B68C4F8CC30ECE7B0
:10143000FFF7D8F9314602462046FFF769FB05461B
:10144000EAE700BFE83A01000C2A10B51C4603D0B9
:10145000712A06D0002010BDFFF7B0FF20700120D8
:10146000F9E700F0DBFDF9E7F0B5002785B00446A9
:101470000D4602A8114616468DF8077000F09EFA38
:10148000DDE9023000F0010273B96AB9324629463B
:1014900020460DF10703FFF7D7FFF8B90D222946C3
:1014A0002046FFF731FB17E0411084F8507904EB38
:1014B00060000AB16258D358984701228DF807009E
:1014C00084F8502918B1FFF78DF90246E7E7334653
:1014D00029462046FFF7ACFA8DF807009DF8070073
:1014E00005B0F0BD002373B504460D46803001A958
:1014F000164601930FF014FC024640B1FFF772F953
:10150000294602462046FFF7FFFA024604E0032E72
:1015100015D004D8022E0CD0104602B070BD331F77
:10152000012BF9D8334629462046019AFFF740FCA3
:10153000EBE729462046019BFFF77AFAE5E72946C3
:101540002046019AFFF790FFDFE737B504460D46C6
:10155000803001A90FF0E4FB80B9019A012A0FD075
:1015600008D9931E032B10D9052229462046FFF7E0
:10157000CBFA03E029462046FFF779FC03B030BDE3
:1015800029462046FFF778FCF8E729462046FFF772
:10159000A9FFF3E7012330B5002585B080F8503965
:1015A0000446803001908DF80F500FF02CFB04237F
:1015B000019884F8C83084F898500DF10F010FF0AD
:1015C0002DFB98B99DF90F309DF80F10AB420DDA45
:1015D000D4F85C390133C4F85C39C1F3011384F8E1
:1015E000533943B106222046FFF792FA002384F8CC
:1015F000503905B030BD2368002BF3D02046FFF7EB
:10160000A4FF38B19DF80F10FFF7ECF80246204612
:10161000FFF77AFA94F8D32894F8D2389A4202D095
:101620002046FFF7C8FA94F853299DF80F3022445A
:1016300092F8D11803F00F0331B199421EBFD4F8CC
:1016400060190131C4F860190F2B0CBF012301335D
:1016500082F8D138CAE710B50446006801F032FFBD
:10166000C1B2206DBDE810400FF02EBA10B504468F
:10167000006801F009FCC1B2206DBDE810400FF018
:1016800023BA000010B50446006803F04EF8014686
:10169000B0B10A280CD84FF4FA60414301F55C213F
:1016A00001F5346104F15000BDE810400FF0A0BB1B
:1016B000192807D841F28833034803FB0101F1E7F9
:1016C0000249EFE70021EDE7B0DB2300CC3F0D003E
:1016D00013B504460DF10701006801F001FD30B9B2
:1016E0009DF80710206D0FF0EFF902B010BDFFF765
:1016F00079F8014604F150000FF09DFCF5E7002356
:1017000013B504460DF1070180308DF807300FF056
:10171000A7FA20B99DF90710206801F0E3FC02B098
:1017200010BD13B504460DF10701006801F06CFD12
:1017300030B99DF80710206D0FF0C6F902B010BD4A
:10174000FFF750F8014604F150000FF074FCF5E784
:10175000002313B504460DF1070180308DF80730E2
:101760000FF07EFA20B99DF90710206801F044FDC2
:1017700002B010BD13B504460DF10701006804F076
:1017800075FD30B99DF80710206D0FF09DF902B07E
:1017900010BDFFF727F8014604F150000FF04BFC95
:1017A000F5E7002313B504460DF1070180308DF8ED
:1017B00007300FF055FA20B99DF90710206804F0A2
:1017C00057FD02B010BD37B500F1800504460DF19C
:1017D000060128460FF022FA60B928460DF10701EC
:1017E0000FF03EFA30B99DF907209DF806102068E9
:1017F00004F040FD03B030BD13B504460DF1060101
:1018000054F8500B04F03AFD30B92046BDF80610EC
:101810000FF0DFFA02B010BDFEF7E4FF01462046EC
:101820000FF009FCF6E713B504460DF10601803010
:101830000FF022FA20B9BDF80610206804F01CFD54
:1018400002B010BDFEE7FEE710B5044602F08AFFC5
:10185000FFF7E4F80146206DBDE810400FF034B901
:10186000F7B5002300220546CDE9002300F0E8FE8D
:101870006946044605F180000FF02AFA70B9DDE9E7
:10188000006723460024A74208BF9E4208D3F21AED
:1018900067EB0403C5F87029C5F8743903B0F0BDCF
:1018A0000720FBE700F51763D3E9002350300FF062
:1018B000BABA10B50446006804F0C6FC01462046DA
:1018C000BDE81040FFF744BC10B50446006804F0C2
:1018D000BFFC01462046BDE81040FFF739BC00239D
:1018E00037B50C4680300DF1070115468DF80730ED
:1018F0000FF094F9D8B99DF80730DA0704D5C5B1CF
:10190000227842F001022270990742BF227842F009
:10191000020222705A0742BF227842F0040222706B
:1019200013F0080307D0237843F00803237003B0B3
:1019300030BD0720FBE71846F9E700001346074AC9
:1019400010B4146834B10A46014620465DF8044BD1
:10195000FFF726B80D205DF8044B7047381B0020B8
:10196000F0B5044600260C20013AB2420AD9951976
:101970006D0800FB05F7CF599F4201D26E1CF4E7BA
:101980002A46F2E700FB06F288188A58934215BFF0
:101990000023D0E90101C4E90033C4E90001204675
:1019A000F0BD000010B504460B462A220249FFF79D
:1019B000D7FF204610BD00BF5826010010B50446D1
:1019C0000B461A220249FFF7CBFF204610BD00BF8D
:1019D0005028010010B504460B4603220249FFF7C8
:1019E000BFFF204610BD00BF8829010010B5044686
:1019F0000B4603220249FFF7B3FF204610BD00BF8C
:101A0000AC2901000B2150300FF03FBA04215030B7
:101A10000FF03BBAF8B5064617460C4600F15005E4
:101A200049B142B98A88284609680FF059FA002856
:101A300075D00120F8BD002128460FF0CAF9002812
:101A4000F7D1002C6BD12146306DC9B20FF03CF8B4
:101A50000028EED18021306D0FF036F80028E8D153
:101A6000002C5FD0E37D13F0010F0CBF002110218B
:101A70009B0701D541F0200128460FF0AAF9002864
:101A8000D7D128460FF058FA01460028D1D104B129
:101A9000A179306D0FF018F801460028C9D104B1C2
:101AA000A17D306D0FF010F80028C2D1002C3BD082
:101AB000D4E9022328460FF0B6F90028B9D1284608
:101AC0000FF059FA0028B4D128460FF035FA002853
:101AD000AFD1394628460FF0D8F90028A9D12846B9
:101AE0000FF049FA0028A4D128460FF025FA014644
:101AF00000289ED104B1217D306D0EF0E5FF002855
:101B000097D1A4B1216928460FF072F9002890D12D
:101B100028460FF030FA003818BF01208AE794F900
:101B2000151091E72146A7E700220023C2E72146CE
:101B3000E9E70901F8B561F07F0100F150070446BB
:101B400015461E4606227123384601F0F0010FF0BB
:101B500054FA50B9324629462046FFF75BFF20B9B8
:101B60003846BDE8F8400FF02BBAF8BD37B5019202
:101B7000074A0C46156801462846FEF72DFE224608
:101B800001462846019B03B0BDE83040FFF7D1BFB6
:101B9000381B00202DE9F347044615461E469DF8E4
:101BA00028A001B1FEE790F8541900293BD041F07C
:101BB00080017BB31B6893F80090C9F300190023E0
:101BC00095F81C8004F150070622384684F85439F1
:101BD00008F001080FF011FA28BB5046FEF702FE8C
:101BE000014638460FF051F9E8B94946206D0EF02C
:101BF0006BFFC0B94146206D0EF066FF98B9BAF18F
:101C0000000F09D02B681B781B070FD438460FF044
:101C1000D7F908E09946D2E7524631462046FFF709
:101C2000F9FE0028EED002B0BDE8F087B8F1000F51
:101C3000ECD028460DF1030103F006FB0028F2D199
:101C4000284601A903F0D7FA0028ECD19DF803102B
:101C5000206D0EF039FF0028E5D1384601990FF0CC
:101C6000C7F80028D2D0DEE7F7B51E46084B0C4671
:101C70001F68014638461546FEF7AEFD2B46014665
:101C8000224638460096FFF785FF03B0F0BD00BF3F
:101C9000381B0020F8B50446164601B1FEE7FF23C5
:101CA00090F9557980F85539FEF798FD04F1500503
:101CB00002F0D6FC39230622802128460FF09DF938
:101CC000F0B9206DF9B20EF0FFFEC8B9206DF1B287
:101CD0000EF0FAFEA0B928460FF072F980B9802103
:101CE0003023062228460FF088F9014640B9206DBE
:101CF0000EF0EAFE20B92846BDE8F8400FF060B9C2
:101D0000F8BD000013B5074B01911C680146204641
:101D1000FEF762FD01462046019A02B0BDE8104080
:101D2000FFF7B8BF381B002010B5044654F8500B1D
:101D300002F09EFC01462046BDE810400FF0A5B819
:101D400090F85339034493F85619006D0EF0BCBE59
:101D500010B5044654F8500B02F0E5FC02460B4661
:101D60002046BDE810400FF05EB810B590F853194A
:101D7000044601F65611014480300EF05FFF48B969
:101D800094F853392068234493F85619BDE810405D
:101D900002F074BC10BD73B50446006802F0A0FCEC
:101DA0000546B8B904F18006B4F88830B4F8862046
:101DB0009B1A9BB2012B0DD930460DF106010EF096
:101DC0005BFF30B9BDF80610206802F063FC002804
:101DD000EAD00546284602B070BD73B504460068D7
:101DE00002F08AFC0546B0B904F18006B4F88830E8
:101DF000B4F886209B1A9BB2072B0CD908223046D8
:101E000001A90EF0A4FF28B90199206802F04CFC4A
:101E10000028EBD00546284602B070BD13B5044635
:101E20000DF1060180300EF027FF20B9BDF8061035
:101E3000206802F041FC02B010BD13B50822044630
:101E400001A980300EF083FF18B90199206802F0D3
:101E50003DFC02B010BD13B504460DF10601803003
:101E60000EF00AFF20B9BDF80610206802F012FC3F
:101E700002B010BD002313B50822044601A980302A
:101E800001930EF064FF18B90199206802F00CFC70
:101E900002B010BD002313B504460DF107018030D8
:101EA0008DF807300EF0CAFE014630B99DF80730B4
:101EB00020682BB902F0AAFB0146084602B010BD0B
:101EC0000049F7E76D1B000013B504460DF106014C
:101ED00080300EF0D1FE20B9BDF80610206802F067
:101EE0009DFB02B010BD13B504460DF10601803014
:101EF0000EF0C2FE20B9BDF80610206802F091FB7A
:101F000002B010BDF0B500F1800585B00C46284642
:101F10000DF10A0203A90EF033FF0646002877D11F
:101F2000BDF80A207F2A76D8264656F8060B039974
:101F3000A2800FF01DFA314628460EF06FFE0646CD
:101F4000002865D1A379C4E90400A37640F60473A0
:101F500023837F23E376237F284623F0170343F070
:101F60000403237704F118010EF058FE00284FD126
:101F7000284604F119010EF051FE002848D12846E8
:101F80000DF106010EF05AFE002841D1237F9DF885
:101F90000620284662F38203237702A90EF04EFE44
:101FA000B0BB237F9DF80820284662F30003237707
:101FB0000DF107010EF042FE50BB237F9DF8072074
:101FC000284662F3410323770DF109010EF036FE36
:101FD000F0B9237F9DF80920284662F30413237784
:101FE00004F114010EF05CFE90B9284604F11001D2
:101FF0000EF056FE60B9284604F11A010EF00EFEEE
:10200000074628B9284604F11B010EF029FE3E467A
:10201000304605B0F0BD0626FAE7000011F0300F9B
:1020200038B504460D4600D0FEE7006802F0F1FA2C
:10203000A0B1206802F017FB0146D0B12046FFF79F
:1020400061FF034658B90C49206802F00EFB0346B5
:1020500028B905F00F0584F8545938BD0D231846EA
:10206000FEF7C0FB294602462046BDE83840FEF791
:102070004FBD0323F3E700BF691C000030B500F13A
:10208000800487B0054602A920460EF0C7FD20B99E
:102090009DF80830082B02D0072007B030BD20463D
:1020A0000DF109010EF0BAFD0028F6D120460DF120
:1020B0000A0203A90EF064FE0028EED1BDF80A3032
:1020C000102BE9D120460DF10A0204A90EF058FEAA
:1020D0000028E2D1BDF80A30102BDDD120460DF1E9
:1020E0000A0205A90EF04CFE0028D6D1BDF80A3030
:1020F000102BD1D1059B9DF809200193049B9DF8DD
:10210000081000932868039B02F002FBC5E7002338
:1021100037B500F18005044601A928468DF8033043
:102120000EF0BEFDA0B9B4F88620B4F888309A420B
:1021300007D19DF80330206801995BB902F0EBFAF2
:1021400006E028460DF103010EF078FD0028F0D0DE
:1021500003B030BD02F0E3FAFAE7002337B500F12F
:10216000800504460DF1020128468DF800300EF07E
:1021700083FD98B90822284601A90EF0E8FD68B948
:10218000012269462046FFF7AAFB38B9019BBDF83A
:1021900002209DF80010206801F0CAFB03B030BD9A
:1021A00021207047002330B5184C25688D4225D179
:1021B0006568954222D1C3F12004D0E90225A3F13C
:1021C000200105FA04F4DA40224325FA01F10A431A
:1021D00012F0010FC3F12004A3F120020DD101215F
:1021E00001FA02F221FA04F4224301FA03F3D0E9DE
:1021F00000140B432243C0E9003230BD0133DBB28F
:10220000212B04F10C04D0D1F7E700BFD029010045
:1022100000232DE9F04F93461F4601261F4C94F8EA
:1022200014C05D1CBCF1000F26D0E2688A4223D1A5
:10223000D0E902791F3BC5F1200E26FA0EFE06FA00
:1022400003F343EA0E0306FA05FA6FEA0A086FEA97
:10225000030EBBF1000F18D04AEA070743EA09034F
:10226000C0E90273D0E9003703EA080307EA0E0762
:10227000C0E9003731B96746202D2B4604F10C0424
:10228000CDD14FB10020BDE8F08F08EA07070EEA74
:102290000903C0E90273EDE70720F4E7D029010044
:1022A000002230B50F4B0132D2B2212A03F10C03C8
:1022B00001D1002015E01C7A002CF4D01C688C425F
:1022C000F1D1C2F12004D0E90235A2F1200123FAB4
:1022D00002F005FA04F4204325FA01F1084300F066
:1022E000010030BDD02901007047000070B511F029
:1022F00001040646154652D00021222009F03AFE7C
:1023000000211D2009F036FE0021232009F032FEB5
:10231000304609F02BFB2B88C00FB3F5C15F07D007
:1023200043F60702934214D040F60202934222D1B0
:10233000EB7B5A061FD00022264968B1222009F003
:10234000B7FD32221D20234909F0B2FD2F22214979
:102350000CE095F82430ECE7222009F0A9FD0022DA
:102360001C491D2009F0A4FD00221B492320BDE8C3
:10237000704009F09DBD58B12F222220154909F067
:1023800097FD32221D20134909F092FD0022DEE75D
:1023900000222220104909F08BFD0022F2E78B0772
:1023A00017D52146222009F0E5FD21461D2009F020
:1023B000E1FD2146232009F0DDFD224605492220CA
:1023C00009F076FD22461D20024909F071FD2246E2
:1023D000BDE770BD00C0002001C0002070B50446FC
:1023E0000D461646FFF780FF324629462046FFF786
:1023F0007DFF70BD38B500210546262009F0BAFDE5
:1024000007240021272009F0B5FD45FA04F1242016
:1024100001F0010109F0AEFD0121272009F0AAFD1C
:1024200008200DF0A7F8013CEBD20021272009F08D
:10243000A1FD2620012109F09DFDBDE838404FF4A3
:102440002F700DF097B8000008B50A49262009F052
:10245000CDFC0021262009F08DFD01200DF08AF829
:102460002620012109F086FDBDE808404FF40C70DC
:102470000DF080B801C8002008B5FFF7E5FF10494E
:10248000262009F0B3FC0F49272009F0AFFC0D49C5
:10249000242009F0ABFC0C49252009F0A7FCB92049
:1024A000FFF7A8FF262009F077FC272009F074FC2D
:1024B000242009F071FCBDE80840252009F06CBC1F
:1024C00001C8002000C8002002400020704708B565
:1024D0000AF072F90BF01EFFFFF7CEFFFFF7F6FFD1
:1024E00008BD01F083BC000038B9064A1368013307
:1024F00013600122044B1A7070470128FCD100229E
:10250000014BF8E7681C0020F004002010B50446D9
:1025100004F026FC3CB14FF47A735C4384422CBF38
:10252000B4FBF0F40124204610BD38B504460D4636
:1025300004F016FC54EA050203460ED0A0FB040189
:1025400003FB0511002908BFB0F57A7F07D34FF4CC
:102550007A720023FDF7D4FD0446204638BD0124DD
:10256000FBE700007FB5224E357845BB01A804F09B
:102570006BFA01238DF804304FF0FF33029304F01F
:10258000F1FBC243B2F5002F98BF1A4BA2F500240D
:1025900098BF1D704FF000034FF0010598BF04F184
:1025A000FF3415490393154801AB04F09BFB224609
:1025B0001149134801AB039504F094FB357004F006
:1025C0003FFC064604F0CEFBB0F5002F05460D4B50
:1025D0000BD2084A1C6812783AB90134304604F02C
:1025E00067FC2846214604B070BD1C68F6E700BFB2
:1025F000201C0020F0040020E9240000241C0020FE
:10260000DC1B0020681C002010B50024074B184676
:1026100004F01AFA054B2246054906481C7004F0DE
:1026200061FB054B1860054B1C7010BD7C1B002026
:10263000E3240000881B0020CC1B0020D01B0020BE
:1026400008B5FFF78FFFBDE80840FFF76EBF000039
:1026500038B50C461546FFF7F3FF01220D4B1C6001
:102660000D4B1D600D4B1A70031BAB4203D3BDE82D
:10267000384001F0BBBB2C44201AFFF747FF084C41
:102680000146206804F055FB2068BDE8384004F09E
:10269000EFBA00BFD81B0020D41B0020D01B0020A5
:1026A000CC1B002008B5044B186804F03FFB002247
:1026B000024B1A7008BD00BFCC1B0020D01B0020AD
:1026C00038B50E4D04462B78BBB1FFF7B9FF0C4B64
:1026D00001461A680B4B801A1B68834206D80023F8
:1026E00020462B70BDE8384002F016B91A44204647
:1026F000BDE83840521AFFF7ABBF38BDD01B0020F1
:10270000D81B0020D41B002008B50CF027FF034A7B
:10271000136843F000431360FEE700BF2800095828
:1027200008B50DF0A3FE082896BF024B0720185CE1
:1027300008BD00BF3C2C01007047FEE7044B0021A0
:102740001A68134619711B689A42FBD1704700BF83
:10275000B4210020002208F0A9BF000010B400241A
:10276000204603F08071014334D103F0E04150EA88
:10277000010307D00B221A4B01201A705DF8044B9D
:1027800001F08CBB214602F00A0050EA010323D07D
:10279000144A53889BB203B15388134B5B889BB296
:1027A000B3F5105F0E4B13D1104A518889B269B14D
:1027B00042F20340518889B2814207D042F204417B
:1027C000528892B28A4201D00E22D5E70022D3E786
:1027D0000F22D1E78020D1E75DF8044B704700BF9E
:1027E000662200203C1D00204C220020501F0020AB
:1027F000022001F053BB000008B50E4B01469B7B45
:10280000FF2B03D1431CA8BF4FF0FF310A4809F04A
:1028100019F90A4BC0F315029A42014607D0084B3A
:10282000186809F092F8833818BF012008BD072006
:10283000FCE700BFE01D00201C050020FFFF3F005B
:102840003C1E002030B400250F4C256042F20305E9
:10285000258083B1A37843F00103A370A37843F0EC
:102860000203A370A37862F38203A370E1700649A8
:1028700030BC09F067B8A57863F30005A570A578AA
:1028800063F34105A570EDE7981D0020D0E9042011
:1028900052EA000310B519D101F0FCFDA0240C4B45
:1028A0000C4A1B6812686343B2FBF3F103FB11216E
:1028B000B0FBF3F203FB120219448A1AB2FBF3F0E5
:1028C00003FB1023B3FBF4F080B210BD1044E5E726
:1028D000341D0020381D00202DE9F0470F780446F4
:1028E000063FCE190D46D6F803A001F0D3FD804671
:1028F000894607F0B1FE6FF01302A0EB0A008008D2
:10290000B8EB000869F10009C4E902896B7803F0AB
:102910007F03A380AB1C2360264B9B7BA371EB57EB
:1029200093426375A8BF13466FF04F029342B8BF3E
:1029300013463C225033C3EB0323B3FBF2F3A375DE
:10294000B378FF2B31D00122590903F01F0302FA9B
:1029500003F3EA7812F0400F4FEA810214BF1649E0
:1029600016490A4452681A4214BF01230023E27D2B
:10297000204663F30002E27501F0BEFC48B1E37D3E
:1029800043F00203E3750E4B1B6823610D4B1B786C
:10299000237596F90130002B09DA28220021204600
:1029A0000EF00DFD1120BDE8F0870023DFE70020C9
:1029B000F9E700BFE01D0020C02100201822002000
:1029C000981C0020B01C002030B5104D0446B5F90D
:1029D00000308BB0002B17DA02A808F0F7FB0C4B85
:1029E0000C491B780C4A8DF824300C4B20461B7880
:1029F0008DF8253000234B800023CDE90023084BC0
:102A000002AA08F0EFFB28800BB030BDF2040020D2
:102A1000BC1D0020E01D00202200D000391E002037
:102A2000953B0000F7B5044601F08CFC18B9002670
:102A3000304603B0F0BD204601F089FC0028F6D0F6
:102A4000267F16F01006F2D1204601F025FC002862
:102A50003AD0204601F08CFC0546002837D01E4BAA
:102A60001B785A1E904226D11C4BA360237F9B07E4
:102A700013D4204601F010FC194F20B1194B3A68CD
:102A80001D70194B1A602946204601F07EFC3968FA
:102A900020464B1C3B6001F07AFC6A460823114635
:102AA000124810F80159013B02F8015BF9D12046A8
:102AB00001F020FCBCE7984201D10D4BD5E7013372
:102AC000984206D10B4BD0E7034B1D78F5E7012662
:102AD000AEE70826ACE700BF881D0020AC1D002033
:102AE0008C1D0020B01C0020981C00200F1E002010
:102AF0005C1D00209C1D00202DE9F0478CB007468E
:102B000004A80E46904608F061FBDFF8E8C1DFF844
:102B1000D0E164466E4D0FCD0FC495E80F007546A9
:102B200084E80F006B4C0FCC0FC594E803006A4C8F
:102B300085E803000FCC694D0FC5AA460121236823
:102B400074464AF810393379023BDBB28EF80F3005
:102B50003368CEF810309EF80D3061F303038EF821
:102B60000D307369002B72D035691D44B8F1000F28
:102B700066D101F08FFC804607F06EFDB8EB0508CA
:102B8000A0F5A070A0EB8800A0600222237B544D2A
:102B900062F303032373237B43F080032373A3684F
:102BA000049301238DF814304FF0FF330693304621
:102BB00001F07AFB60B30222C4F804A0637B3046C4
:102BC00062F303030DF10F01637301F084FB07222D
:102BD0009AF80C30304643F080038AF80C309DF8A8
:102BE0000F308AF80E309AF80F3062F30303012297
:102BF0008AF80F309AF80D3062F303038AF80D302B
:102C000001F07AFB00285FD04FF48E43CAF81030F1
:102C10000022344B29461B7838468DF82C30324B35
:102C20001B788DF82D30314B1A7008220023CDE926
:102C300000232F4B04AA08F0D5FA0CB0BDE8F087AA
:102C400005F18043503B9B00CEF808309DE7022001
:102C5000CCF808309CF80C20049363F303028CF842
:102C60000C209CF80C208DF8143042F080028CF877
:102C70000C209CF80D20654660F303028CF80D20B3
:102C8000CCF804E08CF810308CF814308CF811106B
:102C90008CF813308CF815309CF8122061F3040284
:102CA0008CF81220CEF808309EF80C2063F3030253
:102CB0004FF0FF338EF80C209EF80C20069342F064
:102CC00080028EF80C2072E74FF420639EE700BF6D
:102CD000982E01005C2F0100482F0100501F00209A
:102CE0004C220020BC1D0020391E0020662200203E
:102CF0005D2700003C1D0020424B2DE9F04FD3F82A
:102D000000A0054688465446DFF80CB13E4FDFF878
:102D10000C918FB02379032B04D0042B21D10023F5
:102D200023711EE02822002104A80EF048FB04F1C4
:102D3000080104A8FFF7D0FD0646C0B100232371A7
:102D40003B78032B08D1314BB3F90010304B186896
:102D5000FFF700FD02233B703246284604A903F02A
:102D600051FA2468A245D5D10FB0BDE8F08F04A870
:102D700001F092FA48B33B78052BD0D1484601F0D8
:102D800093FA0028CBD00DF10E0104A801F0A3FAAC
:102D90000028C4D148460DF10F0101F09CFA00282B
:102DA000BDD19DF80E209DF80F309A42B7D1022375
:102DB0003B70184B1A69002AB1D018614946034686
:102DC00004AA284603F02CFAA9E704A801F06CFA3B
:102DD000024670B118F0080FC3D004A801F08CFAB5
:102DE00008B19BF800603246284604A903F00AFAAD
:102DF00095E7019004A9284603F004FA019A22718C
:102E0000AFE700BFB4210020482200204A22002062
:102E10003C1E00204C220020662200206822002058
:102E200030B40B490B4C0B781BB92269127892060F
:102E30000BD4002202250A7007490D70216921B1C7
:102E40002261064930BC03F0EBB930BC704700BFCB
:102E5000662200204C220020482200206822002008
:102E600070B5074E074D34460FCD0FC495E80F00DF
:102E700084E80F00337B43F08003337370BD00BFE1
:102E8000C01D0020D02E0100014B187F40B27047BA
:102E9000E01D00202DE9F041564CDFF89C81564F93
:102EA00090220021201D554E0EF089FA902200211B
:102EB00008F104000EF083FA90220021381D0EF074
:102EC0007EFA00219022301D0EF079FA01254FF094
:102ED000000265F3830288F805204FF000024FF0EE
:102EE000000365F3830265F383037A714FF00002F8
:102EF00063718C2365F3830234607271F3803E60EA
:102F00003F4EE380C4F8008034600024A8F8063007
:102F1000FB803C4B3C4A1C703C4BC8F800701A606C
:102F20003B4A9C80DA603B4B3B4A9C801A603B4AA0
:102F30007460DA60FFF794FF394B5822184639491C
:102F40000EF016FA384A066142610A223749C27702
:102F500041628277364A374B02620B228273A62285
:102F60000277027B42F080020273427B65F3030228
:102F70004273C27B2A43C273C27B42F00202C27315
:102F8000C27B42F00402C273C27B42F02002C273D1
:102F9000C27B42F01002C273C27B42F04002C27395
:102FA000C27B42F08002C273028B2A430283028BEF
:102FB00042F002020283028B64F382020283028BDC
:102FC00064F3CF320283C27E2A43C276C27E42F0CD
:102FD0000202C276C27E42F00402C276C27E42F093
:102FE0001002C276C27E65F34612C2761C70BDE83E
:102FF000F08100BF641F00208C20002020210020D1
:10300000B4210020A0220020A42200206822002059
:1030100090220020701C0020B41C0020A01C002066
:10302000E01D0020F02E0100401F0020182200208B
:10303000C021002048220020F81F002030B5124D8A
:1030400089B02B78012B1BD02B7803F0FF04CBB970
:10305000684608F039FB0D4B0D4A03930D4B0E49A2
:1030600007930E486B4608F03BFB0D4B186001239D
:1030700020B92C701C46204609B030BD2B70FAE7F1
:103080000024F8E70524F6E7482200203B2700004B
:10309000C01D0020ADFE0080F4040020401E002072
:1030A0003C1E0020024B1878003818BF01207047E2
:1030B0004822002010B5084C237803F0FF0043B1EC
:1030C0002378012B06D1054B186808F00DFA002073
:1030D000207010BD0520FCE7482200203C1E002087
:1030E0000C2070470C2070472DE9F04F3A4F904666
:1030F0003B788B46012B8BB0DAB20AD0022A66D11C
:1031000004233B70354BB3F90010354B1868FFF7BB
:1031100021FB4FF00409334C314B254602A8D3F86C
:1031200000A087F8009008F051F82F4B2F4E1B7825
:103130008DF824302E4B1B788DF825300FCE0FC51F
:1031400096E80300A62385E80300012584F80EB065
:103150002374237B4FF47A6243F080032373637BF1
:1031600002FB08F265F303036373E37B21462B4301
:10317000E373E37B504643F00203E373E37B43EAEC
:103180000903E373E37B43F00803E373E37B6FF32B
:103190000413E373E37B43F06003E373E37C69F3BD
:1031A0000303E374E37C43F08003E3740023626170
:1031B0000222CDE900230F4B02AA08F013F80028E1
:1031C00007DA284601233B700BB0BDE8F08F0520DD
:1031D000F8E70020F8E700BF48220020F2040020B2
:1031E0003C1E0020701D0020BC1D0020B82E0100D8
:1031F000391E0020F1270000024B08461970FFF726
:10320000FBBA00BF381E002010B50C4651B1064B6A
:10321000186808F0ABFB0146044808F0F3FB207087
:10322000002010BD0720FCE73C1E00201C050020EC
:103230002DE9F0474F4E1F4633788846052B15463B
:1032400008D1022333704C4BB3F900104B4B186874
:10325000FFF780FA3378012B36D1494B49481B7868
:103260000BB980F80E80037BF5B9791C1CD10122C3
:1032700065F30303037390F8373062F3030380F8B8
:10328000373085608563404B93F90000FFF7B4FA4F
:103290003A4B1868FFF798FB3C4BB3F90030002B12
:1032A00062DA0120BDE8F087022262F30303042200
:1032B000037390F83730AD0062F30303BF0080F86A
:1032C000373085608763DEE73378022B02D03378AE
:1032D000032B4DD12B4CA37B434547D0284B1B7868
:1032E000002B43D13378DFF89490032B06D1284B81
:1032F000D9F80000B3F90010FFF72CFADFF88CA022
:10330000D9F80000BAF90010FFF724FA84F80E800B
:10331000237BCDB97A1C17D1012265F303032373F4
:1033200094F8373062F3030384F83730A560A5635F
:10333000154B93F90000FFF75FFAD9F80000FFF78B
:1033400043FBBAF90030AAE7022262F30303042226
:10335000237394F83730AD0062F30303BF0084F8A1
:103360003730A560A763E3E702233370002099E7B5
:10337000052097E748220020642200203C1E002000
:103380006C1D0020E01D0020381E0020F2040020EB
:103390004A22002008B500224FF0FF33FFF748FF14
:1033A00008BD000010B50B4C2378012B0ED02378FC
:1033B000022B0DD1084BB3F90010084B1868FFF72A
:1033C000C9F901231020237000F068FD002010BD12
:1033D0000520FCE748220020F20400203C1E0020CB
:1033E000004870476822002038B5094B0C461D681C
:1033F00065B10B7FDB0709D40846FFF747FAA9B28E
:1034000002462046BDE8384000F09ABF38BD00BFF4
:10341000341D0020F0B5254B07461A780E46032AC6
:103420008BB01ED1DFF898C09CF80050CDB90FCEFC
:103430006C460FC40FCE6F460FC496E803000123FD
:103440001B4E84E803008CF800300FCF0FC60FCF5F
:103450000FC694E803002C4686E8030020460BB014
:10346000F0BD1A780524022AF8D1314638461C707E
:10347000FFF7BAFF3046FFF7D5FA044608B101243A
:10348000ECE70C4B384693F90010FFF7B5FE0A4BFA
:10349000224618683146FFF72FFB084B002818809A
:1034A000EDDB3146384602F0B4FED7E74822002073
:1034B00068220020381E00203C1E002064220020CC
:1034C000A0220020014B987A40B27047401F002094
:1034D0006320704738B542F202030D460B490C4C8D
:1034E0000B80238B9BB24B80A37EDBB20B714B888E
:1034F00065F304134B80074B186808F023FA812802
:103500001EBF238B65F30413238338BD901D002059
:10351000E01D00203C1E00201B4870B5002304461F
:103520009A1C30F82220DDB292B2914218D00133B9
:103530000A2BF5D100230122206802FA03F6064285
:10354000DDB204D001330A2BF6D1032070BD023363
:103550000E4A24F82310528E04EB830392B25A8051
:103560000B480123002229460068FFF76BF98128E8
:1035700008D00123626803FA05F10A4362602368F8
:10358000194321600020E1E718220020E01D0020FF
:103590003C1E002038B50B460024114DA21C35F806
:1035A0002220E1B292B2934204D001340A2CF5D128
:1035B000204638BD00230B481A460068FFF742F941
:1035C00081280AD001206B6800FA04F423EA04037E
:1035D0006B60286820EA04042C600020E9E700BF43
:1035E000182200203C1E00201B4AF8B5D1E900013A
:1035F00000231446DDB2013302EBC306D6E90067AF
:10360000B94208BFB04213D00A2BF3D100230122E4
:10361000266802FA03F73742DDB203F1010303D053
:103620000A2BF5D10320F8BD04EBC303C3E9000165
:1036300001230A481A4629460068FFF703F9812842
:1036400007D001216368A9400B43636023681943D5
:1036500021600020E7E700BFC02100203C1E0020C1
:103660002DE9F843D1E90067164900230C46DAB288
:10367000013301EBC300D0E900894F4508BF46453F
:1036800002D00A2BF3D1FF22FF2A14BF0125002507
:1036900015D00D480023012229460068FFF7D2F813
:1036A00081280AD00123626803FA05F122EA0102A7
:1036B0006260236823EA01012160002000E00A2003
:1036C000BDE8F883C02100203C1E002038B50E4B19
:1036D0001A78022A02D01B78052B0DD100240B4D3D
:1036E000002328681A46E1B2FFF7ACF8012802D19E
:1036F00001340A2CF4D138BD3022BDE83840002115
:1037000003480DF05CBE00BF482200203C1E002094
:103710001822002038B50E4B1A78022A02D01B78E6
:10372000052B0DD100240B4D002301222868E1B2A6
:10373000FFF788F8012802D101340A2CF4D138BDF2
:103740005822BDE83840002103480DF038BE00BFC4
:10375000482200203C1E0020C0210020034B188B73
:1037600000F0010080F00100704700BFE01D002064
:1037700038B542F2020381F001050C490C4C0B8074
:10378000238B9BB24B80A37EDBB20B714B8865F31E
:1037900000034B80074B186808F0D4F881281EBF3F
:1037A000238B65F30003238338BD00BF901D0020E9
:1037B000E01D00203C1E002070B59DF81810DDE9CA
:1037C000045491B98BB185B17CB10849084E0A7097
:1037D0000FCB86E80F00074E95E80F0086E80F0034
:1037E000054D94E80F0085E80F0070BD881D00208E
:1037F000AC1D00205C1D00209C1D0020014B1960A9
:10380000704700BF8C1D002000F044BE0A4B0B4ADD
:103810001878FF280DD101339342F9D1084B03F1F9
:103820000802013912F8010D9A4201F8010FF9D18D
:103830007047014BF3E700BF180000502000005014
:10384000F00A005070B50B4B0C461A780A4E012A4C
:1038500001D01B780BB9748670BD084D084B2868E1
:10386000B3F90010FEF776FF28687486BDE8704053
:10387000FFF7AAB848220020E01D00203C1E0020CF
:10388000F204002070B50E4B0C461A780D4E012A3A
:1038900001D01B7823B9D4E90023C6E90A2370BDFF
:1038A000094D0A4B2868B3F90010FEF753FFD4E91D
:1038B00000232868C6E90A23BDE87040FFF784B8F2
:1038C00048220020E01D00203C1E0020F2040020C1
:1038D00070B50B4B0C461A780A4E012A01D01B78A2
:1038E0000BB9348670BD084D084B2868B3F9001039
:1038F000FEF730FF28683486BDE87040FFF764B8F3
:1039000048220020E01D00203C1E0020F204002080
:10391000014B1960704700BF381D0020014B00208B
:1039200019607047341D00200A20704750207047EE
:1039300010460A46194600F0D5BB00004A4B30B588
:103940001A6893B014462379013B012B00F286805C
:103950002822002108A80DF032FD0A3414F8013C99
:103960000894424C03F07F03ADF82430A37B08A8F1
:103970008DF8263000F098FC00285FD008A800F0F1
:10398000BBFC002861D0089B01A91A88002312F013
:10399000400F08A814BF03240524CDE90133ADF876
:1039A0000C3000F086FC0546002847D19DF80C300D
:1039B000012B45D0022B46D0002B3FD108A800F0A8
:1039C000C1FC08B10A34E4B2294B01A81B68002BE2
:1039D0004FF0000318BF0625CDE90433CDE90633C7
:1039E000ADF8003000F036FC20B10246694604A86C
:1039F00000F0EEFCA31CEC1850FA84F01D4C9DF86E
:103A00002630C2B200212068A371A2800DF0D7FC3D
:103A1000194B01221B6821469B082361BDF8243005
:103A20000C335B016361154B1868FFF765F8144BA5
:103A30001880144BB3F90030002B0BDC13B030BDF1
:103A40000234E4B2BAE70834FBE7238B43F0040303
:103A50002383F3E703220C4B1A70EFE72468A2429A
:103A60007FF471AFEAE700BFB4210020E01D002021
:103A7000341D0020701C0020780100213C1E002015
:103A80004A2200206422002048220020282270B50B
:103A90009EB000210DEB02000DF091FC384B394E29
:103AA0001C6825462B79032B13D12822002114A84A
:103AB0000DF085FC6B7A14A803F07F03ADF8543049
:103AC00005F10A031493B37B8DF8563000F0ECFB3C
:103AD00018B92D68A542E5D14DE005F108010AA805
:103AE000FEF7FAFE0446002845D10AA800F004FCBF
:103AF000002840D0244B1B78032B3ED1338B234D21
:103B000064F3820333832A681AB106A800F042FCEA
:103B10000446002303A90AA8CDE90333ADF8143005
:103B200000F0C7FBD0B99DF93D209DF83E1002ABD7
:103B300003A800F051FB024628B102A906A800F034
:103B400047FC2044C4B2124B9DF83F10009306AAD4
:103B5000234601F001010AA800F0D8FB2C683CB113
:103B60000B48FEF793FEA1B20246094800F0E8FBBD
:103B70000748FEF757FF1EB070BD2C71FBE700BF72
:103B8000B4210020E01D002048220020341D002028
:103B9000701C002038B51D460023194602F4800031
:103BA0000143194602F4801014BF20241C4650EA39
:103BB00001034FF00003194602F0200018BF44F43F
:103BC00000740143194602F4000018BF44F00804D1
:103BD00050EA010316D0FFF759FF44F00404002215
:103BE00005F08073134307D04FF6FE720D4B1A8019
:103BF0000D4B1868FEF7E8FE94B12046BDE838404A
:103C000000F04CB902F0020005F0E04150EA010377
:103C10001FBF4FF6FE72034B44F040041A80DEE7EC
:103C200038BD00BFF20400203C1E002070B5434E9A
:103C3000054633780C46013B042B54D8DFE803F0EB
:103C4000036D39591200CB0605D5FEF777FD3C4BC5
:103C5000186807F0E9FC14F00C0F44D0BDE8704080
:103C6000FEF76CBD0E0606D50B22364B1A70BDE86A
:103C70007040FFF7D5B8C80702D52846FFF7D0F83F
:103C800014F00C0F03D021462846FFF735F8A106A3
:103C900007D5FEF753FD0B222A4B28461A70FFF773
:103CA000BFF863061FD5BDE87040254B1868FEF7C6
:103CB0008BBECA0718D5022341F008042146337091
:103CC000FFF71AF8204B1A782AB1002228461F491C
:103CD0001A70FFF79FFB640605D5194B1868FEF7AD
:103CE00073FE0223337070BD4B07F4D5FFF704F861
:103CF000F1E7880711D502233370114B1868FEF7DE
:103D000063FE134A284653889BB2B3F5105F0ABF7F
:103D1000917C7F2149B202F08FFAA10502D5284695
:103D2000FFF70CFE14F00C0F03D021462846FEF7D7
:103D3000E3FFA206B5D5FEF701FDB2E74822002059
:103D40003C1E002066220020A022002068220020C5
:103D5000701D002030B5102200240823104D85B0BE
:103D6000CDE9012344F201216B4622462846039403
:103D7000009403F071FC0B4B224621461860234649
:103D8000284603F069FC084B1860FEF73DFC00F084
:103D900065FB00F0E9FBFFF77DF805B030BD00BF23
:103DA000672C0100242300202823002000207047D6
:103DB000022307B509488DF8003008220023694620
:103DC000006803F03FFD28B19221054B054A0648E3
:103DD0000DF08AFA03B05DF804FB00BF2423002035
:103DE000452C0100752C01004E2C0100002307B565
:103DF00008480822694600688DF8003003F022FD6B
:103E000028B19D21044B054A05480DF06DFA03B019
:103E10005DF804FB24230020452C01008D2C0100BB
:103E20004E2C0100042307B509488DF80030082204
:103E300000236946006803F005FD28B1A821054B61
:103E4000054A06480DF050FA03B05DF804FB00BFC8
:103E500024230020452C0100A12C01004E2C010040
:103E6000032307B5019009488DF80030082200238C
:103E70006946006803F0E6FC28B1B421044B054A0A
:103E800005480DF031FA03B05DF804FB242300204F
:103E9000452C0100BA2C01004E2C0100012307B56E
:103EA000019009488DF80030082200236946006817
:103EB00003F0C8FC28B1CB21044B054A05480DF09E
:103EC00013FA03B05DF804FB24230020452C010005
:103ED000CD2C01004E2C010037B50446174D20466D
:103EE00000F04DFC034638BB08226946286803F001
:103EF00081FC0828F3D19DF80030052BEFD8DFE8CE
:103F000003F003070C1014182046FEF7D9FBE6E770
:103F100020460199FFF78AFEE1E7204600F024FCE5
:103F2000DDE7019800F084F8D9E7204600F0F8FAC0
:103F3000D5E700F051FBD2E703B030BD28230020C5
:103F400030B514460E4DC3B0294601A80DF010FA45
:103F50000C4801A9002340F2011200688DF80441C9
:103F600003F070FC0220FFF77BFF074800234FF4AB
:103F700080722946006809F0E1FA43B030BD00BF05
:103F80002C230020302400202C24002010B58EB0DB
:103F900005A809F099F92022184B099206934FF4CD
:103FA000E122012300248DF828300B92ADF8143063
:103FB0000322062040F20113ADF83020CDE90203C0
:103FC000224601AB44F202210D488DF8324007949D
:103FD0000494019403F040FB0A4B05A918602046A5
:103FE00009F0BEFC084B4FF4807208491860234664
:103FF00009F0A4FA20460EB010BD00BF413F0000FA
:10400000E12C0100302400202C2400202C2300204F
:1040100008B50A46014605480023006809F002FC7D
:104020000120FFF71DFF002008BD00BF2C24002049
:1040300010B5C2070446C2B001D5FCF731FAA30798
:104040000CD5074801A9002340F20112006803F0D3
:10405000D1FB9DF8041101A8FCF720FA42B010BD75
:104060003024002038B5084DD5E88F3F13F0010407
:1040700008D128460DF028F920B1044B28461C60D1
:104080000DF02EF9014838BD38240020E42400202A
:1040900070B51248D0E88F4F14F001041BD10DF019
:1040A00013F9C0B10E4D2C600D4E1022301D20446E
:1040B000002110340DF083F9A02CF5D10A233246EB
:1040C0002968013B42F8041F2A6006F11006F6D168
:1040D00002480DF005F9024870BD00BF34240020ED
:1040E000402400202DE9F041074615468846002966
:1040F00039D0E80712D4A90710D46A070ED42B07C9
:10410000C5F3C0060AD4FFF7ADFF026814466CB3CE
:10411000E188B9422CD026462468F8E7FFF7A2FFD1
:104120000468002C2FD0E388BB4212D02468F8E743
:10413000326812B3126832601FE0236810220360F5
:10414000002120460DF03BF9FFF78CFF0368236048
:1041500004602571E780D8F80030A360D8F80430F7
:10416000E360002000E00720BDE8F0811720FBE7B6
:10417000002EDDD10AB113680360FFF789FF0368E1
:1041800023600460EDE7FFF783FF0468002CD4D1BF
:104190000320E9E738B50546D0B1037A012B09D1F0
:1041A000FFF760FF04689CB1E2882B889A4210D028
:1041B0002468F8E7022B0BD1FFF754FF04683CB1E9
:1041C00008222946A0180DF0C5F810B12468F6E7BA
:1041D0000024204638BD00002DE9F04188461546F0
:1041E0001E46FFF7D7FF074658B366B30379990712
:1041F00048BF86F80080C3F34004037948BF012418
:104200005A070FD5124B294693F9000002F039F8EE
:1042100002B28220C2EB0222B2FBF0F2012C325534
:1042200013D001243B791B0708D582218235C5EBC9
:104230000525B5FBF1F5631C3555DCB22046BDE81C
:10424000F0810446FAE73446F8E70224F6E700BFB7
:104250003C24002008B5FFF79DFF48B10379C3F364
:104260004000C3F380021044C3F3C0031844C0B23B
:1042700008BD037A0A46012B04D0022B06D053B99D
:104280000B7270470B7203880B8070470B720346EA
:1042900003CB1060516070470368187800F0070086
:1042A000831E58425841704703681878C0F3401085
:1042B0007047002330B585B00D4601A98DF80C304C
:1042C00000F0E6FD044618B9294601A8FFF7D1FF22
:1042D000204605B030BD38B503680D465B781B023B
:1042E00013F4807404D100F025FD2870204638BDF9
:1042F0000620FCE701F09DB803685878000200F43E
:104300004050A0F5005358425841704710B5029CE8
:1043100000B12CB9C621074B074A08480CF0E4FF4E
:10432000029313460A4601462046BDE8104001F0BC
:10433000E3B800BFF12C0100A12D0100632D0100A5
:1043400001F06EB803681878C0F3C000704707B575
:104350000DF1070100F03FFF40B99DF80700A0F103
:1043600008035842584103B05DF804FB0020FAE707
:10437000002307B50DF107018DF8073000F064FF49
:104380009DF8070003B05DF804FB00F071BF00F07A
:1043900042BF000008B530B940F20911094B0A4A82
:1043A0000A480CF0A1FF038823F4FF4343F4506351
:1043B0000380037823F07F0343F004030370062097
:1043C00008BD00BF052E0100162E0100632D01005F
:1043D00070B5151D1446EDB230B940F217110F4BF0
:1043E0000F4A10480CF080FF038805F07F0523F486
:1043F000FF430380037823F07F032B4303709B2349
:104400008370B823C370EA2303710023437111B191
:1044100006300CF0ADFFA01DC0B270BD052E01002E
:10442000482E0100632D0100FFF7FCBC10B50446C7
:1044300002F096FC24B184422CBFB4FBF0F40124BA
:10444000204610BD10B5044602F08AFC1CB144435E
:10445000012C38BF0124204610BD000010B50024F7
:10446000074B184602F0F0FA054B2246054906486C
:104470001C7002F037FC054B1860054B1C7010BD1A
:10448000E824002029440000F424002038250020DE
:104490003C25002008B502F065FCFFF7D3FF0021A2
:1044A00008BD08B502F05EFCBDE80840FFF7CABFD2
:1044B00038B50C461546FFF7F4FF01220D4B1C6082
:1044C0000D4B1D600D4B1A70031BAB4203D3BDE8AF
:1044D0003840FFF7A7BC2C44201AFFF7A7FF084C71
:1044E0000146206802F025FC2068BDE8384002F053
:1044F000BFBB00BF44250020402500203C250020F4
:104500003825002008B5044B186802F00FFC002283
:10451000024B1A7008BD00BF382500203C25002042
:1045200038B50E4D04462B78BBB1FFF7BAFF0C4BE4
:1045300001461A680B4B801A1B68834206D8002379
:1045400020462B70BDE8384000F01EBA1A442046C1
:10455000BDE83840521AFFF7ABBF38BD3C250020FC
:1045600044250020402500207FB50AF073FC01A8F7
:1045700008F096FE042300200DEB03018DF80430B3
:1045800008F09AFE054B186028B97A21044B054AB9
:1045900005480CF0A9FE07B05DF804FB180E0120D9
:1045A000742F0100A52F01008B2F01001FB50A46B3
:1045B000014668B1684607F0E9FB064B6946186892
:1045C0000AF0E4FC003818BF012005B05DF804FBD8
:1045D0000720FAE7180E0120034B1B6813B1034AAA
:1045E00010681847704700BF4C2500204825002060
:1045F00000F0F0B90120704700F009BA00F0FAB9F4
:1046000000F0FAB900487047B82F0100143000F0EC
:1046100030BA8069003818BF01207047143000F0AC
:1046200054BA143000F05BBA0148FFF797B800BFE6
:104630005025002008B5836923B10348FFF798F897
:10464000002008BD0D20FCE750250020836913B130
:104650000248FEF7A7BE0D20704700BF502500207E
:10466000143000F046BAC06B7047143000F058BAEE
:10467000243001F0B7B8143000F06CBA08B5836983
:1046800023B10348FEF726FF002008BD0D20FCE7FC
:1046900050250020836913B10248FEF73DBF0D206D
:1046A000704700BF50250020836913B1113001F01D
:1046B00095BD0D2070470000836913B10248FEF7D5
:1046C00069BF0D20704700BF50250020836913B1DA
:1046D0000248FEF7C5BF0D20704700BF50250020DF
:1046E00008B5836923B10348FEF7F0FF002008BD39
:1046F0000D20FCE75025002008B5836923B103484D
:10470000FFF708F8002008BD0D20FCE75025002029
:10471000143000F03BBA0022143000F070BA0122CD
:10472000143000F06CBAFFF7B5BE007D704714304E
:1047300000F0BAB9C08A7047143000F0A8B92E3022
:104740007047143000F0B7B9408D7047FFF75EB87E
:1047500008B5836923B1243001F06AF8002008BD50
:104760000D20FCE70120704710B50446FFF742FF1B
:1047700020B1201DBDE8104000F024B810BD10B5D8
:104780000446FFF737FF18B16068003818BF0120F2
:1047900010BD0000036823B9016004484960FFF7B9
:1047A00007BB5A684A605960016070475025002075
:1047B0004368014613B90248FFF7ECBF704700BFDA
:1047C0005425002038B50025046805604CB16068A8
:1047D000844216BF436800246360036845609847BD
:1047E000F4E738BD4368496810B59C1A8A1AD20F9D
:1047F000B2EBD47F08BF5B1A4FEAD47008BFD80F62
:1048000010BD000070B505680C4625B9BDE87040C4
:104810004B68084818478B6898476A680146831AAE
:10482000002BB8BF121A2368A8BF0022BDE8704051
:10483000004818475025002038B50C461146A2689C
:104840000346944206D00568AC4204D10260FFF7EB
:10485000D9FFA46038BD2A460021002AF9D094422D
:1048600008D011469268F8E78B68002BF1D09B685E
:104870008B60EEE70029F7D1002DEAD0AA681A6014
:10488000E7E72DE9F047936805460C46164698473A
:104890003246814621462846FFF7CEFFD5F800A0D4
:1048A0004FF00008574647B14A4639462046FFF7C1
:1048B00099FF10B9B846BF68F5E7B8F1000F08D105
:1048C000C4F808A0314628462C60BDE8F047FFF741
:1048D00099BFD8F80830A360C8F80840BDE8F08751
:1048E00070B5066804460D467EB18B6898477368BC
:1048F000C01A002809DB20462A463146FFF79CFFF4
:1049000030463368BDE87040184729462046BDE868
:104910007040FFF777BF000010B50446FFF76AFE4E
:1049200030B104F108000349BDE81040FFF7D8BFDB
:1049300010BD00BF0C3001004160024A0146024830
:10494000FFF79FBF003001005C250020002A00DA3D
:10495000FEE71144FFF7F0BF13B504460191FFF7DE
:10496000A0FD01462046019A02B0BDE81040FFF7C5
:10497000EDBF00000146024A0248FFF75DBF00BFDD
:10498000003001005C25002010B50446FFF732FE20
:1049900030B104F10C000349BDE81040FFF7A0BF9F
:1049A00010BD00BF0030010038B500250446C0E945
:1049B0000155C560103001F0DBFC214604F1140004
:1049C00000F044F884F8B05001F000FDC4F8B400E1
:1049D000204638BD10B5064C94F8B0302BB92046AF
:1049E000FFF7E2FF012384F8B030014810BD00BF9B
:1049F00050250020FDF788BE10B50446113001F0A7
:104A00008BFB04F11400BDE8104000F012B890F8E0
:104A1000B03010B504465BB10023243080F88C30F0
:104A200000F02AFF04F11000BDE8104001F08CBC3A
:104A300010BD0023C0E9023343600B2303704FF61F
:104A4000FF73103020F80E3C00F05ABE0B2310B557
:104A500003704FF6FF73438000230446C0E901331F
:104A6000C360103000F07CFE2046FFF7E2FF2046D6
:104A700010BD38B504460D46103019B100F0E6FE01
:104A800010B138BD00F0F8FE00206560F9E738B5D8
:104A9000436804460D462BB1103000F0A7FE0020FD
:104AA000658038BD0D20FCE7436813B1017000201C
:104AB00070470D20704708B5436823B1103000F0EF
:104AC000ABFE002008BD0D20FCE708B5436823B10C
:104AD000103000F091FE002008BD0D20FCE708B565
:104AE000436823B1103000F08DFE002008BD0D207A
:104AF000FCE743681BB110F8101B00F0D5BE0D2079
:104B00007047000010B444682CB122B92346034812
:104B10005DF8044B18475DF8044B704750250020A2
:104B200038B5436804460D462BB1103001F0D3F878
:104B300000B9A56038BD0D20FCE7000038B58568D8
:104B400004461DB10248A8470023A36038BD00BF3A
:104B50005025002038B51D46436804462BB110305F
:104B600000F08CFF00B9E56038BD0D20FCE70000C7
:104B7000436810B504462BB1C3681BB1024898477F
:104B80000023E36010BD00BF502500202DE9F04355
:104B900004468FB00D4616460021102202A806AF2B
:104BA00099460DF128080CF00AFC10220021384625
:104BB0000CF005FC1022002140460CF000FC63685C
:104BC000DBB10022494602A800F081FD00223846F0
:104BD000169900F07CFD00224046179900F077FD01
:104BE00004F1100032462946CDE9007802AB00F00E
:104BF000CDFF00200FB0BDE8F0830D20FAE708B527
:104C0000436823B1103001F075F9002008BD0D2074
:104C1000FCE703685878000200F44050A0F5005308
:104C200058425841704703681878C0F3C000704775
:104C300003681970090A5970704710B402685478F3
:104C4000137843EA04231BB231B143F010035DF83B
:104C5000044B99B2FFF7ECBF23F01003F7E710B451
:104C600002685478137843EA04231BB231B143F449
:104C700000735DF8044B99B2FFF7DABF23F40073B9
:104C8000F7E703685B7813F0010F14BF02200320DD
:104C9000704700F44053B3F5005F1ED148F2400264
:104CA00020F44E5323F03F0393421CD00CD8B3F5AD
:104CB000446F18D005D8B3B1B3F5046018BF012014
:104CC0007047B3F50040F9E74CF6404293420AD0F2
:104CD00000F44C40B0F54040F0E710F4406F14BFD2
:104CE00001200020704700207047036858781B7827
:104CF00043EA0020FFF7CDBF10B50446FFF7F5FFEC
:104D000020B12046BDE81040FFF7BBBFFF2010BD1B
:104D100038B50C460546FFF7EFFFFF2817BF2A6896
:104D20000620131859781FBF135C002043EA0123A3
:104D3000238038BD03685A78D20700D5FEE79878FB
:104D4000704703685A78D20700D5FEE7997070471C
:104D500010B50246FFF795FF04461046FFF7C5FF62
:104D6000002814BF022000202044C0B210BD38B576
:104D700005460C46FFF7ECFFFF281BD029684B784F
:104D8000C3F38103022B04D0032B0CD0002020722C
:104D900008E00B185A780B5C43EA022323800123B6
:104DA0000020237238BD01440122204600F074FC2B
:104DB0000223F5E70620F5E700F44053B3F5005F62
:104DC00004D100F44C43B3F54C4F07D010F44043EA
:104DD00004D080F04000C0F380107047002070477E
:104DE00010B50368024659781C7844EA012420462D
:104DF000FFF7E2FFB0B11046FFF743FF0146204640
:104E0000FFF747FF08B10231C9B2C4F38124022C75
:104E100003D0032C04D0084610BD0231C9B2FAE712
:104E20000831FBE7FF21F6E738B50C460546FFF7EA
:104E3000D7FFFF2817BF2A680620131859781FBF0D
:104E4000135C002043EA0123238038BD10B50368BA
:104E50005A781C7844EA0224FFF713FF01462046E3
:104E6000FFF717FF08B10231C9B2C4F38123022B47
:104E700009D0032B0AD02046FFF79EFF08B102316C
:104E8000C9B2084610BD0231C9B2F4E70831FBE7E8
:104E900038B505460C46FFF7D9FF2968FF284A7840
:104EA0000B7843EA022305D09B0B022B04D0032B83
:104EB0000CD043B1062008E00B185A780B5C43EA8B
:104EC0000223238001230020237238BD01440122E4
:104ED000204600F0E1FB0223F5E700F0180010285F
:104EE00004D0182814BF0020082070470420704701
:104EF00000F00700013806280BD8DFE800F00406B0
:104F0000080A040608000420704708207047102093
:104F1000704700207047037A012B06D0022B14BF84
:104F200000200320884080B270470220FAE7420741
:104F300008B5034608D0FFF7D0FF13F0180F0CBFD9
:104F400005300630C0B208BDFF20FCE72DE9F7436D
:104F5000071D0446B0F80090B0F802800E463846AF
:104F60000E21FFF7D8FF49EA0805284304F10E0592
:104F700082B20A212846FFF7CEFFA37D104380B2FC
:104F80005BB1012B04D14FF6FF72E189914204D04D
:104F9000B9F1020F18BF40F02000A27F002A14BF11
:104FA00008220022B8F5805F40EA020094F8212030
:104FB00005D0B8F5005F0ED0B8F1000F16D1217BF7
:104FC00031B12BB1218B638B994208BF40F0400077
:104FD000D3070FD5FEE7217B002B40F09480637F41
:104FE000002940F08880002B40F09980D10748BF0D
:104FF00040F4807012F0020F14BF4FF400784FF0AD
:1050000000087F2248EA00083168684601F044F948
:105010004146684601F063F918F4807F03D101210D
:10502000684601F086F94046FFF733FE18B168463E
:10503000618B01F054F92946684601F05BF940465E
:10504000FFF7BAFE18B16846218B01F048F93946DE
:10505000684601F04FF9BDF80430A57FB3808DB1EB
:10506000E07F05432946684601F02EF92846FFF700
:105070005EFF013881B2684601F05BF92846FFF710
:1050800037FF054694F821309A070FD5022168466C
:1050900001F04FF904221A2100F0F2FA04216846C7
:1050A00001F047F9337F43F00803337718F4007FAA
:1050B0000ED02388032B03D094F821305B070FD444
:1050C0000221684601F035F900227F2100F0D8FA6C
:1050D0002388032B04D1684694F8201001F0F4F8DB
:1050E000A91C684689B201F024F9BDF80430B380E8
:1050F00003B0BDE8F083002B7FF478AF237F002B53
:105100007FF474AF0BE009B9637FF8E7022901D19E
:10511000022BF9D0218B638B99427FF467AF40F06B
:10512000400063E710B580F480720446C2F30021AA
:10513000FFF7AFFD50B98A1CC4F38123022B07D0BF
:10514000032B16D033B1FF22104610BD0A1DF3E722
:105150000232D2B22046FFF72FFE08B10232D2B29D
:10516000A40B022C07D0032C08D0002C18BFFF2260
:10517000EAE70832EDE70232D2B2E5E70832FBE7B0
:105180008388032B06D9036858781B7843EA0020EC
:10519000FFF7C8BFFF207047838810B5022B044675
:1051A00007D9FFF740FD20B12046BDE81040FFF7CA
:1051B000E7BFFF2010BD38B505460C46FFF7ECFFF2
:1051C000FF2817BF2B6806201B5C00201CBF03F0C4
:1051D0000703237038BD38B505460C46FFF7DCFFE2
:1051E000FF2817BF2B6806201B5C00201CBF03F0A4
:1051F0001803237038BD38B505460C46FFF7CCFFC1
:10520000FF281FBF431C2A68DBB2D35816BF0020FB
:105210000620236038BD38B505460C46FFF7BCFFB5
:10522000FF2800D1FEE72A68431CD9B2545452FA31
:1052300083F3220A5A70220C240E9A70DC702B7FA2
:1052400043F001032B7738BD38B505460C46FFF710
:10525000A3FFFF28024609D02B68185CFFF73DFE2C
:105260001344034400205B79237038BD0620FCE71B
:1052700038B505460C46FFF78FFFFF28024600D1E0
:10528000FEE72B68185CFFF728FE134403445C71AB
:1052900038BD10B50446FFF77FFFFF2806D023680E
:1052A000185CFFF725FE0230C0B210BD0220FCE7FB
:1052B00038B50546FFF764FFFF28044611D028469D
:1052C000FFF7B1FC68B1A9888C420CDA2B68185D35
:1052D000FFF72DFEFF2808D02044C4B2A142B8BF7A
:1052E000FF24204638BDFF24FBE70446F9E7F8B564
:1052F0000646FFF7DDFF84B2FF2C2DD037687B78A0
:105300003D7845EA0325AB051CD53046FFF7C1FFC4
:10531000B188A21C93B210FA82F28A4207EB040C05
:105320001CDC3A5D02F07F0213449CB210FA83F356
:10533000994213DBBCF80020C2F3C7127F2A01D0C8
:105340009942E6D13046FFF764FC28B905F007051D
:10535000032D01D10134A4B2E0B2F8BDFF24FBE774
:1053600010B50446FFF7C3FFFF2816BF23680020CF
:10537000C01810BD10B50446FFF7F2FF2368C01A2D
:10538000C0B210BD38B50546FFF7F4FF0446284605
:10539000FFF77FFF0444A888001B80B238BD10B51A
:1053A0000446FFF776FFA388181A2368184410BD37
:1053B00003685B789B0701D5FFF77ABFFF20704732
:1053C00070B506460D46FFF7F3FF04463046FFF77B
:1053D0008EFFFF2C024612D0FF2810D0ADB29442AF
:1053E0000DD83368195B1819C1F3C7118D4207D066
:1053F0001B5D03F07F0302331C44E4B2EFE700209F
:1054000070BD1A2108B5FFF7DBFF003818BF012077
:1054100008BD08B51A21FFF7D3FF00B1023008BD5F
:1054200038B50D461446FFF7F4FF08B145800480F7
:1054300038BDF0B500230446B3B00AA80D46059365
:1054400001F089F92046FFF7EEFB00284FD02046F7
:105450000DF11301FFF7AFFE002848D1204605A942
:10546000FFF7C9FE0646002841D106AF3B469DF82E
:1054700013202846059901F060F9A1680AA800F0F8
:10548000BFFF2046FFF705FF05462046FFF772FFE6
:1054900003902046FFF776FF0D23023D0246039955
:1054A000CDE900730AA8EBB200F0B6FF2046FFF783
:1054B00061FF216802460AA801F051F82046FFF773
:1054C0004FFF03902046FFF75DFF039A0346114606
:1054D0000AA8009601F087F82046FFF760FF014612
:1054E0000AA801F00DF9237F43F0100323770AA8DF
:1054F00001F04AF933B0F0BD2DE9F0438FB00C460E
:10550000064691460021222205A898469DF858702B
:105510000BF055FF002320468DF810308DF8033036
:105520008DF80430FFF775FB20B9062528460FB02B
:10553000BDE8F08323681B789B06F6D5204602A9B8
:10554000FFF715FC05460028F0D19DF81030002B20
:10555000EBD0012B05D14FF6FF73BDF808209A421E
:10556000E3D020460DF12201FFF792FC054600280A
:10557000DCD19DF82A30002BD7D02046FFF753FB13
:1055800000284ED1236858781B7843EA0020FFF7A3
:1055900013FC002858D020460DF10601FFF744FC0B
:1055A00000284FD1BDF806100BA800F088F8A379A9
:1055B00020220021B37106F108000BF000FF2F4BF1
:1055C000314605939DF8033005A88DF832309DF8DB
:1055D00004308DF83330FFF7B9FC30464946FFF709
:1055E0002CFB391E18BF0121FFF739FB2046FFF7BE
:1055F000A1FB01463046FFF7A4FB2046FFF713FB53
:1056000050B120460DF10501FFF71EFED0B930461E
:105610009DF80510FFF72CFE77B3B8F1000F1ED1EF
:10562000FEE720460DF10301FFF7C5FD50B99DF8D7
:105630000330052B7FF479AF204601A9FFF7CBFD9E
:1056400000289FD0054671E72046FFF74EFB002853
:10565000ADD020460DF10601FFF75AFBA0E730461A
:10566000FFF7A6FE33683A46184441460BF080FE29
:10567000B3881F44B78059E73D4657E70200002032
:10568000C90101F4FF410180037802F07F0223F099
:105690007F0313430370704712B1012A05D070478E
:1056A0000B6803604B684360704701F108030138E1
:1056B00013F8012D8B4200F8012FF9D17047012317
:1056C000418043717047102200210BF078BE0B46D9
:1056D000024630B501F110051446186859680833C0
:1056E00003C4AB422246F7D130BD102308608B8043
:1056F0007047000001460148FDF74CBE50250020D0
:1057000038B54FF6FE7300250446C3800381438AF3
:10571000458003F0FC0343F4FE4343F0010343825E
:105720000571C0F80A50C0F80E5080F85D50456110
:105730002830FFF7C8FF04F13800FFF7C4FF04F179
:105740004800FFF7C0FF04F16000A56584F85C50D5
:10575000FFF710F92046BDE8384000F0F8BB000024
:1057600037B51D4D044628460191FDF7B1FE208056
:105770002846FDF735FE0199A06104F11C0000F0F8
:10578000CFFB00211022C4E9081104F128000BF01E
:1057900016FE1022002104F138000BF010FE00214B
:1057A000102204F148000BF00AFE23460B4A204663
:1057B00043F8602FA3662346094A43F8802FC4F8B4
:1057C0008830FF2384F87C3084F87D30FFF798FF21
:1057D000204603B030BD00BF50250020E95E000028
:1057E000F1600000008840F07C0070470148FEF73F
:1057F00029B800BF50250020C180014800F0E8BC56
:105800006125002002898A4203D00181014800F00D
:105810001ABD7047502500200A68C0F80A204A685F
:10582000C0F80E20014800F069BC00BF61250020CF
:10583000837C61F3000383740388DB0502D502488F
:1058400000F01EBD704700BF50250020837810B5C2
:10585000044663B90748FDF7F1FB50B90548FDF769
:10586000A1FD30B9A378012B01D00123A370002042
:1058700010BDFEE75025002010B504468030FFF72C
:1058800079F804F16000FFF775F80648FDF78AFD26
:1058900030B90448FDF70EFC10B9A37803B1A0702D
:1058A00010BD00BF5025002010B50446A37C08465B
:1058B0009B0709D50648FDF775FD20B9A378022B93
:1058C0001CBF0223A37010BDFFF714FFF5E700BF54
:1058D0005025002038B50123044603FA01F10020C9
:1058E00000F080FD4FF4A07303FB00F5A37CDB0701
:1058F0000AD5A3699879FFF7FDFE294604F16000F7
:10590000BDE83840FFF728B80148FDF74BFDF4E744
:1059100050250020837810B503F0FB03032B0446C9
:105920001FD10388DB0605D483699879FFF7E2FE6F
:1059300000B1FEE7A378A169042B18BF042309482E
:1059400018BFA37000F058FC0D2808D1A1694B695D
:1059500033B100230348C1E9043300F04DFC00B12A
:10596000FEE710BD61250020837C9B0702D402481E
:10597000FDF7A8BD7F2070475025002083781C309C
:10598000022B1CBF022300F81A3C00F0D9BA03888E
:1059900010B59B07044600D5FEE7FFF7E5FF7F281B
:1059A00006D094F913307F2B01D0834200DAE074E3
:1059B000FCF746FE6369C01A002807DA616E04F13D
:1059C00060008022BDE81040FEF7C0BF204694F979
:1059D0001310BDE81040FFF7D1BF008880F0200011
:1059E000C0F34010704703468269127FC2F3800003
:1059F000520741BF188800F00C00B0FA80F040094F
:105A0000704700000378DB075FBF044B9869B0FA6A
:105A100080F0400948BF0020704700BF502500209B
:105A200038B5036A04460D461BB1426A0121284677
:105A300098472046FFF7E6FF58B12B681B789B0676
:105A400007D504F160004FF47A51BDE83840FEF705
:105A500083BF38BD008880F00400C0F38000704729
:105A600003889B075FBF044B9869B0FA80F0400938
:105A700048BF0020704700BF50250020F8B583784C
:105A8000054616469BB3033B042B30D9837CC3F3F6
:105A900040049B0705D57F21FFF770FF00242046B7
:105AA000F8BD03889B0708D51348FDF71DFBAB78AD
:105AB000052BF4D00523AB70F1E7FFF7D1FFC0B1A0
:105AC0000846FFF717FE044600B1FEE7AB78052B4A
:105AD0001CBF0523AB707F23EB74FCF7B1FD304492
